{
	"contracts/EricsToken.sol": {
		"EricsToken": {
			"abi": [
				{
					"inputs": [
						{
							"internalType": "uint256",
							"name": "_initialSupply",
							"type": "uint256"
						}
					],
					"stateMutability": "nonpayable",
					"type": "constructor"
				},
				{
					"anonymous": false,
					"inputs": [
						{
							"indexed": true,
							"internalType": "address",
							"name": "from",
							"type": "address"
						},
						{
							"indexed": false,
							"internalType": "uint256",
							"name": "value",
							"type": "uint256"
						}
					],
					"name": "Burn",
					"type": "event"
				},
				{
					"anonymous": false,
					"inputs": [
						{
							"indexed": true,
							"internalType": "address",
							"name": "to",
							"type": "address"
						},
						{
							"indexed": false,
							"internalType": "uint256",
							"name": "value",
							"type": "uint256"
						}
					],
					"name": "Mint",
					"type": "event"
				},
				{
					"anonymous": false,
					"inputs": [
						{
							"indexed": true,
							"internalType": "address",
							"name": "from",
							"type": "address"
						},
						{
							"indexed": true,
							"internalType": "address",
							"name": "to",
							"type": "address"
						},
						{
							"indexed": false,
							"internalType": "uint256",
							"name": "value",
							"type": "uint256"
						}
					],
					"name": "Transfer",
					"type": "event"
				},
				{
					"inputs": [
						{
							"internalType": "address",
							"name": "",
							"type": "address"
						}
					],
					"name": "balanceOf",
					"outputs": [
						{
							"internalType": "uint256",
							"name": "",
							"type": "uint256"
						}
					],
					"stateMutability": "view",
					"type": "function"
				},
				{
					"inputs": [
						{
							"internalType": "uint256",
							"name": "_value",
							"type": "uint256"
						}
					],
					"name": "burn",
					"outputs": [
						{
							"internalType": "bool",
							"name": "success",
							"type": "bool"
						}
					],
					"stateMutability": "nonpayable",
					"type": "function"
				},
				{
					"inputs": [],
					"name": "decimals",
					"outputs": [
						{
							"internalType": "uint256",
							"name": "",
							"type": "uint256"
						}
					],
					"stateMutability": "view",
					"type": "function"
				},
				{
					"inputs": [
						{
							"internalType": "uint256",
							"name": "_value",
							"type": "uint256"
						}
					],
					"name": "mint",
					"outputs": [
						{
							"internalType": "bool",
							"name": "success",
							"type": "bool"
						}
					],
					"stateMutability": "nonpayable",
					"type": "function"
				},
				{
					"inputs": [],
					"name": "name",
					"outputs": [
						{
							"internalType": "string",
							"name": "",
							"type": "string"
						}
					],
					"stateMutability": "view",
					"type": "function"
				},
				{
					"inputs": [],
					"name": "owner",
					"outputs": [
						{
							"internalType": "address",
							"name": "",
							"type": "address"
						}
					],
					"stateMutability": "view",
					"type": "function"
				},
				{
					"inputs": [],
					"name": "symbol",
					"outputs": [
						{
							"internalType": "string",
							"name": "",
							"type": "string"
						}
					],
					"stateMutability": "view",
					"type": "function"
				},
				{
					"inputs": [],
					"name": "totalSupply",
					"outputs": [
						{
							"internalType": "uint256",
							"name": "",
							"type": "uint256"
						}
					],
					"stateMutability": "view",
					"type": "function"
				},
				{
					"inputs": [
						{
							"internalType": "address",
							"name": "_to",
							"type": "address"
						},
						{
							"internalType": "uint256",
							"name": "_value",
							"type": "uint256"
						}
					],
					"name": "transfer",
					"outputs": [
						{
							"internalType": "bool",
							"name": "success",
							"type": "bool"
						}
					],
					"stateMutability": "nonpayable",
					"type": "function"
				}
			],
			"devdoc": {
				"kind": "dev",
				"methods": {},
				"version": 1
			},
			"evm": {
				"assembly": "    /* \"contracts/EricsToken.sol\":60:1827  contract EricsToken {... */\n  mstore(0x40, 0x80)\n    /* \"contracts/EricsToken.sol\":87:120  string public name = \"EricsToken\" */\n  mload(0x40)\n  dup1\n  0x40\n  add\n  0x40\n  mstore\n  dup1\n  0x0a\n  dup2\n  mstore\n  0x20\n  add\n  0x4572696373546f6b656e00000000000000000000000000000000000000000000\n  dup2\n  mstore\n  pop\n  0x00\n  swap1\n  dup2\n  tag_1\n  swap2\n  swap1\n  tag_2\n  jump\t// in\ntag_1:\n  pop\n    /* \"contracts/EricsToken.sol\":127:155  string public symbol = \"ETK\" */\n  mload(0x40)\n  dup1\n  0x40\n  add\n  0x40\n  mstore\n  dup1\n  0x03\n  dup2\n  mstore\n  0x20\n  add\n  0x45544b0000000000000000000000000000000000000000000000000000000000\n  dup2\n  mstore\n  pop\n  0x01\n  swap1\n  dup2\n  tag_3\n  swap2\n  swap1\n  tag_2\n  jump\t// in\ntag_3:\n  pop\n    /* \"contracts/EricsToken.sol\":188:190  18 */\n  0x12\n    /* \"contracts/EricsToken.sol\":162:190  uint256 public decimals = 18 */\n  0x02\n  sstore\n    /* \"contracts/EricsToken.sol\":623:793  constructor(uint256 _initialSupply) {... */\n  callvalue\n  dup1\n  iszero\n  tag_4\n  jumpi\n  0x00\n  dup1\n  revert\ntag_4:\n  pop\n  mload(0x40)\n  sub(codesize, bytecodeSize)\n  dup1\n  bytecodeSize\n  dup4\n  codecopy\n  dup2\n  dup2\n  add\n  0x40\n  mstore\n  dup2\n  add\n  swap1\n  tag_5\n  swap2\n  swap1\n  tag_6\n  jump\t// in\ntag_5:\n    /* \"contracts/EricsToken.sol\":678:688  msg.sender */\n  caller\n    /* \"contracts/EricsToken.sol\":670:675  owner */\n  0x04\n  0x00\n    /* \"contracts/EricsToken.sol\":670:688  owner = msg.sender */\n  0x0100\n  exp\n  dup2\n  sload\n  dup2\n  0xffffffffffffffffffffffffffffffffffffffff\n  mul\n  not\n  and\n  swap1\n  dup4\n  0xffffffffffffffffffffffffffffffffffffffff\n  and\n  mul\n  or\n  swap1\n  sstore\n  pop\n    /* \"contracts/EricsToken.sol\":736:744  decimals */\n  sload(0x02)\n    /* \"contracts/EricsToken.sol\":730:732  10 */\n  0x0a\n    /* \"contracts/EricsToken.sol\":730:744  10 ** decimals */\n  tag_9\n  swap2\n  swap1\n  tag_10\n  jump\t// in\ntag_9:\n    /* \"contracts/EricsToken.sol\":713:727  _initialSupply */\n  dup2\n    /* \"contracts/EricsToken.sol\":713:744  _initialSupply * 10 ** decimals */\n  tag_11\n  swap2\n  swap1\n  tag_12\n  jump\t// in\ntag_11:\n    /* \"contracts/EricsToken.sol\":699:710  totalSupply */\n  0x03\n    /* \"contracts/EricsToken.sol\":699:744  totalSupply = _initialSupply * 10 ** decimals */\n  dup2\n  swap1\n  sstore\n  pop\n    /* \"contracts/EricsToken.sol\":774:785  totalSupply */\n  sload(0x03)\n    /* \"contracts/EricsToken.sol\":755:764  balanceOf */\n  0x05\n    /* \"contracts/EricsToken.sol\":755:771  balanceOf[owner] */\n  0x00\n    /* \"contracts/EricsToken.sol\":765:770  owner */\n  0x04\n  0x00\n  swap1\n  sload\n  swap1\n  0x0100\n  exp\n  swap1\n  div\n  0xffffffffffffffffffffffffffffffffffffffff\n  and\n    /* \"contracts/EricsToken.sol\":755:771  balanceOf[owner] */\n  0xffffffffffffffffffffffffffffffffffffffff\n  and\n  0xffffffffffffffffffffffffffffffffffffffff\n  and\n  dup2\n  mstore\n  0x20\n  add\n  swap1\n  dup2\n  mstore\n  0x20\n  add\n  0x00\n  keccak256\n    /* \"contracts/EricsToken.sol\":755:785  balanceOf[owner] = totalSupply */\n  dup2\n  swap1\n  sstore\n  pop\n    /* \"contracts/EricsToken.sol\":623:793  constructor(uint256 _initialSupply) {... */\n  pop\n    /* \"contracts/EricsToken.sol\":60:1827  contract EricsToken {... */\n  jump(tag_13)\n    /* \"#utility.yul\":7:106   */\ntag_14:\n    /* \"#utility.yul\":59:65   */\n  0x00\n    /* \"#utility.yul\":93:98   */\n  dup2\n    /* \"#utility.yul\":87:99   */\n  mload\n    /* \"#utility.yul\":77:99   */\n  swap1\n  pop\n    /* \"#utility.yul\":7:106   */\n  swap2\n  swap1\n  pop\n  jump\t// out\n    /* \"#utility.yul\":112:292   */\ntag_15:\n    /* \"#utility.yul\":160:237   */\n  0x4e487b7100000000000000000000000000000000000000000000000000000000\n    /* \"#utility.yul\":157:158   */\n  0x00\n    /* \"#utility.yul\":150:238   */\n  mstore\n    /* \"#utility.yul\":257:261   */\n  0x41\n    /* \"#utility.yul\":254:255   */\n  0x04\n    /* \"#utility.yul\":247:262   */\n  mstore\n    /* \"#utility.yul\":281:285   */\n  0x24\n    /* \"#utility.yul\":278:279   */\n  0x00\n    /* \"#utility.yul\":271:286   */\n  revert\n    /* \"#utility.yul\":298:478   */\ntag_16:\n    /* \"#utility.yul\":346:423   */\n  0x4e487b7100000000000000000000000000000000000000000000000000000000\n    /* \"#utility.yul\":343:344   */\n  0x00\n    /* \"#utility.yul\":336:424   */\n  mstore\n    /* \"#utility.yul\":443:447   */\n  0x22\n    /* \"#utility.yul\":440:441   */\n  0x04\n    /* \"#utility.yul\":433:448   */\n  mstore\n    /* \"#utility.yul\":467:471   */\n  0x24\n    /* \"#utility.yul\":464:465   */\n  0x00\n    /* \"#utility.yul\":457:472   */\n  revert\n    /* \"#utility.yul\":484:804   */\ntag_17:\n    /* \"#utility.yul\":528:534   */\n  0x00\n    /* \"#utility.yul\":565:566   */\n  0x02\n    /* \"#utility.yul\":559:563   */\n  dup3\n    /* \"#utility.yul\":555:567   */\n  div\n    /* \"#utility.yul\":545:567   */\n  swap1\n  pop\n    /* \"#utility.yul\":612:613   */\n  0x01\n    /* \"#utility.yul\":606:610   */\n  dup3\n    /* \"#utility.yul\":602:614   */\n  and\n    /* \"#utility.yul\":633:651   */\n  dup1\n    /* \"#utility.yul\":623:704   */\n  tag_48\n  jumpi\n    /* \"#utility.yul\":689:693   */\n  0x7f\n    /* \"#utility.yul\":681:687   */\n  dup3\n    /* \"#utility.yul\":677:694   */\n  and\n    /* \"#utility.yul\":667:694   */\n  swap2\n  pop\n    /* \"#utility.yul\":623:704   */\ntag_48:\n    /* \"#utility.yul\":751:753   */\n  0x20\n    /* \"#utility.yul\":743:749   */\n  dup3\n    /* \"#utility.yul\":740:754   */\n  lt\n    /* \"#utility.yul\":720:738   */\n  dup2\n    /* \"#utility.yul\":717:755   */\n  sub\n    /* \"#utility.yul\":714:798   */\n  tag_49\n  jumpi\n    /* \"#utility.yul\":770:788   */\n  tag_50\n  tag_16\n  jump\t// in\ntag_50:\n    /* \"#utility.yul\":714:798   */\ntag_49:\n    /* \"#utility.yul\":535:804   */\n  pop\n    /* \"#utility.yul\":484:804   */\n  swap2\n  swap1\n  pop\n  jump\t// out\n    /* \"#utility.yul\":810:951   */\ntag_18:\n    /* \"#utility.yul\":859:863   */\n  0x00\n    /* \"#utility.yul\":882:885   */\n  dup2\n    /* \"#utility.yul\":874:885   */\n  swap1\n  pop\n    /* \"#utility.yul\":905:908   */\n  dup2\n    /* \"#utility.yul\":902:903   */\n  0x00\n    /* \"#utility.yul\":895:909   */\n  mstore\n    /* \"#utility.yul\":939:943   */\n  0x20\n    /* \"#utility.yul\":936:937   */\n  0x00\n    /* \"#utility.yul\":926:944   */\n  keccak256\n    /* \"#utility.yul\":918:944   */\n  swap1\n  pop\n    /* \"#utility.yul\":810:951   */\n  swap2\n  swap1\n  pop\n  jump\t// out\n    /* \"#utility.yul\":957:1050   */\ntag_19:\n    /* \"#utility.yul\":994:1000   */\n  0x00\n    /* \"#utility.yul\":1041:1043   */\n  0x20\n    /* \"#utility.yul\":1036:1038   */\n  0x1f\n    /* \"#utility.yul\":1029:1034   */\n  dup4\n    /* \"#utility.yul\":1025:1039   */\n  add\n    /* \"#utility.yul\":1021:1044   */\n  div\n    /* \"#utility.yul\":1011:1044   */\n  swap1\n  pop\n    /* \"#utility.yul\":957:1050   */\n  swap2\n  swap1\n  pop\n  jump\t// out\n    /* \"#utility.yul\":1056:1163   */\ntag_20:\n    /* \"#utility.yul\":1100:1108   */\n  0x00\n    /* \"#utility.yul\":1150:1155   */\n  dup3\n    /* \"#utility.yul\":1144:1148   */\n  dup3\n    /* \"#utility.yul\":1140:1156   */\n  shl\n    /* \"#utility.yul\":1119:1156   */\n  swap1\n  pop\n    /* \"#utility.yul\":1056:1163   */\n  swap3\n  swap2\n  pop\n  pop\n  jump\t// out\n    /* \"#utility.yul\":1169:1562   */\ntag_21:\n    /* \"#utility.yul\":1238:1244   */\n  0x00\n    /* \"#utility.yul\":1288:1289   */\n  0x08\n    /* \"#utility.yul\":1276:1286   */\n  dup4\n    /* \"#utility.yul\":1272:1290   */\n  mul\n    /* \"#utility.yul\":1311:1408   */\n  tag_55\n    /* \"#utility.yul\":1341:1407   */\n  0xffffffffffffffffffffffffffffffffffffffffffffffffffffffffffffffff\n    /* \"#utility.yul\":1330:1339   */\n  dup3\n    /* \"#utility.yul\":1311:1408   */\n  tag_20\n  jump\t// in\ntag_55:\n    /* \"#utility.yul\":1429:1468   */\n  tag_56\n    /* \"#utility.yul\":1459:1467   */\n  dup7\n    /* \"#utility.yul\":1448:1457   */\n  dup4\n    /* \"#utility.yul\":1429:1468   */\n  tag_20\n  jump\t// in\ntag_56:\n    /* \"#utility.yul\":1417:1468   */\n  swap6\n  pop\n    /* \"#utility.yul\":1501:1505   */\n  dup1\n    /* \"#utility.yul\":1497:1506   */\n  not\n    /* \"#utility.yul\":1490:1495   */\n  dup5\n    /* \"#utility.yul\":1486:1507   */\n  and\n    /* \"#utility.yul\":1477:1507   */\n  swap4\n  pop\n    /* \"#utility.yul\":1550:1554   */\n  dup1\n    /* \"#utility.yul\":1540:1548   */\n  dup7\n    /* \"#utility.yul\":1536:1555   */\n  and\n    /* \"#utility.yul\":1529:1534   */\n  dup5\n    /* \"#utility.yul\":1526:1556   */\n  or\n    /* \"#utility.yul\":1516:1556   */\n  swap3\n  pop\n    /* \"#utility.yul\":1245:1562   */\n  pop\n  pop\n    /* \"#utility.yul\":1169:1562   */\n  swap4\n  swap3\n  pop\n  pop\n  pop\n  jump\t// out\n    /* \"#utility.yul\":1568:1645   */\ntag_22:\n    /* \"#utility.yul\":1605:1612   */\n  0x00\n    /* \"#utility.yul\":1634:1639   */\n  dup2\n    /* \"#utility.yul\":1623:1639   */\n  swap1\n  pop\n    /* \"#utility.yul\":1568:1645   */\n  swap2\n  swap1\n  pop\n  jump\t// out\n    /* \"#utility.yul\":1651:1711   */\ntag_23:\n    /* \"#utility.yul\":1679:1682   */\n  0x00\n    /* \"#utility.yul\":1700:1705   */\n  dup2\n    /* \"#utility.yul\":1693:1705   */\n  swap1\n  pop\n    /* \"#utility.yul\":1651:1711   */\n  swap2\n  swap1\n  pop\n  jump\t// out\n    /* \"#utility.yul\":1717:1859   */\ntag_24:\n    /* \"#utility.yul\":1767:1776   */\n  0x00\n    /* \"#utility.yul\":1800:1853   */\n  tag_60\n    /* \"#utility.yul\":1818:1852   */\n  tag_61\n    /* \"#utility.yul\":1827:1851   */\n  tag_62\n    /* \"#utility.yul\":1845:1850   */\n  dup5\n    /* \"#utility.yul\":1827:1851   */\n  tag_22\n  jump\t// in\ntag_62:\n    /* \"#utility.yul\":1818:1852   */\n  tag_23\n  jump\t// in\ntag_61:\n    /* \"#utility.yul\":1800:1853   */\n  tag_22\n  jump\t// in\ntag_60:\n    /* \"#utility.yul\":1787:1853   */\n  swap1\n  pop\n    /* \"#utility.yul\":1717:1859   */\n  swap2\n  swap1\n  pop\n  jump\t// out\n    /* \"#utility.yul\":1865:1940   */\ntag_25:\n    /* \"#utility.yul\":1908:1911   */\n  0x00\n    /* \"#utility.yul\":1929:1934   */\n  dup2\n    /* \"#utility.yul\":1922:1934   */\n  swap1\n  pop\n    /* \"#utility.yul\":1865:1940   */\n  swap2\n  swap1\n  pop\n  jump\t// out\n    /* \"#utility.yul\":1946:2215   */\ntag_26:\n    /* \"#utility.yul\":2056:2095   */\n  tag_65\n    /* \"#utility.yul\":2087:2094   */\n  dup4\n    /* \"#utility.yul\":2056:2095   */\n  tag_24\n  jump\t// in\ntag_65:\n    /* \"#utility.yul\":2117:2208   */\n  tag_66\n    /* \"#utility.yul\":2166:2207   */\n  tag_67\n    /* \"#utility.yul\":2190:2206   */\n  dup3\n    /* \"#utility.yul\":2166:2207   */\n  tag_25\n  jump\t// in\ntag_67:\n    /* \"#utility.yul\":2158:2164   */\n  dup5\n    /* \"#utility.yul\":2151:2155   */\n  dup5\n    /* \"#utility.yul\":2145:2156   */\n  sload\n    /* \"#utility.yul\":2117:2208   */\n  tag_21\n  jump\t// in\ntag_66:\n    /* \"#utility.yul\":2111:2115   */\n  dup3\n    /* \"#utility.yul\":2104:2209   */\n  sstore\n    /* \"#utility.yul\":2022:2215   */\n  pop\n    /* \"#utility.yul\":1946:2215   */\n  pop\n  pop\n  pop\n  jump\t// out\n    /* \"#utility.yul\":2221:2294   */\ntag_27:\n    /* \"#utility.yul\":2266:2269   */\n  0x00\n    /* \"#utility.yul\":2221:2294   */\n  swap1\n  jump\t// out\n    /* \"#utility.yul\":2300:2489   */\ntag_28:\n    /* \"#utility.yul\":2377:2409   */\n  tag_70\n  tag_27\n  jump\t// in\ntag_70:\n    /* \"#utility.yul\":2418:2483   */\n  tag_71\n    /* \"#utility.yul\":2476:2482   */\n  dup2\n    /* \"#utility.yul\":2468:2474   */\n  dup5\n    /* \"#utility.yul\":2462:2466   */\n  dup5\n    /* \"#utility.yul\":2418:2483   */\n  tag_26\n  jump\t// in\ntag_71:\n    /* \"#utility.yul\":2353:2489   */\n  pop\n    /* \"#utility.yul\":2300:2489   */\n  pop\n  pop\n  jump\t// out\n    /* \"#utility.yul\":2495:2681   */\ntag_29:\n    /* \"#utility.yul\":2555:2675   */\ntag_73:\n    /* \"#utility.yul\":2572:2575   */\n  dup2\n    /* \"#utility.yul\":2565:2570   */\n  dup2\n    /* \"#utility.yul\":2562:2576   */\n  lt\n    /* \"#utility.yul\":2555:2675   */\n  iszero\n  tag_75\n  jumpi\n    /* \"#utility.yul\":2626:2665   */\n  tag_76\n    /* \"#utility.yul\":2663:2664   */\n  0x00\n    /* \"#utility.yul\":2656:2661   */\n  dup3\n    /* \"#utility.yul\":2626:2665   */\n  tag_28\n  jump\t// in\ntag_76:\n    /* \"#utility.yul\":2599:2600   */\n  0x01\n    /* \"#utility.yul\":2592:2597   */\n  dup2\n    /* \"#utility.yul\":2588:2601   */\n  add\n    /* \"#utility.yul\":2579:2601   */\n  swap1\n  pop\n    /* \"#utility.yul\":2555:2675   */\n  jump(tag_73)\ntag_75:\n    /* \"#utility.yul\":2495:2681   */\n  pop\n  pop\n  jump\t// out\n    /* \"#utility.yul\":2687:3230   */\ntag_30:\n    /* \"#utility.yul\":2788:2790   */\n  0x1f\n    /* \"#utility.yul\":2783:2786   */\n  dup3\n    /* \"#utility.yul\":2780:2791   */\n  gt\n    /* \"#utility.yul\":2777:3223   */\n  iszero\n  tag_78\n  jumpi\n    /* \"#utility.yul\":2822:2860   */\n  tag_79\n    /* \"#utility.yul\":2854:2859   */\n  dup2\n    /* \"#utility.yul\":2822:2860   */\n  tag_18\n  jump\t// in\ntag_79:\n    /* \"#utility.yul\":2906:2935   */\n  tag_80\n    /* \"#utility.yul\":2924:2934   */\n  dup5\n    /* \"#utility.yul\":2906:2935   */\n  tag_19\n  jump\t// in\ntag_80:\n    /* \"#utility.yul\":2896:2904   */\n  dup2\n    /* \"#utility.yul\":2892:2936   */\n  add\n    /* \"#utility.yul\":3089:3091   */\n  0x20\n    /* \"#utility.yul\":3077:3087   */\n  dup6\n    /* \"#utility.yul\":3074:3092   */\n  lt\n    /* \"#utility.yul\":3071:3120   */\n  iszero\n  tag_81\n  jumpi\n    /* \"#utility.yul\":3110:3118   */\n  dup2\n    /* \"#utility.yul\":3095:3118   */\n  swap1\n  pop\n    /* \"#utility.yul\":3071:3120   */\ntag_81:\n    /* \"#utility.yul\":3133:3213   */\n  tag_82\n    /* \"#utility.yul\":3189:3211   */\n  tag_83\n    /* \"#utility.yul\":3207:3210   */\n  dup6\n    /* \"#utility.yul\":3189:3211   */\n  tag_19\n  jump\t// in\ntag_83:\n    /* \"#utility.yul\":3179:3187   */\n  dup4\n    /* \"#utility.yul\":3175:3212   */\n  add\n    /* \"#utility.yul\":3162:3173   */\n  dup3\n    /* \"#utility.yul\":3133:3213   */\n  tag_29\n  jump\t// in\ntag_82:\n    /* \"#utility.yul\":2792:3223   */\n  pop\n  pop\n    /* \"#utility.yul\":2777:3223   */\ntag_78:\n    /* \"#utility.yul\":2687:3230   */\n  pop\n  pop\n  pop\n  jump\t// out\n    /* \"#utility.yul\":3236:3353   */\ntag_31:\n    /* \"#utility.yul\":3290:3298   */\n  0x00\n    /* \"#utility.yul\":3340:3345   */\n  dup3\n    /* \"#utility.yul\":3334:3338   */\n  dup3\n    /* \"#utility.yul\":3330:3346   */\n  shr\n    /* \"#utility.yul\":3309:3346   */\n  swap1\n  pop\n    /* \"#utility.yul\":3236:3353   */\n  swap3\n  swap2\n  pop\n  pop\n  jump\t// out\n    /* \"#utility.yul\":3359:3528   */\ntag_32:\n    /* \"#utility.yul\":3403:3409   */\n  0x00\n    /* \"#utility.yul\":3436:3487   */\n  tag_86\n    /* \"#utility.yul\":3484:3485   */\n  0x00\n    /* \"#utility.yul\":3480:3486   */\n  not\n    /* \"#utility.yul\":3472:3477   */\n  dup5\n    /* \"#utility.yul\":3469:3470   */\n  0x08\n    /* \"#utility.yul\":3465:3478   */\n  mul\n    /* \"#utility.yul\":3436:3487   */\n  tag_31\n  jump\t// in\ntag_86:\n    /* \"#utility.yul\":3432:3488   */\n  not\n    /* \"#utility.yul\":3517:3521   */\n  dup1\n    /* \"#utility.yul\":3511:3515   */\n  dup4\n    /* \"#utility.yul\":3507:3522   */\n  and\n    /* \"#utility.yul\":3497:3522   */\n  swap2\n  pop\n    /* \"#utility.yul\":3410:3528   */\n  pop\n    /* \"#utility.yul\":3359:3528   */\n  swap3\n  swap2\n  pop\n  pop\n  jump\t// out\n    /* \"#utility.yul\":3533:3828   */\ntag_33:\n    /* \"#utility.yul\":3609:3613   */\n  0x00\n    /* \"#utility.yul\":3755:3784   */\n  tag_88\n    /* \"#utility.yul\":3780:3783   */\n  dup4\n    /* \"#utility.yul\":3774:3778   */\n  dup4\n    /* \"#utility.yul\":3755:3784   */\n  tag_32\n  jump\t// in\ntag_88:\n    /* \"#utility.yul\":3747:3784   */\n  swap2\n  pop\n    /* \"#utility.yul\":3817:3820   */\n  dup3\n    /* \"#utility.yul\":3814:3815   */\n  0x02\n    /* \"#utility.yul\":3810:3821   */\n  mul\n    /* \"#utility.yul\":3804:3808   */\n  dup3\n    /* \"#utility.yul\":3801:3822   */\n  or\n    /* \"#utility.yul\":3793:3822   */\n  swap1\n  pop\n    /* \"#utility.yul\":3533:3828   */\n  swap3\n  swap2\n  pop\n  pop\n  jump\t// out\n    /* \"#utility.yul\":3833:5228   */\ntag_2:\n    /* \"#utility.yul\":3950:3987   */\n  tag_90\n    /* \"#utility.yul\":3983:3986   */\n  dup3\n    /* \"#utility.yul\":3950:3987   */\n  tag_14\n  jump\t// in\ntag_90:\n    /* \"#utility.yul\":4052:4070   */\n  0xffffffffffffffff\n    /* \"#utility.yul\":4044:4050   */\n  dup2\n    /* \"#utility.yul\":4041:4071   */\n  gt\n    /* \"#utility.yul\":4038:4094   */\n  iszero\n  tag_91\n  jumpi\n    /* \"#utility.yul\":4074:4092   */\n  tag_92\n  tag_15\n  jump\t// in\ntag_92:\n    /* \"#utility.yul\":4038:4094   */\ntag_91:\n    /* \"#utility.yul\":4118:4156   */\n  tag_93\n    /* \"#utility.yul\":4150:4154   */\n  dup3\n    /* \"#utility.yul\":4144:4155   */\n  sload\n    /* \"#utility.yul\":4118:4156   */\n  tag_17\n  jump\t// in\ntag_93:\n    /* \"#utility.yul\":4203:4270   */\n  tag_94\n    /* \"#utility.yul\":4263:4269   */\n  dup3\n    /* \"#utility.yul\":4255:4261   */\n  dup3\n    /* \"#utility.yul\":4249:4253   */\n  dup6\n    /* \"#utility.yul\":4203:4270   */\n  tag_30\n  jump\t// in\ntag_94:\n    /* \"#utility.yul\":4297:4298   */\n  0x00\n    /* \"#utility.yul\":4321:4325   */\n  0x20\n    /* \"#utility.yul\":4308:4325   */\n  swap1\n  pop\n    /* \"#utility.yul\":4353:4355   */\n  0x1f\n    /* \"#utility.yul\":4345:4351   */\n  dup4\n    /* \"#utility.yul\":4342:4356   */\n  gt\n    /* \"#utility.yul\":4370:4371   */\n  0x01\n    /* \"#utility.yul\":4365:4983   */\n  dup2\n  eq\n  tag_96\n  jumpi\n    /* \"#utility.yul\":5027:5028   */\n  0x00\n    /* \"#utility.yul\":5044:5050   */\n  dup5\n    /* \"#utility.yul\":5041:5118   */\n  iszero\n  tag_97\n  jumpi\n    /* \"#utility.yul\":5093:5102   */\n  dup3\n    /* \"#utility.yul\":5088:5091   */\n  dup8\n    /* \"#utility.yul\":5084:5103   */\n  add\n    /* \"#utility.yul\":5078:5104   */\n  mload\n    /* \"#utility.yul\":5069:5104   */\n  swap1\n  pop\n    /* \"#utility.yul\":5041:5118   */\ntag_97:\n    /* \"#utility.yul\":5144:5211   */\n  tag_98\n    /* \"#utility.yul\":5204:5210   */\n  dup6\n    /* \"#utility.yul\":5197:5202   */\n  dup3\n    /* \"#utility.yul\":5144:5211   */\n  tag_33\n  jump\t// in\ntag_98:\n    /* \"#utility.yul\":5138:5142   */\n  dup7\n    /* \"#utility.yul\":5131:5212   */\n  sstore\n    /* \"#utility.yul\":5000:5222   */\n  pop\n    /* \"#utility.yul\":4335:5222   */\n  jump(tag_95)\n    /* \"#utility.yul\":4365:4983   */\ntag_96:\n    /* \"#utility.yul\":4417:4421   */\n  0x1f\n    /* \"#utility.yul\":4413:4422   */\n  not\n    /* \"#utility.yul\":4405:4411   */\n  dup5\n    /* \"#utility.yul\":4401:4423   */\n  and\n    /* \"#utility.yul\":4451:4488   */\n  tag_99\n    /* \"#utility.yul\":4483:4487   */\n  dup7\n    /* \"#utility.yul\":4451:4488   */\n  tag_18\n  jump\t// in\ntag_99:\n    /* \"#utility.yul\":4510:4511   */\n  0x00\n    /* \"#utility.yul\":4524:4732   */\ntag_100:\n    /* \"#utility.yul\":4538:4545   */\n  dup3\n    /* \"#utility.yul\":4535:4536   */\n  dup2\n    /* \"#utility.yul\":4532:4546   */\n  lt\n    /* \"#utility.yul\":4524:4732   */\n  iszero\n  tag_102\n  jumpi\n    /* \"#utility.yul\":4617:4626   */\n  dup5\n    /* \"#utility.yul\":4612:4615   */\n  dup10\n    /* \"#utility.yul\":4608:4627   */\n  add\n    /* \"#utility.yul\":4602:4628   */\n  mload\n    /* \"#utility.yul\":4594:4600   */\n  dup3\n    /* \"#utility.yul\":4587:4629   */\n  sstore\n    /* \"#utility.yul\":4668:4669   */\n  0x01\n    /* \"#utility.yul\":4660:4666   */\n  dup3\n    /* \"#utility.yul\":4656:4670   */\n  add\n    /* \"#utility.yul\":4646:4670   */\n  swap2\n  pop\n    /* \"#utility.yul\":4715:4717   */\n  0x20\n    /* \"#utility.yul\":4704:4713   */\n  dup6\n    /* \"#utility.yul\":4700:4718   */\n  add\n    /* \"#utility.yul\":4687:4718   */\n  swap5\n  pop\n    /* \"#utility.yul\":4561:4565   */\n  0x20\n    /* \"#utility.yul\":4558:4559   */\n  dup2\n    /* \"#utility.yul\":4554:4566   */\n  add\n    /* \"#utility.yul\":4549:4566   */\n  swap1\n  pop\n    /* \"#utility.yul\":4524:4732   */\n  jump(tag_100)\ntag_102:\n    /* \"#utility.yul\":4760:4766   */\n  dup7\n    /* \"#utility.yul\":4751:4758   */\n  dup4\n    /* \"#utility.yul\":4748:4767   */\n  lt\n    /* \"#utility.yul\":4745:4924   */\n  iszero\n  tag_103\n  jumpi\n    /* \"#utility.yul\":4818:4827   */\n  dup5\n    /* \"#utility.yul\":4813:4816   */\n  dup10\n    /* \"#utility.yul\":4809:4828   */\n  add\n    /* \"#utility.yul\":4803:4829   */\n  mload\n    /* \"#utility.yul\":4861:4909   */\n  tag_104\n    /* \"#utility.yul\":4903:4907   */\n  0x1f\n    /* \"#utility.yul\":4895:4901   */\n  dup10\n    /* \"#utility.yul\":4891:4908   */\n  and\n    /* \"#utility.yul\":4880:4889   */\n  dup3\n    /* \"#utility.yul\":4861:4909   */\n  tag_32\n  jump\t// in\ntag_104:\n    /* \"#utility.yul\":4853:4859   */\n  dup4\n    /* \"#utility.yul\":4846:4910   */\n  sstore\n    /* \"#utility.yul\":4768:4924   */\n  pop\n    /* \"#utility.yul\":4745:4924   */\ntag_103:\n    /* \"#utility.yul\":4970:4971   */\n  0x01\n    /* \"#utility.yul\":4966:4967   */\n  0x02\n    /* \"#utility.yul\":4958:4964   */\n  dup9\n    /* \"#utility.yul\":4954:4968   */\n  mul\n    /* \"#utility.yul\":4950:4972   */\n  add\n    /* \"#utility.yul\":4944:4948   */\n  dup9\n    /* \"#utility.yul\":4937:4973   */\n  sstore\n    /* \"#utility.yul\":4372:4983   */\n  pop\n  pop\n  pop\n    /* \"#utility.yul\":4335:5222   */\ntag_95:\n  pop\n    /* \"#utility.yul\":3925:5228   */\n  pop\n  pop\n  pop\n    /* \"#utility.yul\":3833:5228   */\n  pop\n  pop\n  jump\t// out\n    /* \"#utility.yul\":5315:5432   */\ntag_35:\n    /* \"#utility.yul\":5424:5425   */\n  0x00\n    /* \"#utility.yul\":5421:5422   */\n  dup1\n    /* \"#utility.yul\":5414:5426   */\n  revert\n    /* \"#utility.yul\":5561:5683   */\ntag_37:\n    /* \"#utility.yul\":5634:5658   */\n  tag_109\n    /* \"#utility.yul\":5652:5657   */\n  dup2\n    /* \"#utility.yul\":5634:5658   */\n  tag_22\n  jump\t// in\ntag_109:\n    /* \"#utility.yul\":5627:5632   */\n  dup2\n    /* \"#utility.yul\":5624:5659   */\n  eq\n    /* \"#utility.yul\":5614:5677   */\n  tag_110\n  jumpi\n    /* \"#utility.yul\":5673:5674   */\n  0x00\n    /* \"#utility.yul\":5670:5671   */\n  dup1\n    /* \"#utility.yul\":5663:5675   */\n  revert\n    /* \"#utility.yul\":5614:5677   */\ntag_110:\n    /* \"#utility.yul\":5561:5683   */\n  pop\n  jump\t// out\n    /* \"#utility.yul\":5689:5832   */\ntag_38:\n    /* \"#utility.yul\":5746:5751   */\n  0x00\n    /* \"#utility.yul\":5777:5783   */\n  dup2\n    /* \"#utility.yul\":5771:5784   */\n  mload\n    /* \"#utility.yul\":5762:5784   */\n  swap1\n  pop\n    /* \"#utility.yul\":5793:5826   */\n  tag_112\n    /* \"#utility.yul\":5820:5825   */\n  dup2\n    /* \"#utility.yul\":5793:5826   */\n  tag_37\n  jump\t// in\ntag_112:\n    /* \"#utility.yul\":5689:5832   */\n  swap3\n  swap2\n  pop\n  pop\n  jump\t// out\n    /* \"#utility.yul\":5838:6189   */\ntag_6:\n    /* \"#utility.yul\":5908:5914   */\n  0x00\n    /* \"#utility.yul\":5957:5959   */\n  0x20\n    /* \"#utility.yul\":5945:5954   */\n  dup3\n    /* \"#utility.yul\":5936:5943   */\n  dup5\n    /* \"#utility.yul\":5932:5955   */\n  sub\n    /* \"#utility.yul\":5928:5960   */\n  slt\n    /* \"#utility.yul\":5925:6044   */\n  iszero\n  tag_114\n  jumpi\n    /* \"#utility.yul\":5963:6042   */\n  tag_115\n  tag_35\n  jump\t// in\ntag_115:\n    /* \"#utility.yul\":5925:6044   */\ntag_114:\n    /* \"#utility.yul\":6083:6084   */\n  0x00\n    /* \"#utility.yul\":6108:6172   */\n  tag_116\n    /* \"#utility.yul\":6164:6171   */\n  dup5\n    /* \"#utility.yul\":6155:6161   */\n  dup3\n    /* \"#utility.yul\":6144:6153   */\n  dup6\n    /* \"#utility.yul\":6140:6162   */\n  add\n    /* \"#utility.yul\":6108:6172   */\n  tag_38\n  jump\t// in\ntag_116:\n    /* \"#utility.yul\":6098:6172   */\n  swap2\n  pop\n    /* \"#utility.yul\":6054:6182   */\n  pop\n    /* \"#utility.yul\":5838:6189   */\n  swap3\n  swap2\n  pop\n  pop\n  jump\t// out\n    /* \"#utility.yul\":6195:6375   */\ntag_39:\n    /* \"#utility.yul\":6243:6320   */\n  0x4e487b7100000000000000000000000000000000000000000000000000000000\n    /* \"#utility.yul\":6240:6241   */\n  0x00\n    /* \"#utility.yul\":6233:6321   */\n  mstore\n    /* \"#utility.yul\":6340:6344   */\n  0x11\n    /* \"#utility.yul\":6337:6338   */\n  0x04\n    /* \"#utility.yul\":6330:6345   */\n  mstore\n    /* \"#utility.yul\":6364:6368   */\n  0x24\n    /* \"#utility.yul\":6361:6362   */\n  0x00\n    /* \"#utility.yul\":6354:6369   */\n  revert\n    /* \"#utility.yul\":6381:6483   */\ntag_40:\n    /* \"#utility.yul\":6423:6431   */\n  0x00\n    /* \"#utility.yul\":6470:6475   */\n  dup2\n    /* \"#utility.yul\":6467:6468   */\n  0x01\n    /* \"#utility.yul\":6463:6476   */\n  shr\n    /* \"#utility.yul\":6442:6476   */\n  swap1\n  pop\n    /* \"#utility.yul\":6381:6483   */\n  swap2\n  swap1\n  pop\n  jump\t// out\n    /* \"#utility.yul\":6489:7337   */\ntag_41:\n    /* \"#utility.yul\":6550:6555   */\n  0x00\n    /* \"#utility.yul\":6557:6561   */\n  dup1\n    /* \"#utility.yul\":6581:6587   */\n  dup3\n    /* \"#utility.yul\":6572:6587   */\n  swap2\n  pop\n    /* \"#utility.yul\":6605:6610   */\n  dup4\n    /* \"#utility.yul\":6596:6610   */\n  swap1\n  pop\n    /* \"#utility.yul\":6619:7331   */\ntag_120:\n    /* \"#utility.yul\":6640:6641   */\n  0x01\n    /* \"#utility.yul\":6630:6638   */\n  dup6\n    /* \"#utility.yul\":6627:6642   */\n  gt\n    /* \"#utility.yul\":6619:7331   */\n  iszero\n  tag_122\n  jumpi\n    /* \"#utility.yul\":6735:6739   */\n  dup1\n    /* \"#utility.yul\":6730:6733   */\n  dup7\n    /* \"#utility.yul\":6726:6740   */\n  div\n    /* \"#utility.yul\":6720:6724   */\n  dup2\n    /* \"#utility.yul\":6717:6741   */\n  gt\n    /* \"#utility.yul\":6714:6764   */\n  iszero\n  tag_123\n  jumpi\n    /* \"#utility.yul\":6744:6762   */\n  tag_124\n  tag_39\n  jump\t// in\ntag_124:\n    /* \"#utility.yul\":6714:6764   */\ntag_123:\n    /* \"#utility.yul\":6794:6795   */\n  0x01\n    /* \"#utility.yul\":6784:6792   */\n  dup6\n    /* \"#utility.yul\":6780:6796   */\n  and\n    /* \"#utility.yul\":6777:7228   */\n  iszero\n  tag_125\n  jumpi\n    /* \"#utility.yul\":7209:7213   */\n  dup1\n    /* \"#utility.yul\":7202:7207   */\n  dup3\n    /* \"#utility.yul\":7198:7214   */\n  mul\n    /* \"#utility.yul\":7189:7214   */\n  swap2\n  pop\n    /* \"#utility.yul\":6777:7228   */\ntag_125:\n    /* \"#utility.yul\":7259:7263   */\n  dup1\n    /* \"#utility.yul\":7253:7257   */\n  dup2\n    /* \"#utility.yul\":7249:7264   */\n  mul\n    /* \"#utility.yul\":7241:7264   */\n  swap1\n  pop\n    /* \"#utility.yul\":7289:7321   */\n  tag_126\n    /* \"#utility.yul\":7312:7320   */\n  dup6\n    /* \"#utility.yul\":7289:7321   */\n  tag_40\n  jump\t// in\ntag_126:\n    /* \"#utility.yul\":7277:7321   */\n  swap5\n  pop\n    /* \"#utility.yul\":6619:7331   */\n  jump(tag_120)\ntag_122:\n    /* \"#utility.yul\":6489:7337   */\n  swap5\n  pop\n  swap5\n  swap3\n  pop\n  pop\n  pop\n  jump\t// out\n    /* \"#utility.yul\":7343:8416   */\ntag_42:\n    /* \"#utility.yul\":7397:7402   */\n  0x00\n    /* \"#utility.yul\":7588:7596   */\n  dup3\n    /* \"#utility.yul\":7578:7618   */\n  tag_128\n  jumpi\n    /* \"#utility.yul\":7609:7610   */\n  0x01\n    /* \"#utility.yul\":7600:7610   */\n  swap1\n  pop\n    /* \"#utility.yul\":7611:7616   */\n  jump(tag_127)\n    /* \"#utility.yul\":7578:7618   */\ntag_128:\n    /* \"#utility.yul\":7637:7641   */\n  dup2\n    /* \"#utility.yul\":7627:7663   */\n  tag_129\n  jumpi\n    /* \"#utility.yul\":7654:7655   */\n  0x00\n    /* \"#utility.yul\":7645:7655   */\n  swap1\n  pop\n    /* \"#utility.yul\":7656:7661   */\n  jump(tag_127)\n    /* \"#utility.yul\":7627:7663   */\ntag_129:\n    /* \"#utility.yul\":7723:7727   */\n  dup2\n    /* \"#utility.yul\":7771:7772   */\n  0x01\n    /* \"#utility.yul\":7766:7793   */\n  dup2\n  eq\n  tag_131\n  jumpi\n    /* \"#utility.yul\":7807:7808   */\n  0x02\n    /* \"#utility.yul\":7802:7993   */\n  dup2\n  eq\n  tag_132\n  jumpi\n    /* \"#utility.yul\":7716:7993   */\n  jump(tag_130)\n    /* \"#utility.yul\":7766:7793   */\ntag_131:\n    /* \"#utility.yul\":7784:7785   */\n  0x01\n    /* \"#utility.yul\":7775:7785   */\n  swap2\n  pop\n    /* \"#utility.yul\":7786:7791   */\n  pop\n  jump(tag_127)\n    /* \"#utility.yul\":7802:7993   */\ntag_132:\n    /* \"#utility.yul\":7847:7850   */\n  0xff\n    /* \"#utility.yul\":7837:7845   */\n  dup5\n    /* \"#utility.yul\":7834:7851   */\n  gt\n    /* \"#utility.yul\":7831:7874   */\n  iszero\n  tag_133\n  jumpi\n    /* \"#utility.yul\":7854:7872   */\n  tag_134\n  tag_39\n  jump\t// in\ntag_134:\n    /* \"#utility.yul\":7831:7874   */\ntag_133:\n    /* \"#utility.yul\":7903:7911   */\n  dup4\n    /* \"#utility.yul\":7900:7901   */\n  0x02\n    /* \"#utility.yul\":7896:7912   */\n  exp\n    /* \"#utility.yul\":7887:7912   */\n  swap2\n  pop\n    /* \"#utility.yul\":7938:7941   */\n  dup5\n    /* \"#utility.yul\":7931:7936   */\n  dup3\n    /* \"#utility.yul\":7928:7942   */\n  gt\n    /* \"#utility.yul\":7925:7965   */\n  iszero\n  tag_135\n  jumpi\n    /* \"#utility.yul\":7945:7963   */\n  tag_136\n  tag_39\n  jump\t// in\ntag_136:\n    /* \"#utility.yul\":7925:7965   */\ntag_135:\n    /* \"#utility.yul\":7978:7983   */\n  pop\n  jump(tag_127)\n    /* \"#utility.yul\":7716:7993   */\ntag_130:\n  pop\n    /* \"#utility.yul\":8102:8104   */\n  0x20\n    /* \"#utility.yul\":8092:8100   */\n  dup4\n    /* \"#utility.yul\":8089:8105   */\n  lt\n    /* \"#utility.yul\":8083:8086   */\n  0x0133\n    /* \"#utility.yul\":8077:8081   */\n  dup4\n    /* \"#utility.yul\":8074:8087   */\n  lt\n    /* \"#utility.yul\":8070:8106   */\n  and\n    /* \"#utility.yul\":8052:8054   */\n  0x4e\n    /* \"#utility.yul\":8042:8050   */\n  dup5\n    /* \"#utility.yul\":8039:8055   */\n  lt\n    /* \"#utility.yul\":8034:8036   */\n  0x0b\n    /* \"#utility.yul\":8028:8032   */\n  dup5\n    /* \"#utility.yul\":8025:8037   */\n  lt\n    /* \"#utility.yul\":8021:8056   */\n  and\n    /* \"#utility.yul\":8005:8116   */\n  or\n    /* \"#utility.yul\":8002:8248   */\n  iszero\n  tag_137\n  jumpi\n    /* \"#utility.yul\":8158:8166   */\n  dup3\n    /* \"#utility.yul\":8152:8156   */\n  dup3\n    /* \"#utility.yul\":8148:8167   */\n  exp\n    /* \"#utility.yul\":8139:8167   */\n  swap1\n  pop\n    /* \"#utility.yul\":8193:8196   */\n  dup4\n    /* \"#utility.yul\":8186:8191   */\n  dup2\n    /* \"#utility.yul\":8183:8197   */\n  gt\n    /* \"#utility.yul\":8180:8220   */\n  iszero\n  tag_138\n  jumpi\n    /* \"#utility.yul\":8200:8218   */\n  tag_139\n  tag_39\n  jump\t// in\ntag_139:\n    /* \"#utility.yul\":8180:8220   */\ntag_138:\n    /* \"#utility.yul\":8233:8238   */\n  jump(tag_127)\n    /* \"#utility.yul\":8002:8248   */\ntag_137:\n    /* \"#utility.yul\":8273:8315   */\n  tag_140\n    /* \"#utility.yul\":8311:8314   */\n  dup5\n    /* \"#utility.yul\":8301:8309   */\n  dup5\n    /* \"#utility.yul\":8295:8299   */\n  dup5\n    /* \"#utility.yul\":8292:8293   */\n  0x01\n    /* \"#utility.yul\":8273:8315   */\n  tag_41\n  jump\t// in\ntag_140:\n    /* \"#utility.yul\":8258:8315   */\n  swap3\n  pop\n  swap1\n  pop\n    /* \"#utility.yul\":8347:8351   */\n  dup2\n    /* \"#utility.yul\":8342:8345   */\n  dup5\n    /* \"#utility.yul\":8338:8352   */\n  div\n    /* \"#utility.yul\":8331:8336   */\n  dup2\n    /* \"#utility.yul\":8328:8353   */\n  gt\n    /* \"#utility.yul\":8325:8376   */\n  iszero\n  tag_141\n  jumpi\n    /* \"#utility.yul\":8356:8374   */\n  tag_142\n  tag_39\n  jump\t// in\ntag_142:\n    /* \"#utility.yul\":8325:8376   */\ntag_141:\n    /* \"#utility.yul\":8405:8409   */\n  dup2\n    /* \"#utility.yul\":8398:8403   */\n  dup2\n    /* \"#utility.yul\":8394:8410   */\n  mul\n    /* \"#utility.yul\":8385:8410   */\n  swap1\n  pop\n    /* \"#utility.yul\":7343:8416   */\ntag_127:\n  swap4\n  swap3\n  pop\n  pop\n  pop\n  jump\t// out\n    /* \"#utility.yul\":8422:8707   */\ntag_10:\n    /* \"#utility.yul\":8482:8487   */\n  0x00\n    /* \"#utility.yul\":8506:8529   */\n  tag_144\n    /* \"#utility.yul\":8524:8528   */\n  dup3\n    /* \"#utility.yul\":8506:8529   */\n  tag_22\n  jump\t// in\ntag_144:\n    /* \"#utility.yul\":8498:8529   */\n  swap2\n  pop\n    /* \"#utility.yul\":8550:8577   */\n  tag_145\n    /* \"#utility.yul\":8568:8576   */\n  dup4\n    /* \"#utility.yul\":8550:8577   */\n  tag_22\n  jump\t// in\ntag_145:\n    /* \"#utility.yul\":8538:8577   */\n  swap3\n  pop\n    /* \"#utility.yul\":8596:8700   */\n  tag_146\n    /* \"#utility.yul\":8633:8699   */\n  0xffffffffffffffffffffffffffffffffffffffffffffffffffffffffffffffff\n    /* \"#utility.yul\":8623:8631   */\n  dup5\n    /* \"#utility.yul\":8617:8621   */\n  dup5\n    /* \"#utility.yul\":8596:8700   */\n  tag_42\n  jump\t// in\ntag_146:\n    /* \"#utility.yul\":8587:8700   */\n  swap1\n  pop\n    /* \"#utility.yul\":8422:8707   */\n  swap3\n  swap2\n  pop\n  pop\n  jump\t// out\n    /* \"#utility.yul\":8713:9123   */\ntag_12:\n    /* \"#utility.yul\":8753:8760   */\n  0x00\n    /* \"#utility.yul\":8776:8796   */\n  tag_148\n    /* \"#utility.yul\":8794:8795   */\n  dup3\n    /* \"#utility.yul\":8776:8796   */\n  tag_22\n  jump\t// in\ntag_148:\n    /* \"#utility.yul\":8771:8796   */\n  swap2\n  pop\n    /* \"#utility.yul\":8810:8830   */\n  tag_149\n    /* \"#utility.yul\":8828:8829   */\n  dup4\n    /* \"#utility.yul\":8810:8830   */\n  tag_22\n  jump\t// in\ntag_149:\n    /* \"#utility.yul\":8805:8830   */\n  swap3\n  pop\n    /* \"#utility.yul\":8865:8866   */\n  dup3\n    /* \"#utility.yul\":8862:8863   */\n  dup3\n    /* \"#utility.yul\":8858:8867   */\n  mul\n    /* \"#utility.yul\":8887:8917   */\n  tag_150\n    /* \"#utility.yul\":8905:8916   */\n  dup2\n    /* \"#utility.yul\":8887:8917   */\n  tag_22\n  jump\t// in\ntag_150:\n    /* \"#utility.yul\":8876:8917   */\n  swap2\n  pop\n    /* \"#utility.yul\":9066:9067   */\n  dup3\n    /* \"#utility.yul\":9057:9064   */\n  dup3\n    /* \"#utility.yul\":9053:9068   */\n  div\n    /* \"#utility.yul\":9050:9051   */\n  dup5\n    /* \"#utility.yul\":9047:9069   */\n  eq\n    /* \"#utility.yul\":9027:9028   */\n  dup4\n    /* \"#utility.yul\":9020:9029   */\n  iszero\n    /* \"#utility.yul\":9000:9083   */\n  or\n    /* \"#utility.yul\":8977:9116   */\n  tag_151\n  jumpi\n    /* \"#utility.yul\":9096:9114   */\n  tag_152\n  tag_39\n  jump\t// in\ntag_152:\n    /* \"#utility.yul\":8977:9116   */\ntag_151:\n    /* \"#utility.yul\":8761:9123   */\n  pop\n    /* \"#utility.yul\":8713:9123   */\n  swap3\n  swap2\n  pop\n  pop\n  jump\t// out\n    /* \"contracts/EricsToken.sol\":60:1827  contract EricsToken {... */\ntag_13:\n  dataSize(sub_0)\n  dup1\n  dataOffset(sub_0)\n  0x00\n  codecopy\n  0x00\n  return\nstop\n\nsub_0: assembly {\n        /* \"contracts/EricsToken.sol\":60:1827  contract EricsToken {... */\n      mstore(0x40, 0x80)\n      callvalue\n      dup1\n      iszero\n      tag_1\n      jumpi\n      0x00\n      dup1\n      revert\n    tag_1:\n      pop\n      jumpi(tag_2, lt(calldatasize, 0x04))\n      shr(0xe0, calldataload(0x00))\n      dup1\n      0x70a08231\n      gt\n      tag_12\n      jumpi\n      dup1\n      0x70a08231\n      eq\n      tag_7\n      jumpi\n      dup1\n      0x8da5cb5b\n      eq\n      tag_8\n      jumpi\n      dup1\n      0x95d89b41\n      eq\n      tag_9\n      jumpi\n      dup1\n      0xa0712d68\n      eq\n      tag_10\n      jumpi\n      dup1\n      0xa9059cbb\n      eq\n      tag_11\n      jumpi\n      jump(tag_2)\n    tag_12:\n      dup1\n      0x06fdde03\n      eq\n      tag_3\n      jumpi\n      dup1\n      0x18160ddd\n      eq\n      tag_4\n      jumpi\n      dup1\n      0x313ce567\n      eq\n      tag_5\n      jumpi\n      dup1\n      0x42966c68\n      eq\n      tag_6\n      jumpi\n    tag_2:\n      0x00\n      dup1\n      revert\n        /* \"contracts/EricsToken.sol\":87:120  string public name = \"EricsToken\" */\n    tag_3:\n      tag_13\n      tag_14\n      jump\t// in\n    tag_13:\n      mload(0x40)\n      tag_15\n      swap2\n      swap1\n      tag_16\n      jump\t// in\n    tag_15:\n      mload(0x40)\n      dup1\n      swap2\n      sub\n      swap1\n      return\n        /* \"contracts/EricsToken.sol\":197:223  uint256 public totalSupply */\n    tag_4:\n      tag_17\n      tag_18\n      jump\t// in\n    tag_17:\n      mload(0x40)\n      tag_19\n      swap2\n      swap1\n      tag_20\n      jump\t// in\n    tag_19:\n      mload(0x40)\n      dup1\n      swap2\n      sub\n      swap1\n      return\n        /* \"contracts/EricsToken.sol\":162:190  uint256 public decimals = 18 */\n    tag_5:\n      tag_21\n      tag_22\n      jump\t// in\n    tag_21:\n      mload(0x40)\n      tag_23\n      swap2\n      swap1\n      tag_20\n      jump\t// in\n    tag_23:\n      mload(0x40)\n      dup1\n      swap2\n      sub\n      swap1\n      return\n        /* \"contracts/EricsToken.sol\":1462:1824  function burn(uint256 _value) public onlyOwner returns (bool success) {... */\n    tag_6:\n      tag_24\n      0x04\n      dup1\n      calldatasize\n      sub\n      dup2\n      add\n      swap1\n      tag_25\n      swap2\n      swap1\n      tag_26\n      jump\t// in\n    tag_25:\n      tag_27\n      jump\t// in\n    tag_24:\n      mload(0x40)\n      tag_28\n      swap2\n      swap1\n      tag_29\n      jump\t// in\n    tag_28:\n      mload(0x40)\n      dup1\n      swap2\n      sub\n      swap1\n      return\n        /* \"contracts/EricsToken.sol\":259:303  mapping(address => uint256) public balanceOf */\n    tag_7:\n      tag_30\n      0x04\n      dup1\n      calldatasize\n      sub\n      dup2\n      add\n      swap1\n      tag_31\n      swap2\n      swap1\n      tag_32\n      jump\t// in\n    tag_31:\n      tag_33\n      jump\t// in\n    tag_30:\n      mload(0x40)\n      tag_34\n      swap2\n      swap1\n      tag_20\n      jump\t// in\n    tag_34:\n      mload(0x40)\n      dup1\n      swap2\n      sub\n      swap1\n      return\n        /* \"contracts/EricsToken.sol\":232:252  address public owner */\n    tag_8:\n      tag_35\n      tag_36\n      jump\t// in\n    tag_35:\n      mload(0x40)\n      tag_37\n      swap2\n      swap1\n      tag_38\n      jump\t// in\n    tag_37:\n      mload(0x40)\n      dup1\n      swap2\n      sub\n      swap1\n      return\n        /* \"contracts/EricsToken.sol\":127:155  string public symbol = \"ETK\" */\n    tag_9:\n      tag_39\n      tag_40\n      jump\t// in\n    tag_39:\n      mload(0x40)\n      tag_41\n      swap2\n      swap1\n      tag_16\n      jump\t// in\n    tag_41:\n      mload(0x40)\n      dup1\n      swap2\n      sub\n      swap1\n      return\n        /* \"contracts/EricsToken.sol\":1177:1454  function mint(uint256 _value) public onlyOwner returns (bool success) {... */\n    tag_10:\n      tag_42\n      0x04\n      dup1\n      calldatasize\n      sub\n      dup2\n      add\n      swap1\n      tag_43\n      swap2\n      swap1\n      tag_26\n      jump\t// in\n    tag_43:\n      tag_44\n      jump\t// in\n    tag_42:\n      mload(0x40)\n      tag_45\n      swap2\n      swap1\n      tag_29\n      jump\t// in\n    tag_45:\n      mload(0x40)\n      dup1\n      swap2\n      sub\n      swap1\n      return\n        /* \"contracts/EricsToken.sol\":801:1169  function transfer(address _to, uint256 _value) public returns (bool success) {... */\n    tag_11:\n      tag_46\n      0x04\n      dup1\n      calldatasize\n      sub\n      dup2\n      add\n      swap1\n      tag_47\n      swap2\n      swap1\n      tag_48\n      jump\t// in\n    tag_47:\n      tag_49\n      jump\t// in\n    tag_46:\n      mload(0x40)\n      tag_50\n      swap2\n      swap1\n      tag_29\n      jump\t// in\n    tag_50:\n      mload(0x40)\n      dup1\n      swap2\n      sub\n      swap1\n      return\n        /* \"contracts/EricsToken.sol\":87:120  string public name = \"EricsToken\" */\n    tag_14:\n      0x00\n      dup1\n      sload\n      tag_51\n      swap1\n      tag_52\n      jump\t// in\n    tag_51:\n      dup1\n      0x1f\n      add\n      0x20\n      dup1\n      swap2\n      div\n      mul\n      0x20\n      add\n      mload(0x40)\n      swap1\n      dup2\n      add\n      0x40\n      mstore\n      dup1\n      swap3\n      swap2\n      swap1\n      dup2\n      dup2\n      mstore\n      0x20\n      add\n      dup3\n      dup1\n      sload\n      tag_53\n      swap1\n      tag_52\n      jump\t// in\n    tag_53:\n      dup1\n      iszero\n      tag_54\n      jumpi\n      dup1\n      0x1f\n      lt\n      tag_55\n      jumpi\n      0x0100\n      dup1\n      dup4\n      sload\n      div\n      mul\n      dup4\n      mstore\n      swap2\n      0x20\n      add\n      swap2\n      jump(tag_54)\n    tag_55:\n      dup3\n      add\n      swap2\n      swap1\n      0x00\n      mstore\n      keccak256(0x00, 0x20)\n      swap1\n    tag_56:\n      dup2\n      sload\n      dup2\n      mstore\n      swap1\n      0x01\n      add\n      swap1\n      0x20\n      add\n      dup1\n      dup4\n      gt\n      tag_56\n      jumpi\n      dup3\n      swap1\n      sub\n      0x1f\n      and\n      dup3\n      add\n      swap2\n    tag_54:\n      pop\n      pop\n      pop\n      pop\n      pop\n      dup2\n      jump\t// out\n        /* \"contracts/EricsToken.sol\":197:223  uint256 public totalSupply */\n    tag_18:\n      sload(0x03)\n      dup2\n      jump\t// out\n        /* \"contracts/EricsToken.sol\":162:190  uint256 public decimals = 18 */\n    tag_22:\n      sload(0x02)\n      dup2\n      jump\t// out\n        /* \"contracts/EricsToken.sol\":1462:1824  function burn(uint256 _value) public onlyOwner returns (bool success) {... */\n    tag_27:\n        /* \"contracts/EricsToken.sol\":1518:1530  bool success */\n      0x00\n        /* \"contracts/EricsToken.sol\":552:557  owner */\n      0x04\n      0x00\n      swap1\n      sload\n      swap1\n      0x0100\n      exp\n      swap1\n      div\n      0xffffffffffffffffffffffffffffffffffffffff\n      and\n        /* \"contracts/EricsToken.sol\":538:557  msg.sender == owner */\n      0xffffffffffffffffffffffffffffffffffffffff\n      and\n        /* \"contracts/EricsToken.sol\":538:548  msg.sender */\n      caller\n        /* \"contracts/EricsToken.sol\":538:557  msg.sender == owner */\n      0xffffffffffffffffffffffffffffffffffffffff\n      and\n      eq\n        /* \"contracts/EricsToken.sol\":530:595  require(msg.sender == owner, \"Only owner can call this function\") */\n      tag_58\n      jumpi\n      mload(0x40)\n      0x08c379a000000000000000000000000000000000000000000000000000000000\n      dup2\n      mstore\n      0x04\n      add\n      tag_59\n      swap1\n      tag_60\n      jump\t// in\n    tag_59:\n      mload(0x40)\n      dup1\n      swap2\n      sub\n      swap1\n      revert\n    tag_58:\n        /* \"contracts/EricsToken.sol\":1543:1562  uint256 valueToBurn */\n      0x00\n        /* \"contracts/EricsToken.sol\":1580:1588  decimals */\n      sload(0x02)\n        /* \"contracts/EricsToken.sol\":1574:1576  10 */\n      0x0a\n        /* \"contracts/EricsToken.sol\":1574:1588  10 ** decimals */\n      tag_62\n      swap2\n      swap1\n      tag_63\n      jump\t// in\n    tag_62:\n        /* \"contracts/EricsToken.sol\":1565:1571  _value */\n      dup4\n        /* \"contracts/EricsToken.sol\":1565:1588  _value * 10 ** decimals */\n      tag_64\n      swap2\n      swap1\n      tag_65\n      jump\t// in\n    tag_64:\n        /* \"contracts/EricsToken.sol\":1543:1588  uint256 valueToBurn = _value * 10 ** decimals */\n      swap1\n      pop\n        /* \"contracts/EricsToken.sol\":1627:1638  valueToBurn */\n      dup1\n        /* \"contracts/EricsToken.sol\":1607:1616  balanceOf */\n      0x05\n        /* \"contracts/EricsToken.sol\":1607:1623  balanceOf[owner] */\n      0x00\n        /* \"contracts/EricsToken.sol\":1617:1622  owner */\n      0x04\n      0x00\n      swap1\n      sload\n      swap1\n      0x0100\n      exp\n      swap1\n      div\n      0xffffffffffffffffffffffffffffffffffffffff\n      and\n        /* \"contracts/EricsToken.sol\":1607:1623  balanceOf[owner] */\n      0xffffffffffffffffffffffffffffffffffffffff\n      and\n      0xffffffffffffffffffffffffffffffffffffffff\n      and\n      dup2\n      mstore\n      0x20\n      add\n      swap1\n      dup2\n      mstore\n      0x20\n      add\n      0x00\n      keccak256\n      sload\n        /* \"contracts/EricsToken.sol\":1607:1638  balanceOf[owner] >= valueToBurn */\n      lt\n      iszero\n        /* \"contracts/EricsToken.sol\":1599:1671  require(balanceOf[owner] >= valueToBurn, \"Insufficient balance to burn\") */\n      tag_66\n      jumpi\n      mload(0x40)\n      0x08c379a000000000000000000000000000000000000000000000000000000000\n      dup2\n      mstore\n      0x04\n      add\n      tag_67\n      swap1\n      tag_68\n      jump\t// in\n    tag_67:\n      mload(0x40)\n      dup1\n      swap2\n      sub\n      swap1\n      revert\n    tag_66:\n        /* \"contracts/EricsToken.sol\":1699:1710  valueToBurn */\n      dup1\n        /* \"contracts/EricsToken.sol\":1684:1695  totalSupply */\n      0x03\n      0x00\n        /* \"contracts/EricsToken.sol\":1684:1710  totalSupply -= valueToBurn */\n      dup3\n      dup3\n      sload\n      tag_69\n      swap2\n      swap1\n      tag_70\n      jump\t// in\n    tag_69:\n      swap3\n      pop\n      pop\n      dup2\n      swap1\n      sstore\n      pop\n        /* \"contracts/EricsToken.sol\":1741:1752  valueToBurn */\n      dup1\n        /* \"contracts/EricsToken.sol\":1721:1730  balanceOf */\n      0x05\n        /* \"contracts/EricsToken.sol\":1721:1737  balanceOf[owner] */\n      0x00\n        /* \"contracts/EricsToken.sol\":1731:1736  owner */\n      0x04\n      0x00\n      swap1\n      sload\n      swap1\n      0x0100\n      exp\n      swap1\n      div\n      0xffffffffffffffffffffffffffffffffffffffff\n      and\n        /* \"contracts/EricsToken.sol\":1721:1737  balanceOf[owner] */\n      0xffffffffffffffffffffffffffffffffffffffff\n      and\n      0xffffffffffffffffffffffffffffffffffffffff\n      and\n      dup2\n      mstore\n      0x20\n      add\n      swap1\n      dup2\n      mstore\n      0x20\n      add\n      0x00\n      keccak256\n      0x00\n        /* \"contracts/EricsToken.sol\":1721:1752  balanceOf[owner] -= valueToBurn */\n      dup3\n      dup3\n      sload\n      tag_71\n      swap2\n      swap1\n      tag_70\n      jump\t// in\n    tag_71:\n      swap3\n      pop\n      pop\n      dup2\n      swap1\n      sstore\n      pop\n        /* \"contracts/EricsToken.sol\":1775:1780  owner */\n      0x04\n      0x00\n      swap1\n      sload\n      swap1\n      0x0100\n      exp\n      swap1\n      div\n      0xffffffffffffffffffffffffffffffffffffffff\n      and\n        /* \"contracts/EricsToken.sol\":1770:1794  Burn(owner, valueToBurn) */\n      0xffffffffffffffffffffffffffffffffffffffff\n      and\n      0xcc16f5dbb4873280815c1ee09dbd06736cffcc184412cf7a71a0fdb75d397ca5\n        /* \"contracts/EricsToken.sol\":1782:1793  valueToBurn */\n      dup3\n        /* \"contracts/EricsToken.sol\":1770:1794  Burn(owner, valueToBurn) */\n      mload(0x40)\n      tag_72\n      swap2\n      swap1\n      tag_20\n      jump\t// in\n    tag_72:\n      mload(0x40)\n      dup1\n      swap2\n      sub\n      swap1\n      log2\n        /* \"contracts/EricsToken.sol\":1812:1816  true */\n      0x01\n        /* \"contracts/EricsToken.sol\":1805:1816  return true */\n      swap2\n      pop\n      pop\n        /* \"contracts/EricsToken.sol\":1462:1824  function burn(uint256 _value) public onlyOwner returns (bool success) {... */\n      swap2\n      swap1\n      pop\n      jump\t// out\n        /* \"contracts/EricsToken.sol\":259:303  mapping(address => uint256) public balanceOf */\n    tag_33:\n      mstore(0x20, 0x05)\n      dup1\n      0x00\n      mstore\n      keccak256(0x00, 0x40)\n      0x00\n      swap2\n      pop\n      swap1\n      pop\n      sload\n      dup2\n      jump\t// out\n        /* \"contracts/EricsToken.sol\":232:252  address public owner */\n    tag_36:\n      0x04\n      0x00\n      swap1\n      sload\n      swap1\n      0x0100\n      exp\n      swap1\n      div\n      0xffffffffffffffffffffffffffffffffffffffff\n      and\n      dup2\n      jump\t// out\n        /* \"contracts/EricsToken.sol\":127:155  string public symbol = \"ETK\" */\n    tag_40:\n      0x01\n      dup1\n      sload\n      tag_73\n      swap1\n      tag_52\n      jump\t// in\n    tag_73:\n      dup1\n      0x1f\n      add\n      0x20\n      dup1\n      swap2\n      div\n      mul\n      0x20\n      add\n      mload(0x40)\n      swap1\n      dup2\n      add\n      0x40\n      mstore\n      dup1\n      swap3\n      swap2\n      swap1\n      dup2\n      dup2\n      mstore\n      0x20\n      add\n      dup3\n      dup1\n      sload\n      tag_74\n      swap1\n      tag_52\n      jump\t// in\n    tag_74:\n      dup1\n      iszero\n      tag_75\n      jumpi\n      dup1\n      0x1f\n      lt\n      tag_76\n      jumpi\n      0x0100\n      dup1\n      dup4\n      sload\n      div\n      mul\n      dup4\n      mstore\n      swap2\n      0x20\n      add\n      swap2\n      jump(tag_75)\n    tag_76:\n      dup3\n      add\n      swap2\n      swap1\n      0x00\n      mstore\n      keccak256(0x00, 0x20)\n      swap1\n    tag_77:\n      dup2\n      sload\n      dup2\n      mstore\n      swap1\n      0x01\n      add\n      swap1\n      0x20\n      add\n      dup1\n      dup4\n      gt\n      tag_77\n      jumpi\n      dup3\n      swap1\n      sub\n      0x1f\n      and\n      dup3\n      add\n      swap2\n    tag_75:\n      pop\n      pop\n      pop\n      pop\n      pop\n      dup2\n      jump\t// out\n        /* \"contracts/EricsToken.sol\":1177:1454  function mint(uint256 _value) public onlyOwner returns (bool success) {... */\n    tag_44:\n        /* \"contracts/EricsToken.sol\":1233:1245  bool success */\n      0x00\n        /* \"contracts/EricsToken.sol\":552:557  owner */\n      0x04\n      0x00\n      swap1\n      sload\n      swap1\n      0x0100\n      exp\n      swap1\n      div\n      0xffffffffffffffffffffffffffffffffffffffff\n      and\n        /* \"contracts/EricsToken.sol\":538:557  msg.sender == owner */\n      0xffffffffffffffffffffffffffffffffffffffff\n      and\n        /* \"contracts/EricsToken.sol\":538:548  msg.sender */\n      caller\n        /* \"contracts/EricsToken.sol\":538:557  msg.sender == owner */\n      0xffffffffffffffffffffffffffffffffffffffff\n      and\n      eq\n        /* \"contracts/EricsToken.sol\":530:595  require(msg.sender == owner, \"Only owner can call this function\") */\n      tag_79\n      jumpi\n      mload(0x40)\n      0x08c379a000000000000000000000000000000000000000000000000000000000\n      dup2\n      mstore\n      0x04\n      add\n      tag_80\n      swap1\n      tag_60\n      jump\t// in\n    tag_80:\n      mload(0x40)\n      dup1\n      swap2\n      sub\n      swap1\n      revert\n    tag_79:\n        /* \"contracts/EricsToken.sol\":1258:1277  uint256 valueToMint */\n      0x00\n        /* \"contracts/EricsToken.sol\":1295:1303  decimals */\n      sload(0x02)\n        /* \"contracts/EricsToken.sol\":1289:1291  10 */\n      0x0a\n        /* \"contracts/EricsToken.sol\":1289:1303  10 ** decimals */\n      tag_82\n      swap2\n      swap1\n      tag_63\n      jump\t// in\n    tag_82:\n        /* \"contracts/EricsToken.sol\":1280:1286  _value */\n      dup4\n        /* \"contracts/EricsToken.sol\":1280:1303  _value * 10 ** decimals */\n      tag_83\n      swap2\n      swap1\n      tag_65\n      jump\t// in\n    tag_83:\n        /* \"contracts/EricsToken.sol\":1258:1303  uint256 valueToMint = _value * 10 ** decimals */\n      swap1\n      pop\n        /* \"contracts/EricsToken.sol\":1329:1340  valueToMint */\n      dup1\n        /* \"contracts/EricsToken.sol\":1314:1325  totalSupply */\n      0x03\n      0x00\n        /* \"contracts/EricsToken.sol\":1314:1340  totalSupply += valueToMint */\n      dup3\n      dup3\n      sload\n      tag_84\n      swap2\n      swap1\n      tag_85\n      jump\t// in\n    tag_84:\n      swap3\n      pop\n      pop\n      dup2\n      swap1\n      sstore\n      pop\n        /* \"contracts/EricsToken.sol\":1371:1382  valueToMint */\n      dup1\n        /* \"contracts/EricsToken.sol\":1351:1360  balanceOf */\n      0x05\n        /* \"contracts/EricsToken.sol\":1351:1367  balanceOf[owner] */\n      0x00\n        /* \"contracts/EricsToken.sol\":1361:1366  owner */\n      0x04\n      0x00\n      swap1\n      sload\n      swap1\n      0x0100\n      exp\n      swap1\n      div\n      0xffffffffffffffffffffffffffffffffffffffff\n      and\n        /* \"contracts/EricsToken.sol\":1351:1367  balanceOf[owner] */\n      0xffffffffffffffffffffffffffffffffffffffff\n      and\n      0xffffffffffffffffffffffffffffffffffffffff\n      and\n      dup2\n      mstore\n      0x20\n      add\n      swap1\n      dup2\n      mstore\n      0x20\n      add\n      0x00\n      keccak256\n      0x00\n        /* \"contracts/EricsToken.sol\":1351:1382  balanceOf[owner] += valueToMint */\n      dup3\n      dup3\n      sload\n      tag_86\n      swap2\n      swap1\n      tag_85\n      jump\t// in\n    tag_86:\n      swap3\n      pop\n      pop\n      dup2\n      swap1\n      sstore\n      pop\n        /* \"contracts/EricsToken.sol\":1405:1410  owner */\n      0x04\n      0x00\n      swap1\n      sload\n      swap1\n      0x0100\n      exp\n      swap1\n      div\n      0xffffffffffffffffffffffffffffffffffffffff\n      and\n        /* \"contracts/EricsToken.sol\":1400:1424  Mint(owner, valueToMint) */\n      0xffffffffffffffffffffffffffffffffffffffff\n      and\n      0x0f6798a560793a54c3bcfe86a93cde1e73087d944c0ea20544137d4121396885\n        /* \"contracts/EricsToken.sol\":1412:1423  valueToMint */\n      dup3\n        /* \"contracts/EricsToken.sol\":1400:1424  Mint(owner, valueToMint) */\n      mload(0x40)\n      tag_87\n      swap2\n      swap1\n      tag_20\n      jump\t// in\n    tag_87:\n      mload(0x40)\n      dup1\n      swap2\n      sub\n      swap1\n      log2\n        /* \"contracts/EricsToken.sol\":1442:1446  true */\n      0x01\n        /* \"contracts/EricsToken.sol\":1435:1446  return true */\n      swap2\n      pop\n      pop\n        /* \"contracts/EricsToken.sol\":1177:1454  function mint(uint256 _value) public onlyOwner returns (bool success) {... */\n      swap2\n      swap1\n      pop\n      jump\t// out\n        /* \"contracts/EricsToken.sol\":801:1169  function transfer(address _to, uint256 _value) public returns (bool success) {... */\n    tag_49:\n        /* \"contracts/EricsToken.sol\":864:876  bool success */\n      0x00\n        /* \"contracts/EricsToken.sol\":922:928  _value */\n      dup2\n        /* \"contracts/EricsToken.sol\":897:906  balanceOf */\n      0x05\n        /* \"contracts/EricsToken.sol\":897:918  balanceOf[msg.sender] */\n      0x00\n        /* \"contracts/EricsToken.sol\":907:917  msg.sender */\n      caller\n        /* \"contracts/EricsToken.sol\":897:918  balanceOf[msg.sender] */\n      0xffffffffffffffffffffffffffffffffffffffff\n      and\n      0xffffffffffffffffffffffffffffffffffffffff\n      and\n      dup2\n      mstore\n      0x20\n      add\n      swap1\n      dup2\n      mstore\n      0x20\n      add\n      0x00\n      keccak256\n      sload\n        /* \"contracts/EricsToken.sol\":897:928  balanceOf[msg.sender] >= _value */\n      lt\n      iszero\n        /* \"contracts/EricsToken.sol\":889:953  require(balanceOf[msg.sender] >= _value, \"Insufficient balance\") */\n      tag_89\n      jumpi\n      mload(0x40)\n      0x08c379a000000000000000000000000000000000000000000000000000000000\n      dup2\n      mstore\n      0x04\n      add\n      tag_90\n      swap1\n      tag_91\n      jump\t// in\n    tag_90:\n      mload(0x40)\n      dup1\n      swap2\n      sub\n      swap1\n      revert\n    tag_89:\n        /* \"contracts/EricsToken.sol\":987:988  0 */\n      0x00\n        /* \"contracts/EricsToken.sol\":972:989  _to != address(0) */\n      0xffffffffffffffffffffffffffffffffffffffff\n      and\n        /* \"contracts/EricsToken.sol\":972:975  _to */\n      dup4\n        /* \"contracts/EricsToken.sol\":972:989  _to != address(0) */\n      0xffffffffffffffffffffffffffffffffffffffff\n      and\n      sub\n        /* \"contracts/EricsToken.sol\":964:1009  require(_to != address(0), \"Invalid address\") */\n      tag_92\n      jumpi\n      mload(0x40)\n      0x08c379a000000000000000000000000000000000000000000000000000000000\n      dup2\n      mstore\n      0x04\n      add\n      tag_93\n      swap1\n      tag_94\n      jump\t// in\n    tag_93:\n      mload(0x40)\n      dup1\n      swap2\n      sub\n      swap1\n      revert\n    tag_92:\n        /* \"contracts/EricsToken.sol\":1047:1053  _value */\n      dup2\n        /* \"contracts/EricsToken.sol\":1022:1031  balanceOf */\n      0x05\n        /* \"contracts/EricsToken.sol\":1022:1043  balanceOf[msg.sender] */\n      0x00\n        /* \"contracts/EricsToken.sol\":1032:1042  msg.sender */\n      caller\n        /* \"contracts/EricsToken.sol\":1022:1043  balanceOf[msg.sender] */\n      0xffffffffffffffffffffffffffffffffffffffff\n      and\n      0xffffffffffffffffffffffffffffffffffffffff\n      and\n      dup2\n      mstore\n      0x20\n      add\n      swap1\n      dup2\n      mstore\n      0x20\n      add\n      0x00\n      keccak256\n      0x00\n        /* \"contracts/EricsToken.sol\":1022:1053  balanceOf[msg.sender] -= _value */\n      dup3\n      dup3\n      sload\n      tag_95\n      swap2\n      swap1\n      tag_70\n      jump\t// in\n    tag_95:\n      swap3\n      pop\n      pop\n      dup2\n      swap1\n      sstore\n      pop\n        /* \"contracts/EricsToken.sol\":1082:1088  _value */\n      dup2\n        /* \"contracts/EricsToken.sol\":1064:1073  balanceOf */\n      0x05\n        /* \"contracts/EricsToken.sol\":1064:1078  balanceOf[_to] */\n      0x00\n        /* \"contracts/EricsToken.sol\":1074:1077  _to */\n      dup6\n        /* \"contracts/EricsToken.sol\":1064:1078  balanceOf[_to] */\n      0xffffffffffffffffffffffffffffffffffffffff\n      and\n      0xffffffffffffffffffffffffffffffffffffffff\n      and\n      dup2\n      mstore\n      0x20\n      add\n      swap1\n      dup2\n      mstore\n      0x20\n      add\n      0x00\n      keccak256\n      0x00\n        /* \"contracts/EricsToken.sol\":1064:1088  balanceOf[_to] += _value */\n      dup3\n      dup3\n      sload\n      tag_96\n      swap2\n      swap1\n      tag_85\n      jump\t// in\n    tag_96:\n      swap3\n      pop\n      pop\n      dup2\n      swap1\n      sstore\n      pop\n        /* \"contracts/EricsToken.sol\":1127:1130  _to */\n      dup3\n        /* \"contracts/EricsToken.sol\":1106:1139  Transfer(msg.sender, _to, _value) */\n      0xffffffffffffffffffffffffffffffffffffffff\n      and\n        /* \"contracts/EricsToken.sol\":1115:1125  msg.sender */\n      caller\n        /* \"contracts/EricsToken.sol\":1106:1139  Transfer(msg.sender, _to, _value) */\n      0xffffffffffffffffffffffffffffffffffffffff\n      and\n      0xddf252ad1be2c89b69c2b068fc378daa952ba7f163c4a11628f55a4df523b3ef\n        /* \"contracts/EricsToken.sol\":1132:1138  _value */\n      dup5\n        /* \"contracts/EricsToken.sol\":1106:1139  Transfer(msg.sender, _to, _value) */\n      mload(0x40)\n      tag_97\n      swap2\n      swap1\n      tag_20\n      jump\t// in\n    tag_97:\n      mload(0x40)\n      dup1\n      swap2\n      sub\n      swap1\n      log3\n        /* \"contracts/EricsToken.sol\":1157:1161  true */\n      0x01\n        /* \"contracts/EricsToken.sol\":1150:1161  return true */\n      swap1\n      pop\n        /* \"contracts/EricsToken.sol\":801:1169  function transfer(address _to, uint256 _value) public returns (bool success) {... */\n      swap3\n      swap2\n      pop\n      pop\n      jump\t// out\n        /* \"#utility.yul\":7:106   */\n    tag_98:\n        /* \"#utility.yul\":59:65   */\n      0x00\n        /* \"#utility.yul\":93:98   */\n      dup2\n        /* \"#utility.yul\":87:99   */\n      mload\n        /* \"#utility.yul\":77:99   */\n      swap1\n      pop\n        /* \"#utility.yul\":7:106   */\n      swap2\n      swap1\n      pop\n      jump\t// out\n        /* \"#utility.yul\":112:281   */\n    tag_99:\n        /* \"#utility.yul\":196:207   */\n      0x00\n        /* \"#utility.yul\":230:236   */\n      dup3\n        /* \"#utility.yul\":225:228   */\n      dup3\n        /* \"#utility.yul\":218:237   */\n      mstore\n        /* \"#utility.yul\":270:274   */\n      0x20\n        /* \"#utility.yul\":265:268   */\n      dup3\n        /* \"#utility.yul\":261:275   */\n      add\n        /* \"#utility.yul\":246:275   */\n      swap1\n      pop\n        /* \"#utility.yul\":112:281   */\n      swap3\n      swap2\n      pop\n      pop\n      jump\t// out\n        /* \"#utility.yul\":287:535   */\n    tag_100:\n        /* \"#utility.yul\":369:370   */\n      0x00\n        /* \"#utility.yul\":379:492   */\n    tag_134:\n        /* \"#utility.yul\":393:399   */\n      dup4\n        /* \"#utility.yul\":390:391   */\n      dup2\n        /* \"#utility.yul\":387:400   */\n      lt\n        /* \"#utility.yul\":379:492   */\n      iszero\n      tag_136\n      jumpi\n        /* \"#utility.yul\":478:479   */\n      dup1\n        /* \"#utility.yul\":473:476   */\n      dup3\n        /* \"#utility.yul\":469:480   */\n      add\n        /* \"#utility.yul\":463:481   */\n      mload\n        /* \"#utility.yul\":459:460   */\n      dup2\n        /* \"#utility.yul\":454:457   */\n      dup5\n        /* \"#utility.yul\":450:461   */\n      add\n        /* \"#utility.yul\":443:482   */\n      mstore\n        /* \"#utility.yul\":415:417   */\n      0x20\n        /* \"#utility.yul\":412:413   */\n      dup2\n        /* \"#utility.yul\":408:418   */\n      add\n        /* \"#utility.yul\":403:418   */\n      swap1\n      pop\n        /* \"#utility.yul\":379:492   */\n      jump(tag_134)\n    tag_136:\n        /* \"#utility.yul\":526:527   */\n      0x00\n        /* \"#utility.yul\":517:523   */\n      dup5\n        /* \"#utility.yul\":512:515   */\n      dup5\n        /* \"#utility.yul\":508:524   */\n      add\n        /* \"#utility.yul\":501:528   */\n      mstore\n        /* \"#utility.yul\":349:535   */\n      pop\n        /* \"#utility.yul\":287:535   */\n      pop\n      pop\n      pop\n      jump\t// out\n        /* \"#utility.yul\":541:643   */\n    tag_101:\n        /* \"#utility.yul\":582:588   */\n      0x00\n        /* \"#utility.yul\":633:635   */\n      0x1f\n        /* \"#utility.yul\":629:636   */\n      not\n        /* \"#utility.yul\":624:626   */\n      0x1f\n        /* \"#utility.yul\":617:622   */\n      dup4\n        /* \"#utility.yul\":613:627   */\n      add\n        /* \"#utility.yul\":609:637   */\n      and\n        /* \"#utility.yul\":599:637   */\n      swap1\n      pop\n        /* \"#utility.yul\":541:643   */\n      swap2\n      swap1\n      pop\n      jump\t// out\n        /* \"#utility.yul\":649:1026   */\n    tag_102:\n        /* \"#utility.yul\":737:740   */\n      0x00\n        /* \"#utility.yul\":765:804   */\n      tag_139\n        /* \"#utility.yul\":798:803   */\n      dup3\n        /* \"#utility.yul\":765:804   */\n      tag_98\n      jump\t// in\n    tag_139:\n        /* \"#utility.yul\":820:891   */\n      tag_140\n        /* \"#utility.yul\":884:890   */\n      dup2\n        /* \"#utility.yul\":879:882   */\n      dup6\n        /* \"#utility.yul\":820:891   */\n      tag_99\n      jump\t// in\n    tag_140:\n        /* \"#utility.yul\":813:891   */\n      swap4\n      pop\n        /* \"#utility.yul\":900:965   */\n      tag_141\n        /* \"#utility.yul\":958:964   */\n      dup2\n        /* \"#utility.yul\":953:956   */\n      dup6\n        /* \"#utility.yul\":946:950   */\n      0x20\n        /* \"#utility.yul\":939:944   */\n      dup7\n        /* \"#utility.yul\":935:951   */\n      add\n        /* \"#utility.yul\":900:965   */\n      tag_100\n      jump\t// in\n    tag_141:\n        /* \"#utility.yul\":990:1019   */\n      tag_142\n        /* \"#utility.yul\":1012:1018   */\n      dup2\n        /* \"#utility.yul\":990:1019   */\n      tag_101\n      jump\t// in\n    tag_142:\n        /* \"#utility.yul\":985:988   */\n      dup5\n        /* \"#utility.yul\":981:1020   */\n      add\n        /* \"#utility.yul\":974:1020   */\n      swap2\n      pop\n        /* \"#utility.yul\":741:1026   */\n      pop\n        /* \"#utility.yul\":649:1026   */\n      swap3\n      swap2\n      pop\n      pop\n      jump\t// out\n        /* \"#utility.yul\":1032:1345   */\n    tag_16:\n        /* \"#utility.yul\":1145:1149   */\n      0x00\n        /* \"#utility.yul\":1183:1185   */\n      0x20\n        /* \"#utility.yul\":1172:1181   */\n      dup3\n        /* \"#utility.yul\":1168:1186   */\n      add\n        /* \"#utility.yul\":1160:1186   */\n      swap1\n      pop\n        /* \"#utility.yul\":1232:1241   */\n      dup2\n        /* \"#utility.yul\":1226:1230   */\n      dup2\n        /* \"#utility.yul\":1222:1242   */\n      sub\n        /* \"#utility.yul\":1218:1219   */\n      0x00\n        /* \"#utility.yul\":1207:1216   */\n      dup4\n        /* \"#utility.yul\":1203:1220   */\n      add\n        /* \"#utility.yul\":1196:1243   */\n      mstore\n        /* \"#utility.yul\":1260:1338   */\n      tag_144\n        /* \"#utility.yul\":1333:1337   */\n      dup2\n        /* \"#utility.yul\":1324:1330   */\n      dup5\n        /* \"#utility.yul\":1260:1338   */\n      tag_102\n      jump\t// in\n    tag_144:\n        /* \"#utility.yul\":1252:1338   */\n      swap1\n      pop\n        /* \"#utility.yul\":1032:1345   */\n      swap3\n      swap2\n      pop\n      pop\n      jump\t// out\n        /* \"#utility.yul\":1351:1428   */\n    tag_103:\n        /* \"#utility.yul\":1388:1395   */\n      0x00\n        /* \"#utility.yul\":1417:1422   */\n      dup2\n        /* \"#utility.yul\":1406:1422   */\n      swap1\n      pop\n        /* \"#utility.yul\":1351:1428   */\n      swap2\n      swap1\n      pop\n      jump\t// out\n        /* \"#utility.yul\":1434:1552   */\n    tag_104:\n        /* \"#utility.yul\":1521:1545   */\n      tag_147\n        /* \"#utility.yul\":1539:1544   */\n      dup2\n        /* \"#utility.yul\":1521:1545   */\n      tag_103\n      jump\t// in\n    tag_147:\n        /* \"#utility.yul\":1516:1519   */\n      dup3\n        /* \"#utility.yul\":1509:1546   */\n      mstore\n        /* \"#utility.yul\":1434:1552   */\n      pop\n      pop\n      jump\t// out\n        /* \"#utility.yul\":1558:1780   */\n    tag_20:\n        /* \"#utility.yul\":1651:1655   */\n      0x00\n        /* \"#utility.yul\":1689:1691   */\n      0x20\n        /* \"#utility.yul\":1678:1687   */\n      dup3\n        /* \"#utility.yul\":1674:1692   */\n      add\n        /* \"#utility.yul\":1666:1692   */\n      swap1\n      pop\n        /* \"#utility.yul\":1702:1773   */\n      tag_149\n        /* \"#utility.yul\":1770:1771   */\n      0x00\n        /* \"#utility.yul\":1759:1768   */\n      dup4\n        /* \"#utility.yul\":1755:1772   */\n      add\n        /* \"#utility.yul\":1746:1752   */\n      dup5\n        /* \"#utility.yul\":1702:1773   */\n      tag_104\n      jump\t// in\n    tag_149:\n        /* \"#utility.yul\":1558:1780   */\n      swap3\n      swap2\n      pop\n      pop\n      jump\t// out\n        /* \"#utility.yul\":1867:1984   */\n    tag_106:\n        /* \"#utility.yul\":1976:1977   */\n      0x00\n        /* \"#utility.yul\":1973:1974   */\n      dup1\n        /* \"#utility.yul\":1966:1978   */\n      revert\n        /* \"#utility.yul\":2113:2235   */\n    tag_108:\n        /* \"#utility.yul\":2186:2210   */\n      tag_154\n        /* \"#utility.yul\":2204:2209   */\n      dup2\n        /* \"#utility.yul\":2186:2210   */\n      tag_103\n      jump\t// in\n    tag_154:\n        /* \"#utility.yul\":2179:2184   */\n      dup2\n        /* \"#utility.yul\":2176:2211   */\n      eq\n        /* \"#utility.yul\":2166:2229   */\n      tag_155\n      jumpi\n        /* \"#utility.yul\":2225:2226   */\n      0x00\n        /* \"#utility.yul\":2222:2223   */\n      dup1\n        /* \"#utility.yul\":2215:2227   */\n      revert\n        /* \"#utility.yul\":2166:2229   */\n    tag_155:\n        /* \"#utility.yul\":2113:2235   */\n      pop\n      jump\t// out\n        /* \"#utility.yul\":2241:2380   */\n    tag_109:\n        /* \"#utility.yul\":2287:2292   */\n      0x00\n        /* \"#utility.yul\":2325:2331   */\n      dup2\n        /* \"#utility.yul\":2312:2332   */\n      calldataload\n        /* \"#utility.yul\":2303:2332   */\n      swap1\n      pop\n        /* \"#utility.yul\":2341:2374   */\n      tag_157\n        /* \"#utility.yul\":2368:2373   */\n      dup2\n        /* \"#utility.yul\":2341:2374   */\n      tag_108\n      jump\t// in\n    tag_157:\n        /* \"#utility.yul\":2241:2380   */\n      swap3\n      swap2\n      pop\n      pop\n      jump\t// out\n        /* \"#utility.yul\":2386:2715   */\n    tag_26:\n        /* \"#utility.yul\":2445:2451   */\n      0x00\n        /* \"#utility.yul\":2494:2496   */\n      0x20\n        /* \"#utility.yul\":2482:2491   */\n      dup3\n        /* \"#utility.yul\":2473:2480   */\n      dup5\n        /* \"#utility.yul\":2469:2492   */\n      sub\n        /* \"#utility.yul\":2465:2497   */\n      slt\n        /* \"#utility.yul\":2462:2581   */\n      iszero\n      tag_159\n      jumpi\n        /* \"#utility.yul\":2500:2579   */\n      tag_160\n      tag_106\n      jump\t// in\n    tag_160:\n        /* \"#utility.yul\":2462:2581   */\n    tag_159:\n        /* \"#utility.yul\":2620:2621   */\n      0x00\n        /* \"#utility.yul\":2645:2698   */\n      tag_161\n        /* \"#utility.yul\":2690:2697   */\n      dup5\n        /* \"#utility.yul\":2681:2687   */\n      dup3\n        /* \"#utility.yul\":2670:2679   */\n      dup6\n        /* \"#utility.yul\":2666:2688   */\n      add\n        /* \"#utility.yul\":2645:2698   */\n      tag_109\n      jump\t// in\n    tag_161:\n        /* \"#utility.yul\":2635:2698   */\n      swap2\n      pop\n        /* \"#utility.yul\":2591:2708   */\n      pop\n        /* \"#utility.yul\":2386:2715   */\n      swap3\n      swap2\n      pop\n      pop\n      jump\t// out\n        /* \"#utility.yul\":2721:2811   */\n    tag_110:\n        /* \"#utility.yul\":2755:2762   */\n      0x00\n        /* \"#utility.yul\":2798:2803   */\n      dup2\n        /* \"#utility.yul\":2791:2804   */\n      iszero\n        /* \"#utility.yul\":2784:2805   */\n      iszero\n        /* \"#utility.yul\":2773:2805   */\n      swap1\n      pop\n        /* \"#utility.yul\":2721:2811   */\n      swap2\n      swap1\n      pop\n      jump\t// out\n        /* \"#utility.yul\":2817:2926   */\n    tag_111:\n        /* \"#utility.yul\":2898:2919   */\n      tag_164\n        /* \"#utility.yul\":2913:2918   */\n      dup2\n        /* \"#utility.yul\":2898:2919   */\n      tag_110\n      jump\t// in\n    tag_164:\n        /* \"#utility.yul\":2893:2896   */\n      dup3\n        /* \"#utility.yul\":2886:2920   */\n      mstore\n        /* \"#utility.yul\":2817:2926   */\n      pop\n      pop\n      jump\t// out\n        /* \"#utility.yul\":2932:3142   */\n    tag_29:\n        /* \"#utility.yul\":3019:3023   */\n      0x00\n        /* \"#utility.yul\":3057:3059   */\n      0x20\n        /* \"#utility.yul\":3046:3055   */\n      dup3\n        /* \"#utility.yul\":3042:3060   */\n      add\n        /* \"#utility.yul\":3034:3060   */\n      swap1\n      pop\n        /* \"#utility.yul\":3070:3135   */\n      tag_166\n        /* \"#utility.yul\":3132:3133   */\n      0x00\n        /* \"#utility.yul\":3121:3130   */\n      dup4\n        /* \"#utility.yul\":3117:3134   */\n      add\n        /* \"#utility.yul\":3108:3114   */\n      dup5\n        /* \"#utility.yul\":3070:3135   */\n      tag_111\n      jump\t// in\n    tag_166:\n        /* \"#utility.yul\":2932:3142   */\n      swap3\n      swap2\n      pop\n      pop\n      jump\t// out\n        /* \"#utility.yul\":3148:3274   */\n    tag_112:\n        /* \"#utility.yul\":3185:3192   */\n      0x00\n        /* \"#utility.yul\":3225:3267   */\n      0xffffffffffffffffffffffffffffffffffffffff\n        /* \"#utility.yul\":3218:3223   */\n      dup3\n        /* \"#utility.yul\":3214:3268   */\n      and\n        /* \"#utility.yul\":3203:3268   */\n      swap1\n      pop\n        /* \"#utility.yul\":3148:3274   */\n      swap2\n      swap1\n      pop\n      jump\t// out\n        /* \"#utility.yul\":3280:3376   */\n    tag_113:\n        /* \"#utility.yul\":3317:3324   */\n      0x00\n        /* \"#utility.yul\":3346:3370   */\n      tag_169\n        /* \"#utility.yul\":3364:3369   */\n      dup3\n        /* \"#utility.yul\":3346:3370   */\n      tag_112\n      jump\t// in\n    tag_169:\n        /* \"#utility.yul\":3335:3370   */\n      swap1\n      pop\n        /* \"#utility.yul\":3280:3376   */\n      swap2\n      swap1\n      pop\n      jump\t// out\n        /* \"#utility.yul\":3382:3504   */\n    tag_114:\n        /* \"#utility.yul\":3455:3479   */\n      tag_171\n        /* \"#utility.yul\":3473:3478   */\n      dup2\n        /* \"#utility.yul\":3455:3479   */\n      tag_113\n      jump\t// in\n    tag_171:\n        /* \"#utility.yul\":3448:3453   */\n      dup2\n        /* \"#utility.yul\":3445:3480   */\n      eq\n        /* \"#utility.yul\":3435:3498   */\n      tag_172\n      jumpi\n        /* \"#utility.yul\":3494:3495   */\n      0x00\n        /* \"#utility.yul\":3491:3492   */\n      dup1\n        /* \"#utility.yul\":3484:3496   */\n      revert\n        /* \"#utility.yul\":3435:3498   */\n    tag_172:\n        /* \"#utility.yul\":3382:3504   */\n      pop\n      jump\t// out\n        /* \"#utility.yul\":3510:3649   */\n    tag_115:\n        /* \"#utility.yul\":3556:3561   */\n      0x00\n        /* \"#utility.yul\":3594:3600   */\n      dup2\n        /* \"#utility.yul\":3581:3601   */\n      calldataload\n        /* \"#utility.yul\":3572:3601   */\n      swap1\n      pop\n        /* \"#utility.yul\":3610:3643   */\n      tag_174\n        /* \"#utility.yul\":3637:3642   */\n      dup2\n        /* \"#utility.yul\":3610:3643   */\n      tag_114\n      jump\t// in\n    tag_174:\n        /* \"#utility.yul\":3510:3649   */\n      swap3\n      swap2\n      pop\n      pop\n      jump\t// out\n        /* \"#utility.yul\":3655:3984   */\n    tag_32:\n        /* \"#utility.yul\":3714:3720   */\n      0x00\n        /* \"#utility.yul\":3763:3765   */\n      0x20\n        /* \"#utility.yul\":3751:3760   */\n      dup3\n        /* \"#utility.yul\":3742:3749   */\n      dup5\n        /* \"#utility.yul\":3738:3761   */\n      sub\n        /* \"#utility.yul\":3734:3766   */\n      slt\n        /* \"#utility.yul\":3731:3850   */\n      iszero\n      tag_176\n      jumpi\n        /* \"#utility.yul\":3769:3848   */\n      tag_177\n      tag_106\n      jump\t// in\n    tag_177:\n        /* \"#utility.yul\":3731:3850   */\n    tag_176:\n        /* \"#utility.yul\":3889:3890   */\n      0x00\n        /* \"#utility.yul\":3914:3967   */\n      tag_178\n        /* \"#utility.yul\":3959:3966   */\n      dup5\n        /* \"#utility.yul\":3950:3956   */\n      dup3\n        /* \"#utility.yul\":3939:3948   */\n      dup6\n        /* \"#utility.yul\":3935:3957   */\n      add\n        /* \"#utility.yul\":3914:3967   */\n      tag_115\n      jump\t// in\n    tag_178:\n        /* \"#utility.yul\":3904:3967   */\n      swap2\n      pop\n        /* \"#utility.yul\":3860:3977   */\n      pop\n        /* \"#utility.yul\":3655:3984   */\n      swap3\n      swap2\n      pop\n      pop\n      jump\t// out\n        /* \"#utility.yul\":3990:4108   */\n    tag_116:\n        /* \"#utility.yul\":4077:4101   */\n      tag_180\n        /* \"#utility.yul\":4095:4100   */\n      dup2\n        /* \"#utility.yul\":4077:4101   */\n      tag_113\n      jump\t// in\n    tag_180:\n        /* \"#utility.yul\":4072:4075   */\n      dup3\n        /* \"#utility.yul\":4065:4102   */\n      mstore\n        /* \"#utility.yul\":3990:4108   */\n      pop\n      pop\n      jump\t// out\n        /* \"#utility.yul\":4114:4336   */\n    tag_38:\n        /* \"#utility.yul\":4207:4211   */\n      0x00\n        /* \"#utility.yul\":4245:4247   */\n      0x20\n        /* \"#utility.yul\":4234:4243   */\n      dup3\n        /* \"#utility.yul\":4230:4248   */\n      add\n        /* \"#utility.yul\":4222:4248   */\n      swap1\n      pop\n        /* \"#utility.yul\":4258:4329   */\n      tag_182\n        /* \"#utility.yul\":4326:4327   */\n      0x00\n        /* \"#utility.yul\":4315:4324   */\n      dup4\n        /* \"#utility.yul\":4311:4328   */\n      add\n        /* \"#utility.yul\":4302:4308   */\n      dup5\n        /* \"#utility.yul\":4258:4329   */\n      tag_116\n      jump\t// in\n    tag_182:\n        /* \"#utility.yul\":4114:4336   */\n      swap3\n      swap2\n      pop\n      pop\n      jump\t// out\n        /* \"#utility.yul\":4342:4816   */\n    tag_48:\n        /* \"#utility.yul\":4410:4416   */\n      0x00\n        /* \"#utility.yul\":4418:4424   */\n      dup1\n        /* \"#utility.yul\":4467:4469   */\n      0x40\n        /* \"#utility.yul\":4455:4464   */\n      dup4\n        /* \"#utility.yul\":4446:4453   */\n      dup6\n        /* \"#utility.yul\":4442:4465   */\n      sub\n        /* \"#utility.yul\":4438:4470   */\n      slt\n        /* \"#utility.yul\":4435:4554   */\n      iszero\n      tag_184\n      jumpi\n        /* \"#utility.yul\":4473:4552   */\n      tag_185\n      tag_106\n      jump\t// in\n    tag_185:\n        /* \"#utility.yul\":4435:4554   */\n    tag_184:\n        /* \"#utility.yul\":4593:4594   */\n      0x00\n        /* \"#utility.yul\":4618:4671   */\n      tag_186\n        /* \"#utility.yul\":4663:4670   */\n      dup6\n        /* \"#utility.yul\":4654:4660   */\n      dup3\n        /* \"#utility.yul\":4643:4652   */\n      dup7\n        /* \"#utility.yul\":4639:4661   */\n      add\n        /* \"#utility.yul\":4618:4671   */\n      tag_115\n      jump\t// in\n    tag_186:\n        /* \"#utility.yul\":4608:4671   */\n      swap3\n      pop\n        /* \"#utility.yul\":4564:4681   */\n      pop\n        /* \"#utility.yul\":4720:4722   */\n      0x20\n        /* \"#utility.yul\":4746:4799   */\n      tag_187\n        /* \"#utility.yul\":4791:4798   */\n      dup6\n        /* \"#utility.yul\":4782:4788   */\n      dup3\n        /* \"#utility.yul\":4771:4780   */\n      dup7\n        /* \"#utility.yul\":4767:4789   */\n      add\n        /* \"#utility.yul\":4746:4799   */\n      tag_109\n      jump\t// in\n    tag_187:\n        /* \"#utility.yul\":4736:4799   */\n      swap2\n      pop\n        /* \"#utility.yul\":4691:4809   */\n      pop\n        /* \"#utility.yul\":4342:4816   */\n      swap3\n      pop\n      swap3\n      swap1\n      pop\n      jump\t// out\n        /* \"#utility.yul\":4822:5002   */\n    tag_117:\n        /* \"#utility.yul\":4870:4947   */\n      0x4e487b7100000000000000000000000000000000000000000000000000000000\n        /* \"#utility.yul\":4867:4868   */\n      0x00\n        /* \"#utility.yul\":4860:4948   */\n      mstore\n        /* \"#utility.yul\":4967:4971   */\n      0x22\n        /* \"#utility.yul\":4964:4965   */\n      0x04\n        /* \"#utility.yul\":4957:4972   */\n      mstore\n        /* \"#utility.yul\":4991:4995   */\n      0x24\n        /* \"#utility.yul\":4988:4989   */\n      0x00\n        /* \"#utility.yul\":4981:4996   */\n      revert\n        /* \"#utility.yul\":5008:5328   */\n    tag_52:\n        /* \"#utility.yul\":5052:5058   */\n      0x00\n        /* \"#utility.yul\":5089:5090   */\n      0x02\n        /* \"#utility.yul\":5083:5087   */\n      dup3\n        /* \"#utility.yul\":5079:5091   */\n      div\n        /* \"#utility.yul\":5069:5091   */\n      swap1\n      pop\n        /* \"#utility.yul\":5136:5137   */\n      0x01\n        /* \"#utility.yul\":5130:5134   */\n      dup3\n        /* \"#utility.yul\":5126:5138   */\n      and\n        /* \"#utility.yul\":5157:5175   */\n      dup1\n        /* \"#utility.yul\":5147:5228   */\n      tag_190\n      jumpi\n        /* \"#utility.yul\":5213:5217   */\n      0x7f\n        /* \"#utility.yul\":5205:5211   */\n      dup3\n        /* \"#utility.yul\":5201:5218   */\n      and\n        /* \"#utility.yul\":5191:5218   */\n      swap2\n      pop\n        /* \"#utility.yul\":5147:5228   */\n    tag_190:\n        /* \"#utility.yul\":5275:5277   */\n      0x20\n        /* \"#utility.yul\":5267:5273   */\n      dup3\n        /* \"#utility.yul\":5264:5278   */\n      lt\n        /* \"#utility.yul\":5244:5262   */\n      dup2\n        /* \"#utility.yul\":5241:5279   */\n      sub\n        /* \"#utility.yul\":5238:5322   */\n      tag_191\n      jumpi\n        /* \"#utility.yul\":5294:5312   */\n      tag_192\n      tag_117\n      jump\t// in\n    tag_192:\n        /* \"#utility.yul\":5238:5322   */\n    tag_191:\n        /* \"#utility.yul\":5059:5328   */\n      pop\n        /* \"#utility.yul\":5008:5328   */\n      swap2\n      swap1\n      pop\n      jump\t// out\n        /* \"#utility.yul\":5334:5554   */\n    tag_118:\n        /* \"#utility.yul\":5474:5508   */\n      0x4f6e6c79206f776e65722063616e2063616c6c20746869732066756e6374696f\n        /* \"#utility.yul\":5470:5471   */\n      0x00\n        /* \"#utility.yul\":5462:5468   */\n      dup3\n        /* \"#utility.yul\":5458:5472   */\n      add\n        /* \"#utility.yul\":5451:5509   */\n      mstore\n        /* \"#utility.yul\":5543:5546   */\n      0x6e00000000000000000000000000000000000000000000000000000000000000\n        /* \"#utility.yul\":5538:5540   */\n      0x20\n        /* \"#utility.yul\":5530:5536   */\n      dup3\n        /* \"#utility.yul\":5526:5541   */\n      add\n        /* \"#utility.yul\":5519:5547   */\n      mstore\n        /* \"#utility.yul\":5334:5554   */\n      pop\n      jump\t// out\n        /* \"#utility.yul\":5560:5926   */\n    tag_119:\n        /* \"#utility.yul\":5702:5705   */\n      0x00\n        /* \"#utility.yul\":5723:5790   */\n      tag_195\n        /* \"#utility.yul\":5787:5789   */\n      0x21\n        /* \"#utility.yul\":5782:5785   */\n      dup4\n        /* \"#utility.yul\":5723:5790   */\n      tag_99\n      jump\t// in\n    tag_195:\n        /* \"#utility.yul\":5716:5790   */\n      swap2\n      pop\n        /* \"#utility.yul\":5799:5892   */\n      tag_196\n        /* \"#utility.yul\":5888:5891   */\n      dup3\n        /* \"#utility.yul\":5799:5892   */\n      tag_118\n      jump\t// in\n    tag_196:\n        /* \"#utility.yul\":5917:5919   */\n      0x40\n        /* \"#utility.yul\":5912:5915   */\n      dup3\n        /* \"#utility.yul\":5908:5920   */\n      add\n        /* \"#utility.yul\":5901:5920   */\n      swap1\n      pop\n        /* \"#utility.yul\":5560:5926   */\n      swap2\n      swap1\n      pop\n      jump\t// out\n        /* \"#utility.yul\":5932:6351   */\n    tag_60:\n        /* \"#utility.yul\":6098:6102   */\n      0x00\n        /* \"#utility.yul\":6136:6138   */\n      0x20\n        /* \"#utility.yul\":6125:6134   */\n      dup3\n        /* \"#utility.yul\":6121:6139   */\n      add\n        /* \"#utility.yul\":6113:6139   */\n      swap1\n      pop\n        /* \"#utility.yul\":6185:6194   */\n      dup2\n        /* \"#utility.yul\":6179:6183   */\n      dup2\n        /* \"#utility.yul\":6175:6195   */\n      sub\n        /* \"#utility.yul\":6171:6172   */\n      0x00\n        /* \"#utility.yul\":6160:6169   */\n      dup4\n        /* \"#utility.yul\":6156:6173   */\n      add\n        /* \"#utility.yul\":6149:6196   */\n      mstore\n        /* \"#utility.yul\":6213:6344   */\n      tag_198\n        /* \"#utility.yul\":6339:6343   */\n      dup2\n        /* \"#utility.yul\":6213:6344   */\n      tag_119\n      jump\t// in\n    tag_198:\n        /* \"#utility.yul\":6205:6344   */\n      swap1\n      pop\n        /* \"#utility.yul\":5932:6351   */\n      swap2\n      swap1\n      pop\n      jump\t// out\n        /* \"#utility.yul\":6357:6537   */\n    tag_120:\n        /* \"#utility.yul\":6405:6482   */\n      0x4e487b7100000000000000000000000000000000000000000000000000000000\n        /* \"#utility.yul\":6402:6403   */\n      0x00\n        /* \"#utility.yul\":6395:6483   */\n      mstore\n        /* \"#utility.yul\":6502:6506   */\n      0x11\n        /* \"#utility.yul\":6499:6500   */\n      0x04\n        /* \"#utility.yul\":6492:6507   */\n      mstore\n        /* \"#utility.yul\":6526:6530   */\n      0x24\n        /* \"#utility.yul\":6523:6524   */\n      0x00\n        /* \"#utility.yul\":6516:6531   */\n      revert\n        /* \"#utility.yul\":6543:6645   */\n    tag_121:\n        /* \"#utility.yul\":6585:6593   */\n      0x00\n        /* \"#utility.yul\":6632:6637   */\n      dup2\n        /* \"#utility.yul\":6629:6630   */\n      0x01\n        /* \"#utility.yul\":6625:6638   */\n      shr\n        /* \"#utility.yul\":6604:6638   */\n      swap1\n      pop\n        /* \"#utility.yul\":6543:6645   */\n      swap2\n      swap1\n      pop\n      jump\t// out\n        /* \"#utility.yul\":6651:7499   */\n    tag_122:\n        /* \"#utility.yul\":6712:6717   */\n      0x00\n        /* \"#utility.yul\":6719:6723   */\n      dup1\n        /* \"#utility.yul\":6743:6749   */\n      dup3\n        /* \"#utility.yul\":6734:6749   */\n      swap2\n      pop\n        /* \"#utility.yul\":6767:6772   */\n      dup4\n        /* \"#utility.yul\":6758:6772   */\n      swap1\n      pop\n        /* \"#utility.yul\":6781:7493   */\n    tag_202:\n        /* \"#utility.yul\":6802:6803   */\n      0x01\n        /* \"#utility.yul\":6792:6800   */\n      dup6\n        /* \"#utility.yul\":6789:6804   */\n      gt\n        /* \"#utility.yul\":6781:7493   */\n      iszero\n      tag_204\n      jumpi\n        /* \"#utility.yul\":6897:6901   */\n      dup1\n        /* \"#utility.yul\":6892:6895   */\n      dup7\n        /* \"#utility.yul\":6888:6902   */\n      div\n        /* \"#utility.yul\":6882:6886   */\n      dup2\n        /* \"#utility.yul\":6879:6903   */\n      gt\n        /* \"#utility.yul\":6876:6926   */\n      iszero\n      tag_205\n      jumpi\n        /* \"#utility.yul\":6906:6924   */\n      tag_206\n      tag_120\n      jump\t// in\n    tag_206:\n        /* \"#utility.yul\":6876:6926   */\n    tag_205:\n        /* \"#utility.yul\":6956:6957   */\n      0x01\n        /* \"#utility.yul\":6946:6954   */\n      dup6\n        /* \"#utility.yul\":6942:6958   */\n      and\n        /* \"#utility.yul\":6939:7390   */\n      iszero\n      tag_207\n      jumpi\n        /* \"#utility.yul\":7371:7375   */\n      dup1\n        /* \"#utility.yul\":7364:7369   */\n      dup3\n        /* \"#utility.yul\":7360:7376   */\n      mul\n        /* \"#utility.yul\":7351:7376   */\n      swap2\n      pop\n        /* \"#utility.yul\":6939:7390   */\n    tag_207:\n        /* \"#utility.yul\":7421:7425   */\n      dup1\n        /* \"#utility.yul\":7415:7419   */\n      dup2\n        /* \"#utility.yul\":7411:7426   */\n      mul\n        /* \"#utility.yul\":7403:7426   */\n      swap1\n      pop\n        /* \"#utility.yul\":7451:7483   */\n      tag_208\n        /* \"#utility.yul\":7474:7482   */\n      dup6\n        /* \"#utility.yul\":7451:7483   */\n      tag_121\n      jump\t// in\n    tag_208:\n        /* \"#utility.yul\":7439:7483   */\n      swap5\n      pop\n        /* \"#utility.yul\":6781:7493   */\n      jump(tag_202)\n    tag_204:\n        /* \"#utility.yul\":6651:7499   */\n      swap5\n      pop\n      swap5\n      swap3\n      pop\n      pop\n      pop\n      jump\t// out\n        /* \"#utility.yul\":7505:8578   */\n    tag_123:\n        /* \"#utility.yul\":7559:7564   */\n      0x00\n        /* \"#utility.yul\":7750:7758   */\n      dup3\n        /* \"#utility.yul\":7740:7780   */\n      tag_210\n      jumpi\n        /* \"#utility.yul\":7771:7772   */\n      0x01\n        /* \"#utility.yul\":7762:7772   */\n      swap1\n      pop\n        /* \"#utility.yul\":7773:7778   */\n      jump(tag_209)\n        /* \"#utility.yul\":7740:7780   */\n    tag_210:\n        /* \"#utility.yul\":7799:7803   */\n      dup2\n        /* \"#utility.yul\":7789:7825   */\n      tag_211\n      jumpi\n        /* \"#utility.yul\":7816:7817   */\n      0x00\n        /* \"#utility.yul\":7807:7817   */\n      swap1\n      pop\n        /* \"#utility.yul\":7818:7823   */\n      jump(tag_209)\n        /* \"#utility.yul\":7789:7825   */\n    tag_211:\n        /* \"#utility.yul\":7885:7889   */\n      dup2\n        /* \"#utility.yul\":7933:7934   */\n      0x01\n        /* \"#utility.yul\":7928:7955   */\n      dup2\n      eq\n      tag_213\n      jumpi\n        /* \"#utility.yul\":7969:7970   */\n      0x02\n        /* \"#utility.yul\":7964:8155   */\n      dup2\n      eq\n      tag_214\n      jumpi\n        /* \"#utility.yul\":7878:8155   */\n      jump(tag_212)\n        /* \"#utility.yul\":7928:7955   */\n    tag_213:\n        /* \"#utility.yul\":7946:7947   */\n      0x01\n        /* \"#utility.yul\":7937:7947   */\n      swap2\n      pop\n        /* \"#utility.yul\":7948:7953   */\n      pop\n      jump(tag_209)\n        /* \"#utility.yul\":7964:8155   */\n    tag_214:\n        /* \"#utility.yul\":8009:8012   */\n      0xff\n        /* \"#utility.yul\":7999:8007   */\n      dup5\n        /* \"#utility.yul\":7996:8013   */\n      gt\n        /* \"#utility.yul\":7993:8036   */\n      iszero\n      tag_215\n      jumpi\n        /* \"#utility.yul\":8016:8034   */\n      tag_216\n      tag_120\n      jump\t// in\n    tag_216:\n        /* \"#utility.yul\":7993:8036   */\n    tag_215:\n        /* \"#utility.yul\":8065:8073   */\n      dup4\n        /* \"#utility.yul\":8062:8063   */\n      0x02\n        /* \"#utility.yul\":8058:8074   */\n      exp\n        /* \"#utility.yul\":8049:8074   */\n      swap2\n      pop\n        /* \"#utility.yul\":8100:8103   */\n      dup5\n        /* \"#utility.yul\":8093:8098   */\n      dup3\n        /* \"#utility.yul\":8090:8104   */\n      gt\n        /* \"#utility.yul\":8087:8127   */\n      iszero\n      tag_217\n      jumpi\n        /* \"#utility.yul\":8107:8125   */\n      tag_218\n      tag_120\n      jump\t// in\n    tag_218:\n        /* \"#utility.yul\":8087:8127   */\n    tag_217:\n        /* \"#utility.yul\":8140:8145   */\n      pop\n      jump(tag_209)\n        /* \"#utility.yul\":7878:8155   */\n    tag_212:\n      pop\n        /* \"#utility.yul\":8264:8266   */\n      0x20\n        /* \"#utility.yul\":8254:8262   */\n      dup4\n        /* \"#utility.yul\":8251:8267   */\n      lt\n        /* \"#utility.yul\":8245:8248   */\n      0x0133\n        /* \"#utility.yul\":8239:8243   */\n      dup4\n        /* \"#utility.yul\":8236:8249   */\n      lt\n        /* \"#utility.yul\":8232:8268   */\n      and\n        /* \"#utility.yul\":8214:8216   */\n      0x4e\n        /* \"#utility.yul\":8204:8212   */\n      dup5\n        /* \"#utility.yul\":8201:8217   */\n      lt\n        /* \"#utility.yul\":8196:8198   */\n      0x0b\n        /* \"#utility.yul\":8190:8194   */\n      dup5\n        /* \"#utility.yul\":8187:8199   */\n      lt\n        /* \"#utility.yul\":8183:8218   */\n      and\n        /* \"#utility.yul\":8167:8278   */\n      or\n        /* \"#utility.yul\":8164:8410   */\n      iszero\n      tag_219\n      jumpi\n        /* \"#utility.yul\":8320:8328   */\n      dup3\n        /* \"#utility.yul\":8314:8318   */\n      dup3\n        /* \"#utility.yul\":8310:8329   */\n      exp\n        /* \"#utility.yul\":8301:8329   */\n      swap1\n      pop\n        /* \"#utility.yul\":8355:8358   */\n      dup4\n        /* \"#utility.yul\":8348:8353   */\n      dup2\n        /* \"#utility.yul\":8345:8359   */\n      gt\n        /* \"#utility.yul\":8342:8382   */\n      iszero\n      tag_220\n      jumpi\n        /* \"#utility.yul\":8362:8380   */\n      tag_221\n      tag_120\n      jump\t// in\n    tag_221:\n        /* \"#utility.yul\":8342:8382   */\n    tag_220:\n        /* \"#utility.yul\":8395:8400   */\n      jump(tag_209)\n        /* \"#utility.yul\":8164:8410   */\n    tag_219:\n        /* \"#utility.yul\":8435:8477   */\n      tag_222\n        /* \"#utility.yul\":8473:8476   */\n      dup5\n        /* \"#utility.yul\":8463:8471   */\n      dup5\n        /* \"#utility.yul\":8457:8461   */\n      dup5\n        /* \"#utility.yul\":8454:8455   */\n      0x01\n        /* \"#utility.yul\":8435:8477   */\n      tag_122\n      jump\t// in\n    tag_222:\n        /* \"#utility.yul\":8420:8477   */\n      swap3\n      pop\n      swap1\n      pop\n        /* \"#utility.yul\":8509:8513   */\n      dup2\n        /* \"#utility.yul\":8504:8507   */\n      dup5\n        /* \"#utility.yul\":8500:8514   */\n      div\n        /* \"#utility.yul\":8493:8498   */\n      dup2\n        /* \"#utility.yul\":8490:8515   */\n      gt\n        /* \"#utility.yul\":8487:8538   */\n      iszero\n      tag_223\n      jumpi\n        /* \"#utility.yul\":8518:8536   */\n      tag_224\n      tag_120\n      jump\t// in\n    tag_224:\n        /* \"#utility.yul\":8487:8538   */\n    tag_223:\n        /* \"#utility.yul\":8567:8571   */\n      dup2\n        /* \"#utility.yul\":8560:8565   */\n      dup2\n        /* \"#utility.yul\":8556:8572   */\n      mul\n        /* \"#utility.yul\":8547:8572   */\n      swap1\n      pop\n        /* \"#utility.yul\":7505:8578   */\n    tag_209:\n      swap4\n      swap3\n      pop\n      pop\n      pop\n      jump\t// out\n        /* \"#utility.yul\":8584:8869   */\n    tag_63:\n        /* \"#utility.yul\":8644:8649   */\n      0x00\n        /* \"#utility.yul\":8668:8691   */\n      tag_226\n        /* \"#utility.yul\":8686:8690   */\n      dup3\n        /* \"#utility.yul\":8668:8691   */\n      tag_103\n      jump\t// in\n    tag_226:\n        /* \"#utility.yul\":8660:8691   */\n      swap2\n      pop\n        /* \"#utility.yul\":8712:8739   */\n      tag_227\n        /* \"#utility.yul\":8730:8738   */\n      dup4\n        /* \"#utility.yul\":8712:8739   */\n      tag_103\n      jump\t// in\n    tag_227:\n        /* \"#utility.yul\":8700:8739   */\n      swap3\n      pop\n        /* \"#utility.yul\":8758:8862   */\n      tag_228\n        /* \"#utility.yul\":8795:8861   */\n      0xffffffffffffffffffffffffffffffffffffffffffffffffffffffffffffffff\n        /* \"#utility.yul\":8785:8793   */\n      dup5\n        /* \"#utility.yul\":8779:8783   */\n      dup5\n        /* \"#utility.yul\":8758:8862   */\n      tag_123\n      jump\t// in\n    tag_228:\n        /* \"#utility.yul\":8749:8862   */\n      swap1\n      pop\n        /* \"#utility.yul\":8584:8869   */\n      swap3\n      swap2\n      pop\n      pop\n      jump\t// out\n        /* \"#utility.yul\":8875:9285   */\n    tag_65:\n        /* \"#utility.yul\":8915:8922   */\n      0x00\n        /* \"#utility.yul\":8938:8958   */\n      tag_230\n        /* \"#utility.yul\":8956:8957   */\n      dup3\n        /* \"#utility.yul\":8938:8958   */\n      tag_103\n      jump\t// in\n    tag_230:\n        /* \"#utility.yul\":8933:8958   */\n      swap2\n      pop\n        /* \"#utility.yul\":8972:8992   */\n      tag_231\n        /* \"#utility.yul\":8990:8991   */\n      dup4\n        /* \"#utility.yul\":8972:8992   */\n      tag_103\n      jump\t// in\n    tag_231:\n        /* \"#utility.yul\":8967:8992   */\n      swap3\n      pop\n        /* \"#utility.yul\":9027:9028   */\n      dup3\n        /* \"#utility.yul\":9024:9025   */\n      dup3\n        /* \"#utility.yul\":9020:9029   */\n      mul\n        /* \"#utility.yul\":9049:9079   */\n      tag_232\n        /* \"#utility.yul\":9067:9078   */\n      dup2\n        /* \"#utility.yul\":9049:9079   */\n      tag_103\n      jump\t// in\n    tag_232:\n        /* \"#utility.yul\":9038:9079   */\n      swap2\n      pop\n        /* \"#utility.yul\":9228:9229   */\n      dup3\n        /* \"#utility.yul\":9219:9226   */\n      dup3\n        /* \"#utility.yul\":9215:9230   */\n      div\n        /* \"#utility.yul\":9212:9213   */\n      dup5\n        /* \"#utility.yul\":9209:9231   */\n      eq\n        /* \"#utility.yul\":9189:9190   */\n      dup4\n        /* \"#utility.yul\":9182:9191   */\n      iszero\n        /* \"#utility.yul\":9162:9245   */\n      or\n        /* \"#utility.yul\":9139:9278   */\n      tag_233\n      jumpi\n        /* \"#utility.yul\":9258:9276   */\n      tag_234\n      tag_120\n      jump\t// in\n    tag_234:\n        /* \"#utility.yul\":9139:9278   */\n    tag_233:\n        /* \"#utility.yul\":8923:9285   */\n      pop\n        /* \"#utility.yul\":8875:9285   */\n      swap3\n      swap2\n      pop\n      pop\n      jump\t// out\n        /* \"#utility.yul\":9291:9469   */\n    tag_124:\n        /* \"#utility.yul\":9431:9461   */\n      0x496e73756666696369656e742062616c616e636520746f206275726e00000000\n        /* \"#utility.yul\":9427:9428   */\n      0x00\n        /* \"#utility.yul\":9419:9425   */\n      dup3\n        /* \"#utility.yul\":9415:9429   */\n      add\n        /* \"#utility.yul\":9408:9462   */\n      mstore\n        /* \"#utility.yul\":9291:9469   */\n      pop\n      jump\t// out\n        /* \"#utility.yul\":9475:9841   */\n    tag_125:\n        /* \"#utility.yul\":9617:9620   */\n      0x00\n        /* \"#utility.yul\":9638:9705   */\n      tag_237\n        /* \"#utility.yul\":9702:9704   */\n      0x1c\n        /* \"#utility.yul\":9697:9700   */\n      dup4\n        /* \"#utility.yul\":9638:9705   */\n      tag_99\n      jump\t// in\n    tag_237:\n        /* \"#utility.yul\":9631:9705   */\n      swap2\n      pop\n        /* \"#utility.yul\":9714:9807   */\n      tag_238\n        /* \"#utility.yul\":9803:9806   */\n      dup3\n        /* \"#utility.yul\":9714:9807   */\n      tag_124\n      jump\t// in\n    tag_238:\n        /* \"#utility.yul\":9832:9834   */\n      0x20\n        /* \"#utility.yul\":9827:9830   */\n      dup3\n        /* \"#utility.yul\":9823:9835   */\n      add\n        /* \"#utility.yul\":9816:9835   */\n      swap1\n      pop\n        /* \"#utility.yul\":9475:9841   */\n      swap2\n      swap1\n      pop\n      jump\t// out\n        /* \"#utility.yul\":9847:10266   */\n    tag_68:\n        /* \"#utility.yul\":10013:10017   */\n      0x00\n        /* \"#utility.yul\":10051:10053   */\n      0x20\n        /* \"#utility.yul\":10040:10049   */\n      dup3\n        /* \"#utility.yul\":10036:10054   */\n      add\n        /* \"#utility.yul\":10028:10054   */\n      swap1\n      pop\n        /* \"#utility.yul\":10100:10109   */\n      dup2\n        /* \"#utility.yul\":10094:10098   */\n      dup2\n        /* \"#utility.yul\":10090:10110   */\n      sub\n        /* \"#utility.yul\":10086:10087   */\n      0x00\n        /* \"#utility.yul\":10075:10084   */\n      dup4\n        /* \"#utility.yul\":10071:10088   */\n      add\n        /* \"#utility.yul\":10064:10111   */\n      mstore\n        /* \"#utility.yul\":10128:10259   */\n      tag_240\n        /* \"#utility.yul\":10254:10258   */\n      dup2\n        /* \"#utility.yul\":10128:10259   */\n      tag_125\n      jump\t// in\n    tag_240:\n        /* \"#utility.yul\":10120:10259   */\n      swap1\n      pop\n        /* \"#utility.yul\":9847:10266   */\n      swap2\n      swap1\n      pop\n      jump\t// out\n        /* \"#utility.yul\":10272:10466   */\n    tag_70:\n        /* \"#utility.yul\":10312:10316   */\n      0x00\n        /* \"#utility.yul\":10332:10352   */\n      tag_242\n        /* \"#utility.yul\":10350:10351   */\n      dup3\n        /* \"#utility.yul\":10332:10352   */\n      tag_103\n      jump\t// in\n    tag_242:\n        /* \"#utility.yul\":10327:10352   */\n      swap2\n      pop\n        /* \"#utility.yul\":10366:10386   */\n      tag_243\n        /* \"#utility.yul\":10384:10385   */\n      dup4\n        /* \"#utility.yul\":10366:10386   */\n      tag_103\n      jump\t// in\n    tag_243:\n        /* \"#utility.yul\":10361:10386   */\n      swap3\n      pop\n        /* \"#utility.yul\":10410:10411   */\n      dup3\n        /* \"#utility.yul\":10407:10408   */\n      dup3\n        /* \"#utility.yul\":10403:10412   */\n      sub\n        /* \"#utility.yul\":10395:10412   */\n      swap1\n      pop\n        /* \"#utility.yul\":10434:10435   */\n      dup2\n        /* \"#utility.yul\":10428:10432   */\n      dup2\n        /* \"#utility.yul\":10425:10436   */\n      gt\n        /* \"#utility.yul\":10422:10459   */\n      iszero\n      tag_244\n      jumpi\n        /* \"#utility.yul\":10439:10457   */\n      tag_245\n      tag_120\n      jump\t// in\n    tag_245:\n        /* \"#utility.yul\":10422:10459   */\n    tag_244:\n        /* \"#utility.yul\":10272:10466   */\n      swap3\n      swap2\n      pop\n      pop\n      jump\t// out\n        /* \"#utility.yul\":10472:10663   */\n    tag_85:\n        /* \"#utility.yul\":10512:10515   */\n      0x00\n        /* \"#utility.yul\":10531:10551   */\n      tag_247\n        /* \"#utility.yul\":10549:10550   */\n      dup3\n        /* \"#utility.yul\":10531:10551   */\n      tag_103\n      jump\t// in\n    tag_247:\n        /* \"#utility.yul\":10526:10551   */\n      swap2\n      pop\n        /* \"#utility.yul\":10565:10585   */\n      tag_248\n        /* \"#utility.yul\":10583:10584   */\n      dup4\n        /* \"#utility.yul\":10565:10585   */\n      tag_103\n      jump\t// in\n    tag_248:\n        /* \"#utility.yul\":10560:10585   */\n      swap3\n      pop\n        /* \"#utility.yul\":10608:10609   */\n      dup3\n        /* \"#utility.yul\":10605:10606   */\n      dup3\n        /* \"#utility.yul\":10601:10610   */\n      add\n        /* \"#utility.yul\":10594:10610   */\n      swap1\n      pop\n        /* \"#utility.yul\":10629:10632   */\n      dup1\n        /* \"#utility.yul\":10626:10627   */\n      dup3\n        /* \"#utility.yul\":10623:10633   */\n      gt\n        /* \"#utility.yul\":10620:10656   */\n      iszero\n      tag_249\n      jumpi\n        /* \"#utility.yul\":10636:10654   */\n      tag_250\n      tag_120\n      jump\t// in\n    tag_250:\n        /* \"#utility.yul\":10620:10656   */\n    tag_249:\n        /* \"#utility.yul\":10472:10663   */\n      swap3\n      swap2\n      pop\n      pop\n      jump\t// out\n        /* \"#utility.yul\":10669:10839   */\n    tag_126:\n        /* \"#utility.yul\":10809:10831   */\n      0x496e73756666696369656e742062616c616e6365000000000000000000000000\n        /* \"#utility.yul\":10805:10806   */\n      0x00\n        /* \"#utility.yul\":10797:10803   */\n      dup3\n        /* \"#utility.yul\":10793:10807   */\n      add\n        /* \"#utility.yul\":10786:10832   */\n      mstore\n        /* \"#utility.yul\":10669:10839   */\n      pop\n      jump\t// out\n        /* \"#utility.yul\":10845:11211   */\n    tag_127:\n        /* \"#utility.yul\":10987:10990   */\n      0x00\n        /* \"#utility.yul\":11008:11075   */\n      tag_253\n        /* \"#utility.yul\":11072:11074   */\n      0x14\n        /* \"#utility.yul\":11067:11070   */\n      dup4\n        /* \"#utility.yul\":11008:11075   */\n      tag_99\n      jump\t// in\n    tag_253:\n        /* \"#utility.yul\":11001:11075   */\n      swap2\n      pop\n        /* \"#utility.yul\":11084:11177   */\n      tag_254\n        /* \"#utility.yul\":11173:11176   */\n      dup3\n        /* \"#utility.yul\":11084:11177   */\n      tag_126\n      jump\t// in\n    tag_254:\n        /* \"#utility.yul\":11202:11204   */\n      0x20\n        /* \"#utility.yul\":11197:11200   */\n      dup3\n        /* \"#utility.yul\":11193:11205   */\n      add\n        /* \"#utility.yul\":11186:11205   */\n      swap1\n      pop\n        /* \"#utility.yul\":10845:11211   */\n      swap2\n      swap1\n      pop\n      jump\t// out\n        /* \"#utility.yul\":11217:11636   */\n    tag_91:\n        /* \"#utility.yul\":11383:11387   */\n      0x00\n        /* \"#utility.yul\":11421:11423   */\n      0x20\n        /* \"#utility.yul\":11410:11419   */\n      dup3\n        /* \"#utility.yul\":11406:11424   */\n      add\n        /* \"#utility.yul\":11398:11424   */\n      swap1\n      pop\n        /* \"#utility.yul\":11470:11479   */\n      dup2\n        /* \"#utility.yul\":11464:11468   */\n      dup2\n        /* \"#utility.yul\":11460:11480   */\n      sub\n        /* \"#utility.yul\":11456:11457   */\n      0x00\n        /* \"#utility.yul\":11445:11454   */\n      dup4\n        /* \"#utility.yul\":11441:11458   */\n      add\n        /* \"#utility.yul\":11434:11481   */\n      mstore\n        /* \"#utility.yul\":11498:11629   */\n      tag_256\n        /* \"#utility.yul\":11624:11628   */\n      dup2\n        /* \"#utility.yul\":11498:11629   */\n      tag_127\n      jump\t// in\n    tag_256:\n        /* \"#utility.yul\":11490:11629   */\n      swap1\n      pop\n        /* \"#utility.yul\":11217:11636   */\n      swap2\n      swap1\n      pop\n      jump\t// out\n        /* \"#utility.yul\":11642:11807   */\n    tag_128:\n        /* \"#utility.yul\":11782:11799   */\n      0x496e76616c696420616464726573730000000000000000000000000000000000\n        /* \"#utility.yul\":11778:11779   */\n      0x00\n        /* \"#utility.yul\":11770:11776   */\n      dup3\n        /* \"#utility.yul\":11766:11780   */\n      add\n        /* \"#utility.yul\":11759:11800   */\n      mstore\n        /* \"#utility.yul\":11642:11807   */\n      pop\n      jump\t// out\n        /* \"#utility.yul\":11813:12179   */\n    tag_129:\n        /* \"#utility.yul\":11955:11958   */\n      0x00\n        /* \"#utility.yul\":11976:12043   */\n      tag_259\n        /* \"#utility.yul\":12040:12042   */\n      0x0f\n        /* \"#utility.yul\":12035:12038   */\n      dup4\n        /* \"#utility.yul\":11976:12043   */\n      tag_99\n      jump\t// in\n    tag_259:\n        /* \"#utility.yul\":11969:12043   */\n      swap2\n      pop\n        /* \"#utility.yul\":12052:12145   */\n      tag_260\n        /* \"#utility.yul\":12141:12144   */\n      dup3\n        /* \"#utility.yul\":12052:12145   */\n      tag_128\n      jump\t// in\n    tag_260:\n        /* \"#utility.yul\":12170:12172   */\n      0x20\n        /* \"#utility.yul\":12165:12168   */\n      dup3\n        /* \"#utility.yul\":12161:12173   */\n      add\n        /* \"#utility.yul\":12154:12173   */\n      swap1\n      pop\n        /* \"#utility.yul\":11813:12179   */\n      swap2\n      swap1\n      pop\n      jump\t// out\n        /* \"#utility.yul\":12185:12604   */\n    tag_94:\n        /* \"#utility.yul\":12351:12355   */\n      0x00\n        /* \"#utility.yul\":12389:12391   */\n      0x20\n        /* \"#utility.yul\":12378:12387   */\n      dup3\n        /* \"#utility.yul\":12374:12392   */\n      add\n        /* \"#utility.yul\":12366:12392   */\n      swap1\n      pop\n        /* \"#utility.yul\":12438:12447   */\n      dup2\n        /* \"#utility.yul\":12432:12436   */\n      dup2\n        /* \"#utility.yul\":12428:12448   */\n      sub\n        /* \"#utility.yul\":12424:12425   */\n      0x00\n        /* \"#utility.yul\":12413:12422   */\n      dup4\n        /* \"#utility.yul\":12409:12426   */\n      add\n        /* \"#utility.yul\":12402:12449   */\n      mstore\n        /* \"#utility.yul\":12466:12597   */\n      tag_262\n        /* \"#utility.yul\":12592:12596   */\n      dup2\n        /* \"#utility.yul\":12466:12597   */\n      tag_129\n      jump\t// in\n    tag_262:\n        /* \"#utility.yul\":12458:12597   */\n      swap1\n      pop\n        /* \"#utility.yul\":12185:12604   */\n      swap2\n      swap1\n      pop\n      jump\t// out\n\n    auxdata: 0xa264697066735822122043938d2333997ad1893d8e6816109894c9d079638007cf38922e711bd51768ee64736f6c634300081a0033\n}\n",
				"bytecode": {
					"linkReferences": {},
					"object": "60806040526040518060400160405280600a81526020017f4572696373546f6b656e000000000000000000000000000000000000000000008152506000908161004891906103e0565b506040518060400160405280600381526020017f45544b00000000000000000000000000000000000000000000000000000000008152506001908161008d91906103e0565b50601260025534801561009f57600080fd5b506040516117bc3803806117bc83398181016040528101906100c191906104e3565b33600460006101000a81548173ffffffffffffffffffffffffffffffffffffffff021916908373ffffffffffffffffffffffffffffffffffffffff160217905550600254600a6101119190610672565b8161011c91906106bd565b60038190555060035460056000600460009054906101000a900473ffffffffffffffffffffffffffffffffffffffff1673ffffffffffffffffffffffffffffffffffffffff1673ffffffffffffffffffffffffffffffffffffffff16815260200190815260200160002081905550506106ff565b600081519050919050565b7f4e487b7100000000000000000000000000000000000000000000000000000000600052604160045260246000fd5b7f4e487b7100000000000000000000000000000000000000000000000000000000600052602260045260246000fd5b6000600282049050600182168061021157607f821691505b602082108103610224576102236101ca565b5b50919050565b60008190508160005260206000209050919050565b60006020601f8301049050919050565b600082821b905092915050565b60006008830261028c7fffffffffffffffffffffffffffffffffffffffffffffffffffffffffffffffff8261024f565b610296868361024f565b95508019841693508086168417925050509392505050565b6000819050919050565b6000819050919050565b60006102dd6102d86102d3846102ae565b6102b8565b6102ae565b9050919050565b6000819050919050565b6102f7836102c2565b61030b610303826102e4565b84845461025c565b825550505050565b600090565b610320610313565b61032b8184846102ee565b505050565b5b8181101561034f57610344600082610318565b600181019050610331565b5050565b601f821115610394576103658161022a565b61036e8461023f565b8101602085101561037d578190505b6103916103898561023f565b830182610330565b50505b505050565b600082821c905092915050565b60006103b760001984600802610399565b1980831691505092915050565b60006103d083836103a6565b9150826002028217905092915050565b6103e982610190565b67ffffffffffffffff8111156104025761040161019b565b5b61040c82546101f9565b610417828285610353565b600060209050601f83116001811461044a5760008415610438578287015190505b61044285826103c4565b8655506104aa565b601f1984166104588661022a565b60005b828110156104805784890151825560018201915060208501945060208101905061045b565b8683101561049d5784890151610499601f8916826103a6565b8355505b6001600288020188555050505b505050505050565b600080fd5b6104c0816102ae565b81146104cb57600080fd5b50565b6000815190506104dd816104b7565b92915050565b6000602082840312156104f9576104f86104b2565b5b6000610507848285016104ce565b91505092915050565b7f4e487b7100000000000000000000000000000000000000000000000000000000600052601160045260246000fd5b60008160011c9050919050565b6000808291508390505b60018511156105965780860481111561057257610571610510565b5b60018516156105815780820291505b808102905061058f8561053f565b9450610556565b94509492505050565b6000826105af576001905061066b565b816105bd576000905061066b565b81600181146105d357600281146105dd5761060c565b600191505061066b565b60ff8411156105ef576105ee610510565b5b8360020a91508482111561060657610605610510565b5b5061066b565b5060208310610133831016604e8410600b84101617156106415782820a90508381111561063c5761063b610510565b5b61066b565b61064e848484600161054c565b9250905081840481111561066557610664610510565b5b81810290505b9392505050565b600061067d826102ae565b9150610688836102ae565b92506106b57fffffffffffffffffffffffffffffffffffffffffffffffffffffffffffffffff848461059f565b905092915050565b60006106c8826102ae565b91506106d3836102ae565b92508282026106e1816102ae565b915082820484148315176106f8576106f7610510565b5b5092915050565b6110ae8061070e6000396000f3fe608060405234801561001057600080fd5b50600436106100935760003560e01c806370a082311161006657806370a08231146101225780638da5cb5b1461015257806395d89b4114610170578063a0712d681461018e578063a9059cbb146101be57610093565b806306fdde031461009857806318160ddd146100b6578063313ce567146100d457806342966c68146100f2575b600080fd5b6100a06101ee565b6040516100ad9190610a0c565b60405180910390f35b6100be61027c565b6040516100cb9190610a47565b60405180910390f35b6100dc610282565b6040516100e99190610a47565b60405180910390f35b61010c60048036038101906101079190610a93565b610288565b6040516101199190610adb565b60405180910390f35b61013c60048036038101906101379190610b54565b6104e7565b6040516101499190610a47565b60405180910390f35b61015a6104ff565b6040516101679190610b90565b60405180910390f35b610178610525565b6040516101859190610a0c565b60405180910390f35b6101a860048036038101906101a39190610a93565b6105b3565b6040516101b59190610adb565b60405180910390f35b6101d860048036038101906101d39190610bab565b61076e565b6040516101e59190610adb565b60405180910390f35b600080546101fb90610c1a565b80601f016020809104026020016040519081016040528092919081815260200182805461022790610c1a565b80156102745780601f1061024957610100808354040283529160200191610274565b820191906000526020600020905b81548152906001019060200180831161025757829003601f168201915b505050505081565b60035481565b60025481565b6000600460009054906101000a900473ffffffffffffffffffffffffffffffffffffffff1673ffffffffffffffffffffffffffffffffffffffff163373ffffffffffffffffffffffffffffffffffffffff161461031a576040517f08c379a000000000000000000000000000000000000000000000000000000000815260040161031190610cbd565b60405180910390fd5b6000600254600a61032b9190610e3f565b836103369190610e8a565b90508060056000600460009054906101000a900473ffffffffffffffffffffffffffffffffffffffff1673ffffffffffffffffffffffffffffffffffffffff1673ffffffffffffffffffffffffffffffffffffffff1681526020019081526020016000205410156103dc576040517f08c379a00000000000000000000000000000000000000000000000000000000081526004016103d390610f18565b60405180910390fd5b80600360008282546103ee9190610f38565b925050819055508060056000600460009054906101000a900473ffffffffffffffffffffffffffffffffffffffff1673ffffffffffffffffffffffffffffffffffffffff1673ffffffffffffffffffffffffffffffffffffffff16815260200190815260200160002060008282546104669190610f38565b92505081905550600460009054906101000a900473ffffffffffffffffffffffffffffffffffffffff1673ffffffffffffffffffffffffffffffffffffffff167fcc16f5dbb4873280815c1ee09dbd06736cffcc184412cf7a71a0fdb75d397ca5826040516104d59190610a47565b60405180910390a26001915050919050565b60056020528060005260406000206000915090505481565b600460009054906101000a900473ffffffffffffffffffffffffffffffffffffffff1681565b6001805461053290610c1a565b80601f016020809104026020016040519081016040528092919081815260200182805461055e90610c1a565b80156105ab5780601f10610580576101008083540402835291602001916105ab565b820191906000526020600020905b81548152906001019060200180831161058e57829003601f168201915b505050505081565b6000600460009054906101000a900473ffffffffffffffffffffffffffffffffffffffff1673ffffffffffffffffffffffffffffffffffffffff163373ffffffffffffffffffffffffffffffffffffffff1614610645576040517f08c379a000000000000000000000000000000000000000000000000000000000815260040161063c90610cbd565b60405180910390fd5b6000600254600a6106569190610e3f565b836106619190610e8a565b905080600360008282546106759190610f6c565b925050819055508060056000600460009054906101000a900473ffffffffffffffffffffffffffffffffffffffff1673ffffffffffffffffffffffffffffffffffffffff1673ffffffffffffffffffffffffffffffffffffffff16815260200190815260200160002060008282546106ed9190610f6c565b92505081905550600460009054906101000a900473ffffffffffffffffffffffffffffffffffffffff1673ffffffffffffffffffffffffffffffffffffffff167f0f6798a560793a54c3bcfe86a93cde1e73087d944c0ea20544137d41213968858260405161075c9190610a47565b60405180910390a26001915050919050565b600081600560003373ffffffffffffffffffffffffffffffffffffffff1673ffffffffffffffffffffffffffffffffffffffff1681526020019081526020016000205410156107f2576040517f08c379a00000000000000000000000000000000000000000000000000000000081526004016107e990610fec565b60405180910390fd5b600073ffffffffffffffffffffffffffffffffffffffff168373ffffffffffffffffffffffffffffffffffffffff1603610861576040517f08c379a000000000000000000000000000000000000000000000000000000000815260040161085890611058565b60405180910390fd5b81600560003373ffffffffffffffffffffffffffffffffffffffff1673ffffffffffffffffffffffffffffffffffffffff16815260200190815260200160002060008282546108b09190610f38565b9250508190555081600560008573ffffffffffffffffffffffffffffffffffffffff1673ffffffffffffffffffffffffffffffffffffffff16815260200190815260200160002060008282546109069190610f6c565b925050819055508273ffffffffffffffffffffffffffffffffffffffff163373ffffffffffffffffffffffffffffffffffffffff167fddf252ad1be2c89b69c2b068fc378daa952ba7f163c4a11628f55a4df523b3ef8460405161096a9190610a47565b60405180910390a36001905092915050565b600081519050919050565b600082825260208201905092915050565b60005b838110156109b657808201518184015260208101905061099b565b60008484015250505050565b6000601f19601f8301169050919050565b60006109de8261097c565b6109e88185610987565b93506109f8818560208601610998565b610a01816109c2565b840191505092915050565b60006020820190508181036000830152610a2681846109d3565b905092915050565b6000819050919050565b610a4181610a2e565b82525050565b6000602082019050610a5c6000830184610a38565b92915050565b600080fd5b610a7081610a2e565b8114610a7b57600080fd5b50565b600081359050610a8d81610a67565b92915050565b600060208284031215610aa957610aa8610a62565b5b6000610ab784828501610a7e565b91505092915050565b60008115159050919050565b610ad581610ac0565b82525050565b6000602082019050610af06000830184610acc565b92915050565b600073ffffffffffffffffffffffffffffffffffffffff82169050919050565b6000610b2182610af6565b9050919050565b610b3181610b16565b8114610b3c57600080fd5b50565b600081359050610b4e81610b28565b92915050565b600060208284031215610b6a57610b69610a62565b5b6000610b7884828501610b3f565b91505092915050565b610b8a81610b16565b82525050565b6000602082019050610ba56000830184610b81565b92915050565b60008060408385031215610bc257610bc1610a62565b5b6000610bd085828601610b3f565b9250506020610be185828601610a7e565b9150509250929050565b7f4e487b7100000000000000000000000000000000000000000000000000000000600052602260045260246000fd5b60006002820490506001821680610c3257607f821691505b602082108103610c4557610c44610beb565b5b50919050565b7f4f6e6c79206f776e65722063616e2063616c6c20746869732066756e6374696f60008201527f6e00000000000000000000000000000000000000000000000000000000000000602082015250565b6000610ca7602183610987565b9150610cb282610c4b565b604082019050919050565b60006020820190508181036000830152610cd681610c9a565b9050919050565b7f4e487b7100000000000000000000000000000000000000000000000000000000600052601160045260246000fd5b60008160011c9050919050565b6000808291508390505b6001851115610d6357808604811115610d3f57610d3e610cdd565b5b6001851615610d4e5780820291505b8081029050610d5c85610d0c565b9450610d23565b94509492505050565b600082610d7c5760019050610e38565b81610d8a5760009050610e38565b8160018114610da05760028114610daa57610dd9565b6001915050610e38565b60ff841115610dbc57610dbb610cdd565b5b8360020a915084821115610dd357610dd2610cdd565b5b50610e38565b5060208310610133831016604e8410600b8410161715610e0e5782820a905083811115610e0957610e08610cdd565b5b610e38565b610e1b8484846001610d19565b92509050818404811115610e3257610e31610cdd565b5b81810290505b9392505050565b6000610e4a82610a2e565b9150610e5583610a2e565b9250610e827fffffffffffffffffffffffffffffffffffffffffffffffffffffffffffffffff8484610d6c565b905092915050565b6000610e9582610a2e565b9150610ea083610a2e565b9250828202610eae81610a2e565b91508282048414831517610ec557610ec4610cdd565b5b5092915050565b7f496e73756666696369656e742062616c616e636520746f206275726e00000000600082015250565b6000610f02601c83610987565b9150610f0d82610ecc565b602082019050919050565b60006020820190508181036000830152610f3181610ef5565b9050919050565b6000610f4382610a2e565b9150610f4e83610a2e565b9250828203905081811115610f6657610f65610cdd565b5b92915050565b6000610f7782610a2e565b9150610f8283610a2e565b9250828201905080821115610f9a57610f99610cdd565b5b92915050565b7f496e73756666696369656e742062616c616e6365000000000000000000000000600082015250565b6000610fd6601483610987565b9150610fe182610fa0565b602082019050919050565b6000602082019050818103600083015261100581610fc9565b9050919050565b7f496e76616c696420616464726573730000000000000000000000000000000000600082015250565b6000611042600f83610987565b915061104d8261100c565b602082019050919050565b6000602082019050818103600083015261107181611035565b905091905056fea264697066735822122043938d2333997ad1893d8e6816109894c9d079638007cf38922e711bd51768ee64736f6c634300081a0033",
					"opcodes": "PUSH1 0x80 PUSH1 0x40 MSTORE PUSH1 0x40 MLOAD DUP1 PUSH1 0x40 ADD PUSH1 0x40 MSTORE DUP1 PUSH1 0xA DUP2 MSTORE PUSH1 0x20 ADD PUSH32 0x4572696373546F6B656E00000000000000000000000000000000000000000000 DUP2 MSTORE POP PUSH1 0x0 SWAP1 DUP2 PUSH2 0x48 SWAP2 SWAP1 PUSH2 0x3E0 JUMP JUMPDEST POP PUSH1 0x40 MLOAD DUP1 PUSH1 0x40 ADD PUSH1 0x40 MSTORE DUP1 PUSH1 0x3 DUP2 MSTORE PUSH1 0x20 ADD PUSH32 0x45544B0000000000000000000000000000000000000000000000000000000000 DUP2 MSTORE POP PUSH1 0x1 SWAP1 DUP2 PUSH2 0x8D SWAP2 SWAP1 PUSH2 0x3E0 JUMP JUMPDEST POP PUSH1 0x12 PUSH1 0x2 SSTORE CALLVALUE DUP1 ISZERO PUSH2 0x9F JUMPI PUSH1 0x0 DUP1 REVERT JUMPDEST POP PUSH1 0x40 MLOAD PUSH2 0x17BC CODESIZE SUB DUP1 PUSH2 0x17BC DUP4 CODECOPY DUP2 DUP2 ADD PUSH1 0x40 MSTORE DUP2 ADD SWAP1 PUSH2 0xC1 SWAP2 SWAP1 PUSH2 0x4E3 JUMP JUMPDEST CALLER PUSH1 0x4 PUSH1 0x0 PUSH2 0x100 EXP DUP2 SLOAD DUP2 PUSH20 0xFFFFFFFFFFFFFFFFFFFFFFFFFFFFFFFFFFFFFFFF MUL NOT AND SWAP1 DUP4 PUSH20 0xFFFFFFFFFFFFFFFFFFFFFFFFFFFFFFFFFFFFFFFF AND MUL OR SWAP1 SSTORE POP PUSH1 0x2 SLOAD PUSH1 0xA PUSH2 0x111 SWAP2 SWAP1 PUSH2 0x672 JUMP JUMPDEST DUP2 PUSH2 0x11C SWAP2 SWAP1 PUSH2 0x6BD JUMP JUMPDEST PUSH1 0x3 DUP2 SWAP1 SSTORE POP PUSH1 0x3 SLOAD PUSH1 0x5 PUSH1 0x0 PUSH1 0x4 PUSH1 0x0 SWAP1 SLOAD SWAP1 PUSH2 0x100 EXP SWAP1 DIV PUSH20 0xFFFFFFFFFFFFFFFFFFFFFFFFFFFFFFFFFFFFFFFF AND PUSH20 0xFFFFFFFFFFFFFFFFFFFFFFFFFFFFFFFFFFFFFFFF AND PUSH20 0xFFFFFFFFFFFFFFFFFFFFFFFFFFFFFFFFFFFFFFFF AND DUP2 MSTORE PUSH1 0x20 ADD SWAP1 DUP2 MSTORE PUSH1 0x20 ADD PUSH1 0x0 KECCAK256 DUP2 SWAP1 SSTORE POP POP PUSH2 0x6FF JUMP JUMPDEST PUSH1 0x0 DUP2 MLOAD SWAP1 POP SWAP2 SWAP1 POP JUMP JUMPDEST PUSH32 0x4E487B7100000000000000000000000000000000000000000000000000000000 PUSH1 0x0 MSTORE PUSH1 0x41 PUSH1 0x4 MSTORE PUSH1 0x24 PUSH1 0x0 REVERT JUMPDEST PUSH32 0x4E487B7100000000000000000000000000000000000000000000000000000000 PUSH1 0x0 MSTORE PUSH1 0x22 PUSH1 0x4 MSTORE PUSH1 0x24 PUSH1 0x0 REVERT JUMPDEST PUSH1 0x0 PUSH1 0x2 DUP3 DIV SWAP1 POP PUSH1 0x1 DUP3 AND DUP1 PUSH2 0x211 JUMPI PUSH1 0x7F DUP3 AND SWAP2 POP JUMPDEST PUSH1 0x20 DUP3 LT DUP2 SUB PUSH2 0x224 JUMPI PUSH2 0x223 PUSH2 0x1CA JUMP JUMPDEST JUMPDEST POP SWAP2 SWAP1 POP JUMP JUMPDEST PUSH1 0x0 DUP2 SWAP1 POP DUP2 PUSH1 0x0 MSTORE PUSH1 0x20 PUSH1 0x0 KECCAK256 SWAP1 POP SWAP2 SWAP1 POP JUMP JUMPDEST PUSH1 0x0 PUSH1 0x20 PUSH1 0x1F DUP4 ADD DIV SWAP1 POP SWAP2 SWAP1 POP JUMP JUMPDEST PUSH1 0x0 DUP3 DUP3 SHL SWAP1 POP SWAP3 SWAP2 POP POP JUMP JUMPDEST PUSH1 0x0 PUSH1 0x8 DUP4 MUL PUSH2 0x28C PUSH32 0xFFFFFFFFFFFFFFFFFFFFFFFFFFFFFFFFFFFFFFFFFFFFFFFFFFFFFFFFFFFFFFFF DUP3 PUSH2 0x24F JUMP JUMPDEST PUSH2 0x296 DUP7 DUP4 PUSH2 0x24F JUMP JUMPDEST SWAP6 POP DUP1 NOT DUP5 AND SWAP4 POP DUP1 DUP7 AND DUP5 OR SWAP3 POP POP POP SWAP4 SWAP3 POP POP POP JUMP JUMPDEST PUSH1 0x0 DUP2 SWAP1 POP SWAP2 SWAP1 POP JUMP JUMPDEST PUSH1 0x0 DUP2 SWAP1 POP SWAP2 SWAP1 POP JUMP JUMPDEST PUSH1 0x0 PUSH2 0x2DD PUSH2 0x2D8 PUSH2 0x2D3 DUP5 PUSH2 0x2AE JUMP JUMPDEST PUSH2 0x2B8 JUMP JUMPDEST PUSH2 0x2AE JUMP JUMPDEST SWAP1 POP SWAP2 SWAP1 POP JUMP JUMPDEST PUSH1 0x0 DUP2 SWAP1 POP SWAP2 SWAP1 POP JUMP JUMPDEST PUSH2 0x2F7 DUP4 PUSH2 0x2C2 JUMP JUMPDEST PUSH2 0x30B PUSH2 0x303 DUP3 PUSH2 0x2E4 JUMP JUMPDEST DUP5 DUP5 SLOAD PUSH2 0x25C JUMP JUMPDEST DUP3 SSTORE POP POP POP POP JUMP JUMPDEST PUSH1 0x0 SWAP1 JUMP JUMPDEST PUSH2 0x320 PUSH2 0x313 JUMP JUMPDEST PUSH2 0x32B DUP2 DUP5 DUP5 PUSH2 0x2EE JUMP JUMPDEST POP POP POP JUMP JUMPDEST JUMPDEST DUP2 DUP2 LT ISZERO PUSH2 0x34F JUMPI PUSH2 0x344 PUSH1 0x0 DUP3 PUSH2 0x318 JUMP JUMPDEST PUSH1 0x1 DUP2 ADD SWAP1 POP PUSH2 0x331 JUMP JUMPDEST POP POP JUMP JUMPDEST PUSH1 0x1F DUP3 GT ISZERO PUSH2 0x394 JUMPI PUSH2 0x365 DUP2 PUSH2 0x22A JUMP JUMPDEST PUSH2 0x36E DUP5 PUSH2 0x23F JUMP JUMPDEST DUP2 ADD PUSH1 0x20 DUP6 LT ISZERO PUSH2 0x37D JUMPI DUP2 SWAP1 POP JUMPDEST PUSH2 0x391 PUSH2 0x389 DUP6 PUSH2 0x23F JUMP JUMPDEST DUP4 ADD DUP3 PUSH2 0x330 JUMP JUMPDEST POP POP JUMPDEST POP POP POP JUMP JUMPDEST PUSH1 0x0 DUP3 DUP3 SHR SWAP1 POP SWAP3 SWAP2 POP POP JUMP JUMPDEST PUSH1 0x0 PUSH2 0x3B7 PUSH1 0x0 NOT DUP5 PUSH1 0x8 MUL PUSH2 0x399 JUMP JUMPDEST NOT DUP1 DUP4 AND SWAP2 POP POP SWAP3 SWAP2 POP POP JUMP JUMPDEST PUSH1 0x0 PUSH2 0x3D0 DUP4 DUP4 PUSH2 0x3A6 JUMP JUMPDEST SWAP2 POP DUP3 PUSH1 0x2 MUL DUP3 OR SWAP1 POP SWAP3 SWAP2 POP POP JUMP JUMPDEST PUSH2 0x3E9 DUP3 PUSH2 0x190 JUMP JUMPDEST PUSH8 0xFFFFFFFFFFFFFFFF DUP2 GT ISZERO PUSH2 0x402 JUMPI PUSH2 0x401 PUSH2 0x19B JUMP JUMPDEST JUMPDEST PUSH2 0x40C DUP3 SLOAD PUSH2 0x1F9 JUMP JUMPDEST PUSH2 0x417 DUP3 DUP3 DUP6 PUSH2 0x353 JUMP JUMPDEST PUSH1 0x0 PUSH1 0x20 SWAP1 POP PUSH1 0x1F DUP4 GT PUSH1 0x1 DUP2 EQ PUSH2 0x44A JUMPI PUSH1 0x0 DUP5 ISZERO PUSH2 0x438 JUMPI DUP3 DUP8 ADD MLOAD SWAP1 POP JUMPDEST PUSH2 0x442 DUP6 DUP3 PUSH2 0x3C4 JUMP JUMPDEST DUP7 SSTORE POP PUSH2 0x4AA JUMP JUMPDEST PUSH1 0x1F NOT DUP5 AND PUSH2 0x458 DUP7 PUSH2 0x22A JUMP JUMPDEST PUSH1 0x0 JUMPDEST DUP3 DUP2 LT ISZERO PUSH2 0x480 JUMPI DUP5 DUP10 ADD MLOAD DUP3 SSTORE PUSH1 0x1 DUP3 ADD SWAP2 POP PUSH1 0x20 DUP6 ADD SWAP5 POP PUSH1 0x20 DUP2 ADD SWAP1 POP PUSH2 0x45B JUMP JUMPDEST DUP7 DUP4 LT ISZERO PUSH2 0x49D JUMPI DUP5 DUP10 ADD MLOAD PUSH2 0x499 PUSH1 0x1F DUP10 AND DUP3 PUSH2 0x3A6 JUMP JUMPDEST DUP4 SSTORE POP JUMPDEST PUSH1 0x1 PUSH1 0x2 DUP9 MUL ADD DUP9 SSTORE POP POP POP JUMPDEST POP POP POP POP POP POP JUMP JUMPDEST PUSH1 0x0 DUP1 REVERT JUMPDEST PUSH2 0x4C0 DUP2 PUSH2 0x2AE JUMP JUMPDEST DUP2 EQ PUSH2 0x4CB JUMPI PUSH1 0x0 DUP1 REVERT JUMPDEST POP JUMP JUMPDEST PUSH1 0x0 DUP2 MLOAD SWAP1 POP PUSH2 0x4DD DUP2 PUSH2 0x4B7 JUMP JUMPDEST SWAP3 SWAP2 POP POP JUMP JUMPDEST PUSH1 0x0 PUSH1 0x20 DUP3 DUP5 SUB SLT ISZERO PUSH2 0x4F9 JUMPI PUSH2 0x4F8 PUSH2 0x4B2 JUMP JUMPDEST JUMPDEST PUSH1 0x0 PUSH2 0x507 DUP5 DUP3 DUP6 ADD PUSH2 0x4CE JUMP JUMPDEST SWAP2 POP POP SWAP3 SWAP2 POP POP JUMP JUMPDEST PUSH32 0x4E487B7100000000000000000000000000000000000000000000000000000000 PUSH1 0x0 MSTORE PUSH1 0x11 PUSH1 0x4 MSTORE PUSH1 0x24 PUSH1 0x0 REVERT JUMPDEST PUSH1 0x0 DUP2 PUSH1 0x1 SHR SWAP1 POP SWAP2 SWAP1 POP JUMP JUMPDEST PUSH1 0x0 DUP1 DUP3 SWAP2 POP DUP4 SWAP1 POP JUMPDEST PUSH1 0x1 DUP6 GT ISZERO PUSH2 0x596 JUMPI DUP1 DUP7 DIV DUP2 GT ISZERO PUSH2 0x572 JUMPI PUSH2 0x571 PUSH2 0x510 JUMP JUMPDEST JUMPDEST PUSH1 0x1 DUP6 AND ISZERO PUSH2 0x581 JUMPI DUP1 DUP3 MUL SWAP2 POP JUMPDEST DUP1 DUP2 MUL SWAP1 POP PUSH2 0x58F DUP6 PUSH2 0x53F JUMP JUMPDEST SWAP5 POP PUSH2 0x556 JUMP JUMPDEST SWAP5 POP SWAP5 SWAP3 POP POP POP JUMP JUMPDEST PUSH1 0x0 DUP3 PUSH2 0x5AF JUMPI PUSH1 0x1 SWAP1 POP PUSH2 0x66B JUMP JUMPDEST DUP2 PUSH2 0x5BD JUMPI PUSH1 0x0 SWAP1 POP PUSH2 0x66B JUMP JUMPDEST DUP2 PUSH1 0x1 DUP2 EQ PUSH2 0x5D3 JUMPI PUSH1 0x2 DUP2 EQ PUSH2 0x5DD JUMPI PUSH2 0x60C JUMP JUMPDEST PUSH1 0x1 SWAP2 POP POP PUSH2 0x66B JUMP JUMPDEST PUSH1 0xFF DUP5 GT ISZERO PUSH2 0x5EF JUMPI PUSH2 0x5EE PUSH2 0x510 JUMP JUMPDEST JUMPDEST DUP4 PUSH1 0x2 EXP SWAP2 POP DUP5 DUP3 GT ISZERO PUSH2 0x606 JUMPI PUSH2 0x605 PUSH2 0x510 JUMP JUMPDEST JUMPDEST POP PUSH2 0x66B JUMP JUMPDEST POP PUSH1 0x20 DUP4 LT PUSH2 0x133 DUP4 LT AND PUSH1 0x4E DUP5 LT PUSH1 0xB DUP5 LT AND OR ISZERO PUSH2 0x641 JUMPI DUP3 DUP3 EXP SWAP1 POP DUP4 DUP2 GT ISZERO PUSH2 0x63C JUMPI PUSH2 0x63B PUSH2 0x510 JUMP JUMPDEST JUMPDEST PUSH2 0x66B JUMP JUMPDEST PUSH2 0x64E DUP5 DUP5 DUP5 PUSH1 0x1 PUSH2 0x54C JUMP JUMPDEST SWAP3 POP SWAP1 POP DUP2 DUP5 DIV DUP2 GT ISZERO PUSH2 0x665 JUMPI PUSH2 0x664 PUSH2 0x510 JUMP JUMPDEST JUMPDEST DUP2 DUP2 MUL SWAP1 POP JUMPDEST SWAP4 SWAP3 POP POP POP JUMP JUMPDEST PUSH1 0x0 PUSH2 0x67D DUP3 PUSH2 0x2AE JUMP JUMPDEST SWAP2 POP PUSH2 0x688 DUP4 PUSH2 0x2AE JUMP JUMPDEST SWAP3 POP PUSH2 0x6B5 PUSH32 0xFFFFFFFFFFFFFFFFFFFFFFFFFFFFFFFFFFFFFFFFFFFFFFFFFFFFFFFFFFFFFFFF DUP5 DUP5 PUSH2 0x59F JUMP JUMPDEST SWAP1 POP SWAP3 SWAP2 POP POP JUMP JUMPDEST PUSH1 0x0 PUSH2 0x6C8 DUP3 PUSH2 0x2AE JUMP JUMPDEST SWAP2 POP PUSH2 0x6D3 DUP4 PUSH2 0x2AE JUMP JUMPDEST SWAP3 POP DUP3 DUP3 MUL PUSH2 0x6E1 DUP2 PUSH2 0x2AE JUMP JUMPDEST SWAP2 POP DUP3 DUP3 DIV DUP5 EQ DUP4 ISZERO OR PUSH2 0x6F8 JUMPI PUSH2 0x6F7 PUSH2 0x510 JUMP JUMPDEST JUMPDEST POP SWAP3 SWAP2 POP POP JUMP JUMPDEST PUSH2 0x10AE DUP1 PUSH2 0x70E PUSH1 0x0 CODECOPY PUSH1 0x0 RETURN INVALID PUSH1 0x80 PUSH1 0x40 MSTORE CALLVALUE DUP1 ISZERO PUSH2 0x10 JUMPI PUSH1 0x0 DUP1 REVERT JUMPDEST POP PUSH1 0x4 CALLDATASIZE LT PUSH2 0x93 JUMPI PUSH1 0x0 CALLDATALOAD PUSH1 0xE0 SHR DUP1 PUSH4 0x70A08231 GT PUSH2 0x66 JUMPI DUP1 PUSH4 0x70A08231 EQ PUSH2 0x122 JUMPI DUP1 PUSH4 0x8DA5CB5B EQ PUSH2 0x152 JUMPI DUP1 PUSH4 0x95D89B41 EQ PUSH2 0x170 JUMPI DUP1 PUSH4 0xA0712D68 EQ PUSH2 0x18E JUMPI DUP1 PUSH4 0xA9059CBB EQ PUSH2 0x1BE JUMPI PUSH2 0x93 JUMP JUMPDEST DUP1 PUSH4 0x6FDDE03 EQ PUSH2 0x98 JUMPI DUP1 PUSH4 0x18160DDD EQ PUSH2 0xB6 JUMPI DUP1 PUSH4 0x313CE567 EQ PUSH2 0xD4 JUMPI DUP1 PUSH4 0x42966C68 EQ PUSH2 0xF2 JUMPI JUMPDEST PUSH1 0x0 DUP1 REVERT JUMPDEST PUSH2 0xA0 PUSH2 0x1EE JUMP JUMPDEST PUSH1 0x40 MLOAD PUSH2 0xAD SWAP2 SWAP1 PUSH2 0xA0C JUMP JUMPDEST PUSH1 0x40 MLOAD DUP1 SWAP2 SUB SWAP1 RETURN JUMPDEST PUSH2 0xBE PUSH2 0x27C JUMP JUMPDEST PUSH1 0x40 MLOAD PUSH2 0xCB SWAP2 SWAP1 PUSH2 0xA47 JUMP JUMPDEST PUSH1 0x40 MLOAD DUP1 SWAP2 SUB SWAP1 RETURN JUMPDEST PUSH2 0xDC PUSH2 0x282 JUMP JUMPDEST PUSH1 0x40 MLOAD PUSH2 0xE9 SWAP2 SWAP1 PUSH2 0xA47 JUMP JUMPDEST PUSH1 0x40 MLOAD DUP1 SWAP2 SUB SWAP1 RETURN JUMPDEST PUSH2 0x10C PUSH1 0x4 DUP1 CALLDATASIZE SUB DUP2 ADD SWAP1 PUSH2 0x107 SWAP2 SWAP1 PUSH2 0xA93 JUMP JUMPDEST PUSH2 0x288 JUMP JUMPDEST PUSH1 0x40 MLOAD PUSH2 0x119 SWAP2 SWAP1 PUSH2 0xADB JUMP JUMPDEST PUSH1 0x40 MLOAD DUP1 SWAP2 SUB SWAP1 RETURN JUMPDEST PUSH2 0x13C PUSH1 0x4 DUP1 CALLDATASIZE SUB DUP2 ADD SWAP1 PUSH2 0x137 SWAP2 SWAP1 PUSH2 0xB54 JUMP JUMPDEST PUSH2 0x4E7 JUMP JUMPDEST PUSH1 0x40 MLOAD PUSH2 0x149 SWAP2 SWAP1 PUSH2 0xA47 JUMP JUMPDEST PUSH1 0x40 MLOAD DUP1 SWAP2 SUB SWAP1 RETURN JUMPDEST PUSH2 0x15A PUSH2 0x4FF JUMP JUMPDEST PUSH1 0x40 MLOAD PUSH2 0x167 SWAP2 SWAP1 PUSH2 0xB90 JUMP JUMPDEST PUSH1 0x40 MLOAD DUP1 SWAP2 SUB SWAP1 RETURN JUMPDEST PUSH2 0x178 PUSH2 0x525 JUMP JUMPDEST PUSH1 0x40 MLOAD PUSH2 0x185 SWAP2 SWAP1 PUSH2 0xA0C JUMP JUMPDEST PUSH1 0x40 MLOAD DUP1 SWAP2 SUB SWAP1 RETURN JUMPDEST PUSH2 0x1A8 PUSH1 0x4 DUP1 CALLDATASIZE SUB DUP2 ADD SWAP1 PUSH2 0x1A3 SWAP2 SWAP1 PUSH2 0xA93 JUMP JUMPDEST PUSH2 0x5B3 JUMP JUMPDEST PUSH1 0x40 MLOAD PUSH2 0x1B5 SWAP2 SWAP1 PUSH2 0xADB JUMP JUMPDEST PUSH1 0x40 MLOAD DUP1 SWAP2 SUB SWAP1 RETURN JUMPDEST PUSH2 0x1D8 PUSH1 0x4 DUP1 CALLDATASIZE SUB DUP2 ADD SWAP1 PUSH2 0x1D3 SWAP2 SWAP1 PUSH2 0xBAB JUMP JUMPDEST PUSH2 0x76E JUMP JUMPDEST PUSH1 0x40 MLOAD PUSH2 0x1E5 SWAP2 SWAP1 PUSH2 0xADB JUMP JUMPDEST PUSH1 0x40 MLOAD DUP1 SWAP2 SUB SWAP1 RETURN JUMPDEST PUSH1 0x0 DUP1 SLOAD PUSH2 0x1FB SWAP1 PUSH2 0xC1A JUMP JUMPDEST DUP1 PUSH1 0x1F ADD PUSH1 0x20 DUP1 SWAP2 DIV MUL PUSH1 0x20 ADD PUSH1 0x40 MLOAD SWAP1 DUP2 ADD PUSH1 0x40 MSTORE DUP1 SWAP3 SWAP2 SWAP1 DUP2 DUP2 MSTORE PUSH1 0x20 ADD DUP3 DUP1 SLOAD PUSH2 0x227 SWAP1 PUSH2 0xC1A JUMP JUMPDEST DUP1 ISZERO PUSH2 0x274 JUMPI DUP1 PUSH1 0x1F LT PUSH2 0x249 JUMPI PUSH2 0x100 DUP1 DUP4 SLOAD DIV MUL DUP4 MSTORE SWAP2 PUSH1 0x20 ADD SWAP2 PUSH2 0x274 JUMP JUMPDEST DUP3 ADD SWAP2 SWAP1 PUSH1 0x0 MSTORE PUSH1 0x20 PUSH1 0x0 KECCAK256 SWAP1 JUMPDEST DUP2 SLOAD DUP2 MSTORE SWAP1 PUSH1 0x1 ADD SWAP1 PUSH1 0x20 ADD DUP1 DUP4 GT PUSH2 0x257 JUMPI DUP3 SWAP1 SUB PUSH1 0x1F AND DUP3 ADD SWAP2 JUMPDEST POP POP POP POP POP DUP2 JUMP JUMPDEST PUSH1 0x3 SLOAD DUP2 JUMP JUMPDEST PUSH1 0x2 SLOAD DUP2 JUMP JUMPDEST PUSH1 0x0 PUSH1 0x4 PUSH1 0x0 SWAP1 SLOAD SWAP1 PUSH2 0x100 EXP SWAP1 DIV PUSH20 0xFFFFFFFFFFFFFFFFFFFFFFFFFFFFFFFFFFFFFFFF AND PUSH20 0xFFFFFFFFFFFFFFFFFFFFFFFFFFFFFFFFFFFFFFFF AND CALLER PUSH20 0xFFFFFFFFFFFFFFFFFFFFFFFFFFFFFFFFFFFFFFFF AND EQ PUSH2 0x31A JUMPI PUSH1 0x40 MLOAD PUSH32 0x8C379A000000000000000000000000000000000000000000000000000000000 DUP2 MSTORE PUSH1 0x4 ADD PUSH2 0x311 SWAP1 PUSH2 0xCBD JUMP JUMPDEST PUSH1 0x40 MLOAD DUP1 SWAP2 SUB SWAP1 REVERT JUMPDEST PUSH1 0x0 PUSH1 0x2 SLOAD PUSH1 0xA PUSH2 0x32B SWAP2 SWAP1 PUSH2 0xE3F JUMP JUMPDEST DUP4 PUSH2 0x336 SWAP2 SWAP1 PUSH2 0xE8A JUMP JUMPDEST SWAP1 POP DUP1 PUSH1 0x5 PUSH1 0x0 PUSH1 0x4 PUSH1 0x0 SWAP1 SLOAD SWAP1 PUSH2 0x100 EXP SWAP1 DIV PUSH20 0xFFFFFFFFFFFFFFFFFFFFFFFFFFFFFFFFFFFFFFFF AND PUSH20 0xFFFFFFFFFFFFFFFFFFFFFFFFFFFFFFFFFFFFFFFF AND PUSH20 0xFFFFFFFFFFFFFFFFFFFFFFFFFFFFFFFFFFFFFFFF AND DUP2 MSTORE PUSH1 0x20 ADD SWAP1 DUP2 MSTORE PUSH1 0x20 ADD PUSH1 0x0 KECCAK256 SLOAD LT ISZERO PUSH2 0x3DC JUMPI PUSH1 0x40 MLOAD PUSH32 0x8C379A000000000000000000000000000000000000000000000000000000000 DUP2 MSTORE PUSH1 0x4 ADD PUSH2 0x3D3 SWAP1 PUSH2 0xF18 JUMP JUMPDEST PUSH1 0x40 MLOAD DUP1 SWAP2 SUB SWAP1 REVERT JUMPDEST DUP1 PUSH1 0x3 PUSH1 0x0 DUP3 DUP3 SLOAD PUSH2 0x3EE SWAP2 SWAP1 PUSH2 0xF38 JUMP JUMPDEST SWAP3 POP POP DUP2 SWAP1 SSTORE POP DUP1 PUSH1 0x5 PUSH1 0x0 PUSH1 0x4 PUSH1 0x0 SWAP1 SLOAD SWAP1 PUSH2 0x100 EXP SWAP1 DIV PUSH20 0xFFFFFFFFFFFFFFFFFFFFFFFFFFFFFFFFFFFFFFFF AND PUSH20 0xFFFFFFFFFFFFFFFFFFFFFFFFFFFFFFFFFFFFFFFF AND PUSH20 0xFFFFFFFFFFFFFFFFFFFFFFFFFFFFFFFFFFFFFFFF AND DUP2 MSTORE PUSH1 0x20 ADD SWAP1 DUP2 MSTORE PUSH1 0x20 ADD PUSH1 0x0 KECCAK256 PUSH1 0x0 DUP3 DUP3 SLOAD PUSH2 0x466 SWAP2 SWAP1 PUSH2 0xF38 JUMP JUMPDEST SWAP3 POP POP DUP2 SWAP1 SSTORE POP PUSH1 0x4 PUSH1 0x0 SWAP1 SLOAD SWAP1 PUSH2 0x100 EXP SWAP1 DIV PUSH20 0xFFFFFFFFFFFFFFFFFFFFFFFFFFFFFFFFFFFFFFFF AND PUSH20 0xFFFFFFFFFFFFFFFFFFFFFFFFFFFFFFFFFFFFFFFF AND PUSH32 0xCC16F5DBB4873280815C1EE09DBD06736CFFCC184412CF7A71A0FDB75D397CA5 DUP3 PUSH1 0x40 MLOAD PUSH2 0x4D5 SWAP2 SWAP1 PUSH2 0xA47 JUMP JUMPDEST PUSH1 0x40 MLOAD DUP1 SWAP2 SUB SWAP1 LOG2 PUSH1 0x1 SWAP2 POP POP SWAP2 SWAP1 POP JUMP JUMPDEST PUSH1 0x5 PUSH1 0x20 MSTORE DUP1 PUSH1 0x0 MSTORE PUSH1 0x40 PUSH1 0x0 KECCAK256 PUSH1 0x0 SWAP2 POP SWAP1 POP SLOAD DUP2 JUMP JUMPDEST PUSH1 0x4 PUSH1 0x0 SWAP1 SLOAD SWAP1 PUSH2 0x100 EXP SWAP1 DIV PUSH20 0xFFFFFFFFFFFFFFFFFFFFFFFFFFFFFFFFFFFFFFFF AND DUP2 JUMP JUMPDEST PUSH1 0x1 DUP1 SLOAD PUSH2 0x532 SWAP1 PUSH2 0xC1A JUMP JUMPDEST DUP1 PUSH1 0x1F ADD PUSH1 0x20 DUP1 SWAP2 DIV MUL PUSH1 0x20 ADD PUSH1 0x40 MLOAD SWAP1 DUP2 ADD PUSH1 0x40 MSTORE DUP1 SWAP3 SWAP2 SWAP1 DUP2 DUP2 MSTORE PUSH1 0x20 ADD DUP3 DUP1 SLOAD PUSH2 0x55E SWAP1 PUSH2 0xC1A JUMP JUMPDEST DUP1 ISZERO PUSH2 0x5AB JUMPI DUP1 PUSH1 0x1F LT PUSH2 0x580 JUMPI PUSH2 0x100 DUP1 DUP4 SLOAD DIV MUL DUP4 MSTORE SWAP2 PUSH1 0x20 ADD SWAP2 PUSH2 0x5AB JUMP JUMPDEST DUP3 ADD SWAP2 SWAP1 PUSH1 0x0 MSTORE PUSH1 0x20 PUSH1 0x0 KECCAK256 SWAP1 JUMPDEST DUP2 SLOAD DUP2 MSTORE SWAP1 PUSH1 0x1 ADD SWAP1 PUSH1 0x20 ADD DUP1 DUP4 GT PUSH2 0x58E JUMPI DUP3 SWAP1 SUB PUSH1 0x1F AND DUP3 ADD SWAP2 JUMPDEST POP POP POP POP POP DUP2 JUMP JUMPDEST PUSH1 0x0 PUSH1 0x4 PUSH1 0x0 SWAP1 SLOAD SWAP1 PUSH2 0x100 EXP SWAP1 DIV PUSH20 0xFFFFFFFFFFFFFFFFFFFFFFFFFFFFFFFFFFFFFFFF AND PUSH20 0xFFFFFFFFFFFFFFFFFFFFFFFFFFFFFFFFFFFFFFFF AND CALLER PUSH20 0xFFFFFFFFFFFFFFFFFFFFFFFFFFFFFFFFFFFFFFFF AND EQ PUSH2 0x645 JUMPI PUSH1 0x40 MLOAD PUSH32 0x8C379A000000000000000000000000000000000000000000000000000000000 DUP2 MSTORE PUSH1 0x4 ADD PUSH2 0x63C SWAP1 PUSH2 0xCBD JUMP JUMPDEST PUSH1 0x40 MLOAD DUP1 SWAP2 SUB SWAP1 REVERT JUMPDEST PUSH1 0x0 PUSH1 0x2 SLOAD PUSH1 0xA PUSH2 0x656 SWAP2 SWAP1 PUSH2 0xE3F JUMP JUMPDEST DUP4 PUSH2 0x661 SWAP2 SWAP1 PUSH2 0xE8A JUMP JUMPDEST SWAP1 POP DUP1 PUSH1 0x3 PUSH1 0x0 DUP3 DUP3 SLOAD PUSH2 0x675 SWAP2 SWAP1 PUSH2 0xF6C JUMP JUMPDEST SWAP3 POP POP DUP2 SWAP1 SSTORE POP DUP1 PUSH1 0x5 PUSH1 0x0 PUSH1 0x4 PUSH1 0x0 SWAP1 SLOAD SWAP1 PUSH2 0x100 EXP SWAP1 DIV PUSH20 0xFFFFFFFFFFFFFFFFFFFFFFFFFFFFFFFFFFFFFFFF AND PUSH20 0xFFFFFFFFFFFFFFFFFFFFFFFFFFFFFFFFFFFFFFFF AND PUSH20 0xFFFFFFFFFFFFFFFFFFFFFFFFFFFFFFFFFFFFFFFF AND DUP2 MSTORE PUSH1 0x20 ADD SWAP1 DUP2 MSTORE PUSH1 0x20 ADD PUSH1 0x0 KECCAK256 PUSH1 0x0 DUP3 DUP3 SLOAD PUSH2 0x6ED SWAP2 SWAP1 PUSH2 0xF6C JUMP JUMPDEST SWAP3 POP POP DUP2 SWAP1 SSTORE POP PUSH1 0x4 PUSH1 0x0 SWAP1 SLOAD SWAP1 PUSH2 0x100 EXP SWAP1 DIV PUSH20 0xFFFFFFFFFFFFFFFFFFFFFFFFFFFFFFFFFFFFFFFF AND PUSH20 0xFFFFFFFFFFFFFFFFFFFFFFFFFFFFFFFFFFFFFFFF AND PUSH32 0xF6798A560793A54C3BCFE86A93CDE1E73087D944C0EA20544137D4121396885 DUP3 PUSH1 0x40 MLOAD PUSH2 0x75C SWAP2 SWAP1 PUSH2 0xA47 JUMP JUMPDEST PUSH1 0x40 MLOAD DUP1 SWAP2 SUB SWAP1 LOG2 PUSH1 0x1 SWAP2 POP POP SWAP2 SWAP1 POP JUMP JUMPDEST PUSH1 0x0 DUP2 PUSH1 0x5 PUSH1 0x0 CALLER PUSH20 0xFFFFFFFFFFFFFFFFFFFFFFFFFFFFFFFFFFFFFFFF AND PUSH20 0xFFFFFFFFFFFFFFFFFFFFFFFFFFFFFFFFFFFFFFFF AND DUP2 MSTORE PUSH1 0x20 ADD SWAP1 DUP2 MSTORE PUSH1 0x20 ADD PUSH1 0x0 KECCAK256 SLOAD LT ISZERO PUSH2 0x7F2 JUMPI PUSH1 0x40 MLOAD PUSH32 0x8C379A000000000000000000000000000000000000000000000000000000000 DUP2 MSTORE PUSH1 0x4 ADD PUSH2 0x7E9 SWAP1 PUSH2 0xFEC JUMP JUMPDEST PUSH1 0x40 MLOAD DUP1 SWAP2 SUB SWAP1 REVERT JUMPDEST PUSH1 0x0 PUSH20 0xFFFFFFFFFFFFFFFFFFFFFFFFFFFFFFFFFFFFFFFF AND DUP4 PUSH20 0xFFFFFFFFFFFFFFFFFFFFFFFFFFFFFFFFFFFFFFFF AND SUB PUSH2 0x861 JUMPI PUSH1 0x40 MLOAD PUSH32 0x8C379A000000000000000000000000000000000000000000000000000000000 DUP2 MSTORE PUSH1 0x4 ADD PUSH2 0x858 SWAP1 PUSH2 0x1058 JUMP JUMPDEST PUSH1 0x40 MLOAD DUP1 SWAP2 SUB SWAP1 REVERT JUMPDEST DUP2 PUSH1 0x5 PUSH1 0x0 CALLER PUSH20 0xFFFFFFFFFFFFFFFFFFFFFFFFFFFFFFFFFFFFFFFF AND PUSH20 0xFFFFFFFFFFFFFFFFFFFFFFFFFFFFFFFFFFFFFFFF AND DUP2 MSTORE PUSH1 0x20 ADD SWAP1 DUP2 MSTORE PUSH1 0x20 ADD PUSH1 0x0 KECCAK256 PUSH1 0x0 DUP3 DUP3 SLOAD PUSH2 0x8B0 SWAP2 SWAP1 PUSH2 0xF38 JUMP JUMPDEST SWAP3 POP POP DUP2 SWAP1 SSTORE POP DUP2 PUSH1 0x5 PUSH1 0x0 DUP6 PUSH20 0xFFFFFFFFFFFFFFFFFFFFFFFFFFFFFFFFFFFFFFFF AND PUSH20 0xFFFFFFFFFFFFFFFFFFFFFFFFFFFFFFFFFFFFFFFF AND DUP2 MSTORE PUSH1 0x20 ADD SWAP1 DUP2 MSTORE PUSH1 0x20 ADD PUSH1 0x0 KECCAK256 PUSH1 0x0 DUP3 DUP3 SLOAD PUSH2 0x906 SWAP2 SWAP1 PUSH2 0xF6C JUMP JUMPDEST SWAP3 POP POP DUP2 SWAP1 SSTORE POP DUP3 PUSH20 0xFFFFFFFFFFFFFFFFFFFFFFFFFFFFFFFFFFFFFFFF AND CALLER PUSH20 0xFFFFFFFFFFFFFFFFFFFFFFFFFFFFFFFFFFFFFFFF AND PUSH32 0xDDF252AD1BE2C89B69C2B068FC378DAA952BA7F163C4A11628F55A4DF523B3EF DUP5 PUSH1 0x40 MLOAD PUSH2 0x96A SWAP2 SWAP1 PUSH2 0xA47 JUMP JUMPDEST PUSH1 0x40 MLOAD DUP1 SWAP2 SUB SWAP1 LOG3 PUSH1 0x1 SWAP1 POP SWAP3 SWAP2 POP POP JUMP JUMPDEST PUSH1 0x0 DUP2 MLOAD SWAP1 POP SWAP2 SWAP1 POP JUMP JUMPDEST PUSH1 0x0 DUP3 DUP3 MSTORE PUSH1 0x20 DUP3 ADD SWAP1 POP SWAP3 SWAP2 POP POP JUMP JUMPDEST PUSH1 0x0 JUMPDEST DUP4 DUP2 LT ISZERO PUSH2 0x9B6 JUMPI DUP1 DUP3 ADD MLOAD DUP2 DUP5 ADD MSTORE PUSH1 0x20 DUP2 ADD SWAP1 POP PUSH2 0x99B JUMP JUMPDEST PUSH1 0x0 DUP5 DUP5 ADD MSTORE POP POP POP POP JUMP JUMPDEST PUSH1 0x0 PUSH1 0x1F NOT PUSH1 0x1F DUP4 ADD AND SWAP1 POP SWAP2 SWAP1 POP JUMP JUMPDEST PUSH1 0x0 PUSH2 0x9DE DUP3 PUSH2 0x97C JUMP JUMPDEST PUSH2 0x9E8 DUP2 DUP6 PUSH2 0x987 JUMP JUMPDEST SWAP4 POP PUSH2 0x9F8 DUP2 DUP6 PUSH1 0x20 DUP7 ADD PUSH2 0x998 JUMP JUMPDEST PUSH2 0xA01 DUP2 PUSH2 0x9C2 JUMP JUMPDEST DUP5 ADD SWAP2 POP POP SWAP3 SWAP2 POP POP JUMP JUMPDEST PUSH1 0x0 PUSH1 0x20 DUP3 ADD SWAP1 POP DUP2 DUP2 SUB PUSH1 0x0 DUP4 ADD MSTORE PUSH2 0xA26 DUP2 DUP5 PUSH2 0x9D3 JUMP JUMPDEST SWAP1 POP SWAP3 SWAP2 POP POP JUMP JUMPDEST PUSH1 0x0 DUP2 SWAP1 POP SWAP2 SWAP1 POP JUMP JUMPDEST PUSH2 0xA41 DUP2 PUSH2 0xA2E JUMP JUMPDEST DUP3 MSTORE POP POP JUMP JUMPDEST PUSH1 0x0 PUSH1 0x20 DUP3 ADD SWAP1 POP PUSH2 0xA5C PUSH1 0x0 DUP4 ADD DUP5 PUSH2 0xA38 JUMP JUMPDEST SWAP3 SWAP2 POP POP JUMP JUMPDEST PUSH1 0x0 DUP1 REVERT JUMPDEST PUSH2 0xA70 DUP2 PUSH2 0xA2E JUMP JUMPDEST DUP2 EQ PUSH2 0xA7B JUMPI PUSH1 0x0 DUP1 REVERT JUMPDEST POP JUMP JUMPDEST PUSH1 0x0 DUP2 CALLDATALOAD SWAP1 POP PUSH2 0xA8D DUP2 PUSH2 0xA67 JUMP JUMPDEST SWAP3 SWAP2 POP POP JUMP JUMPDEST PUSH1 0x0 PUSH1 0x20 DUP3 DUP5 SUB SLT ISZERO PUSH2 0xAA9 JUMPI PUSH2 0xAA8 PUSH2 0xA62 JUMP JUMPDEST JUMPDEST PUSH1 0x0 PUSH2 0xAB7 DUP5 DUP3 DUP6 ADD PUSH2 0xA7E JUMP JUMPDEST SWAP2 POP POP SWAP3 SWAP2 POP POP JUMP JUMPDEST PUSH1 0x0 DUP2 ISZERO ISZERO SWAP1 POP SWAP2 SWAP1 POP JUMP JUMPDEST PUSH2 0xAD5 DUP2 PUSH2 0xAC0 JUMP JUMPDEST DUP3 MSTORE POP POP JUMP JUMPDEST PUSH1 0x0 PUSH1 0x20 DUP3 ADD SWAP1 POP PUSH2 0xAF0 PUSH1 0x0 DUP4 ADD DUP5 PUSH2 0xACC JUMP JUMPDEST SWAP3 SWAP2 POP POP JUMP JUMPDEST PUSH1 0x0 PUSH20 0xFFFFFFFFFFFFFFFFFFFFFFFFFFFFFFFFFFFFFFFF DUP3 AND SWAP1 POP SWAP2 SWAP1 POP JUMP JUMPDEST PUSH1 0x0 PUSH2 0xB21 DUP3 PUSH2 0xAF6 JUMP JUMPDEST SWAP1 POP SWAP2 SWAP1 POP JUMP JUMPDEST PUSH2 0xB31 DUP2 PUSH2 0xB16 JUMP JUMPDEST DUP2 EQ PUSH2 0xB3C JUMPI PUSH1 0x0 DUP1 REVERT JUMPDEST POP JUMP JUMPDEST PUSH1 0x0 DUP2 CALLDATALOAD SWAP1 POP PUSH2 0xB4E DUP2 PUSH2 0xB28 JUMP JUMPDEST SWAP3 SWAP2 POP POP JUMP JUMPDEST PUSH1 0x0 PUSH1 0x20 DUP3 DUP5 SUB SLT ISZERO PUSH2 0xB6A JUMPI PUSH2 0xB69 PUSH2 0xA62 JUMP JUMPDEST JUMPDEST PUSH1 0x0 PUSH2 0xB78 DUP5 DUP3 DUP6 ADD PUSH2 0xB3F JUMP JUMPDEST SWAP2 POP POP SWAP3 SWAP2 POP POP JUMP JUMPDEST PUSH2 0xB8A DUP2 PUSH2 0xB16 JUMP JUMPDEST DUP3 MSTORE POP POP JUMP JUMPDEST PUSH1 0x0 PUSH1 0x20 DUP3 ADD SWAP1 POP PUSH2 0xBA5 PUSH1 0x0 DUP4 ADD DUP5 PUSH2 0xB81 JUMP JUMPDEST SWAP3 SWAP2 POP POP JUMP JUMPDEST PUSH1 0x0 DUP1 PUSH1 0x40 DUP4 DUP6 SUB SLT ISZERO PUSH2 0xBC2 JUMPI PUSH2 0xBC1 PUSH2 0xA62 JUMP JUMPDEST JUMPDEST PUSH1 0x0 PUSH2 0xBD0 DUP6 DUP3 DUP7 ADD PUSH2 0xB3F JUMP JUMPDEST SWAP3 POP POP PUSH1 0x20 PUSH2 0xBE1 DUP6 DUP3 DUP7 ADD PUSH2 0xA7E JUMP JUMPDEST SWAP2 POP POP SWAP3 POP SWAP3 SWAP1 POP JUMP JUMPDEST PUSH32 0x4E487B7100000000000000000000000000000000000000000000000000000000 PUSH1 0x0 MSTORE PUSH1 0x22 PUSH1 0x4 MSTORE PUSH1 0x24 PUSH1 0x0 REVERT JUMPDEST PUSH1 0x0 PUSH1 0x2 DUP3 DIV SWAP1 POP PUSH1 0x1 DUP3 AND DUP1 PUSH2 0xC32 JUMPI PUSH1 0x7F DUP3 AND SWAP2 POP JUMPDEST PUSH1 0x20 DUP3 LT DUP2 SUB PUSH2 0xC45 JUMPI PUSH2 0xC44 PUSH2 0xBEB JUMP JUMPDEST JUMPDEST POP SWAP2 SWAP1 POP JUMP JUMPDEST PUSH32 0x4F6E6C79206F776E65722063616E2063616C6C20746869732066756E6374696F PUSH1 0x0 DUP3 ADD MSTORE PUSH32 0x6E00000000000000000000000000000000000000000000000000000000000000 PUSH1 0x20 DUP3 ADD MSTORE POP JUMP JUMPDEST PUSH1 0x0 PUSH2 0xCA7 PUSH1 0x21 DUP4 PUSH2 0x987 JUMP JUMPDEST SWAP2 POP PUSH2 0xCB2 DUP3 PUSH2 0xC4B JUMP JUMPDEST PUSH1 0x40 DUP3 ADD SWAP1 POP SWAP2 SWAP1 POP JUMP JUMPDEST PUSH1 0x0 PUSH1 0x20 DUP3 ADD SWAP1 POP DUP2 DUP2 SUB PUSH1 0x0 DUP4 ADD MSTORE PUSH2 0xCD6 DUP2 PUSH2 0xC9A JUMP JUMPDEST SWAP1 POP SWAP2 SWAP1 POP JUMP JUMPDEST PUSH32 0x4E487B7100000000000000000000000000000000000000000000000000000000 PUSH1 0x0 MSTORE PUSH1 0x11 PUSH1 0x4 MSTORE PUSH1 0x24 PUSH1 0x0 REVERT JUMPDEST PUSH1 0x0 DUP2 PUSH1 0x1 SHR SWAP1 POP SWAP2 SWAP1 POP JUMP JUMPDEST PUSH1 0x0 DUP1 DUP3 SWAP2 POP DUP4 SWAP1 POP JUMPDEST PUSH1 0x1 DUP6 GT ISZERO PUSH2 0xD63 JUMPI DUP1 DUP7 DIV DUP2 GT ISZERO PUSH2 0xD3F JUMPI PUSH2 0xD3E PUSH2 0xCDD JUMP JUMPDEST JUMPDEST PUSH1 0x1 DUP6 AND ISZERO PUSH2 0xD4E JUMPI DUP1 DUP3 MUL SWAP2 POP JUMPDEST DUP1 DUP2 MUL SWAP1 POP PUSH2 0xD5C DUP6 PUSH2 0xD0C JUMP JUMPDEST SWAP5 POP PUSH2 0xD23 JUMP JUMPDEST SWAP5 POP SWAP5 SWAP3 POP POP POP JUMP JUMPDEST PUSH1 0x0 DUP3 PUSH2 0xD7C JUMPI PUSH1 0x1 SWAP1 POP PUSH2 0xE38 JUMP JUMPDEST DUP2 PUSH2 0xD8A JUMPI PUSH1 0x0 SWAP1 POP PUSH2 0xE38 JUMP JUMPDEST DUP2 PUSH1 0x1 DUP2 EQ PUSH2 0xDA0 JUMPI PUSH1 0x2 DUP2 EQ PUSH2 0xDAA JUMPI PUSH2 0xDD9 JUMP JUMPDEST PUSH1 0x1 SWAP2 POP POP PUSH2 0xE38 JUMP JUMPDEST PUSH1 0xFF DUP5 GT ISZERO PUSH2 0xDBC JUMPI PUSH2 0xDBB PUSH2 0xCDD JUMP JUMPDEST JUMPDEST DUP4 PUSH1 0x2 EXP SWAP2 POP DUP5 DUP3 GT ISZERO PUSH2 0xDD3 JUMPI PUSH2 0xDD2 PUSH2 0xCDD JUMP JUMPDEST JUMPDEST POP PUSH2 0xE38 JUMP JUMPDEST POP PUSH1 0x20 DUP4 LT PUSH2 0x133 DUP4 LT AND PUSH1 0x4E DUP5 LT PUSH1 0xB DUP5 LT AND OR ISZERO PUSH2 0xE0E JUMPI DUP3 DUP3 EXP SWAP1 POP DUP4 DUP2 GT ISZERO PUSH2 0xE09 JUMPI PUSH2 0xE08 PUSH2 0xCDD JUMP JUMPDEST JUMPDEST PUSH2 0xE38 JUMP JUMPDEST PUSH2 0xE1B DUP5 DUP5 DUP5 PUSH1 0x1 PUSH2 0xD19 JUMP JUMPDEST SWAP3 POP SWAP1 POP DUP2 DUP5 DIV DUP2 GT ISZERO PUSH2 0xE32 JUMPI PUSH2 0xE31 PUSH2 0xCDD JUMP JUMPDEST JUMPDEST DUP2 DUP2 MUL SWAP1 POP JUMPDEST SWAP4 SWAP3 POP POP POP JUMP JUMPDEST PUSH1 0x0 PUSH2 0xE4A DUP3 PUSH2 0xA2E JUMP JUMPDEST SWAP2 POP PUSH2 0xE55 DUP4 PUSH2 0xA2E JUMP JUMPDEST SWAP3 POP PUSH2 0xE82 PUSH32 0xFFFFFFFFFFFFFFFFFFFFFFFFFFFFFFFFFFFFFFFFFFFFFFFFFFFFFFFFFFFFFFFF DUP5 DUP5 PUSH2 0xD6C JUMP JUMPDEST SWAP1 POP SWAP3 SWAP2 POP POP JUMP JUMPDEST PUSH1 0x0 PUSH2 0xE95 DUP3 PUSH2 0xA2E JUMP JUMPDEST SWAP2 POP PUSH2 0xEA0 DUP4 PUSH2 0xA2E JUMP JUMPDEST SWAP3 POP DUP3 DUP3 MUL PUSH2 0xEAE DUP2 PUSH2 0xA2E JUMP JUMPDEST SWAP2 POP DUP3 DUP3 DIV DUP5 EQ DUP4 ISZERO OR PUSH2 0xEC5 JUMPI PUSH2 0xEC4 PUSH2 0xCDD JUMP JUMPDEST JUMPDEST POP SWAP3 SWAP2 POP POP JUMP JUMPDEST PUSH32 0x496E73756666696369656E742062616C616E636520746F206275726E00000000 PUSH1 0x0 DUP3 ADD MSTORE POP JUMP JUMPDEST PUSH1 0x0 PUSH2 0xF02 PUSH1 0x1C DUP4 PUSH2 0x987 JUMP JUMPDEST SWAP2 POP PUSH2 0xF0D DUP3 PUSH2 0xECC JUMP JUMPDEST PUSH1 0x20 DUP3 ADD SWAP1 POP SWAP2 SWAP1 POP JUMP JUMPDEST PUSH1 0x0 PUSH1 0x20 DUP3 ADD SWAP1 POP DUP2 DUP2 SUB PUSH1 0x0 DUP4 ADD MSTORE PUSH2 0xF31 DUP2 PUSH2 0xEF5 JUMP JUMPDEST SWAP1 POP SWAP2 SWAP1 POP JUMP JUMPDEST PUSH1 0x0 PUSH2 0xF43 DUP3 PUSH2 0xA2E JUMP JUMPDEST SWAP2 POP PUSH2 0xF4E DUP4 PUSH2 0xA2E JUMP JUMPDEST SWAP3 POP DUP3 DUP3 SUB SWAP1 POP DUP2 DUP2 GT ISZERO PUSH2 0xF66 JUMPI PUSH2 0xF65 PUSH2 0xCDD JUMP JUMPDEST JUMPDEST SWAP3 SWAP2 POP POP JUMP JUMPDEST PUSH1 0x0 PUSH2 0xF77 DUP3 PUSH2 0xA2E JUMP JUMPDEST SWAP2 POP PUSH2 0xF82 DUP4 PUSH2 0xA2E JUMP JUMPDEST SWAP3 POP DUP3 DUP3 ADD SWAP1 POP DUP1 DUP3 GT ISZERO PUSH2 0xF9A JUMPI PUSH2 0xF99 PUSH2 0xCDD JUMP JUMPDEST JUMPDEST SWAP3 SWAP2 POP POP JUMP JUMPDEST PUSH32 0x496E73756666696369656E742062616C616E6365000000000000000000000000 PUSH1 0x0 DUP3 ADD MSTORE POP JUMP JUMPDEST PUSH1 0x0 PUSH2 0xFD6 PUSH1 0x14 DUP4 PUSH2 0x987 JUMP JUMPDEST SWAP2 POP PUSH2 0xFE1 DUP3 PUSH2 0xFA0 JUMP JUMPDEST PUSH1 0x20 DUP3 ADD SWAP1 POP SWAP2 SWAP1 POP JUMP JUMPDEST PUSH1 0x0 PUSH1 0x20 DUP3 ADD SWAP1 POP DUP2 DUP2 SUB PUSH1 0x0 DUP4 ADD MSTORE PUSH2 0x1005 DUP2 PUSH2 0xFC9 JUMP JUMPDEST SWAP1 POP SWAP2 SWAP1 POP JUMP JUMPDEST PUSH32 0x496E76616C696420616464726573730000000000000000000000000000000000 PUSH1 0x0 DUP3 ADD MSTORE POP JUMP JUMPDEST PUSH1 0x0 PUSH2 0x1042 PUSH1 0xF DUP4 PUSH2 0x987 JUMP JUMPDEST SWAP2 POP PUSH2 0x104D DUP3 PUSH2 0x100C JUMP JUMPDEST PUSH1 0x20 DUP3 ADD SWAP1 POP SWAP2 SWAP1 POP JUMP JUMPDEST PUSH1 0x0 PUSH1 0x20 DUP3 ADD SWAP1 POP DUP2 DUP2 SUB PUSH1 0x0 DUP4 ADD MSTORE PUSH2 0x1071 DUP2 PUSH2 0x1035 JUMP JUMPDEST SWAP1 POP SWAP2 SWAP1 POP JUMP INVALID LOG2 PUSH5 0x6970667358 0x22 SLT KECCAK256 NUMBER SWAP4 DUP14 0x23 CALLER SWAP10 PUSH27 0xD1893D8E6816109894C9D079638007CF38922E711BD51768EE6473 PUSH16 0x6C634300081A00330000000000000000 "
				},
				"gasEstimates": {
					"creation": {
						"codeDepositCost": "854000",
						"executionCost": "infinite",
						"totalCost": "infinite"
					},
					"external": {
						"balanceOf(address)": "2814",
						"burn(uint256)": "infinite",
						"decimals()": "2474",
						"mint(uint256)": "infinite",
						"name()": "infinite",
						"owner()": "2536",
						"symbol()": "infinite",
						"totalSupply()": "2452",
						"transfer(address,uint256)": "infinite"
					}
				},
				"methodIdentifiers": {
					"balanceOf(address)": "70a08231",
					"burn(uint256)": "42966c68",
					"decimals()": "313ce567",
					"mint(uint256)": "a0712d68",
					"name()": "06fdde03",
					"owner()": "8da5cb5b",
					"symbol()": "95d89b41",
					"totalSupply()": "18160ddd",
					"transfer(address,uint256)": "a9059cbb"
				}
			},
			"storageLayout": {
				"storage": [
					{
						"astId": 4,
						"contract": "contracts/EricsToken.sol:EricsToken",
						"label": "name",
						"offset": 0,
						"slot": "0",
						"type": "t_string_storage"
					},
					{
						"astId": 7,
						"contract": "contracts/EricsToken.sol:EricsToken",
						"label": "symbol",
						"offset": 0,
						"slot": "1",
						"type": "t_string_storage"
					},
					{
						"astId": 10,
						"contract": "contracts/EricsToken.sol:EricsToken",
						"label": "decimals",
						"offset": 0,
						"slot": "2",
						"type": "t_uint256"
					},
					{
						"astId": 12,
						"contract": "contracts/EricsToken.sol:EricsToken",
						"label": "totalSupply",
						"offset": 0,
						"slot": "3",
						"type": "t_uint256"
					},
					{
						"astId": 14,
						"contract": "contracts/EricsToken.sol:EricsToken",
						"label": "owner",
						"offset": 0,
						"slot": "4",
						"type": "t_address"
					},
					{
						"astId": 18,
						"contract": "contracts/EricsToken.sol:EricsToken",
						"label": "balanceOf",
						"offset": 0,
						"slot": "5",
						"type": "t_mapping(t_address,t_uint256)"
					}
				],
				"types": {
					"t_address": {
						"encoding": "inplace",
						"label": "address",
						"numberOfBytes": "20"
					},
					"t_mapping(t_address,t_uint256)": {
						"encoding": "mapping",
						"key": "t_address",
						"label": "mapping(address => uint256)",
						"numberOfBytes": "32",
						"value": "t_uint256"
					},
					"t_string_storage": {
						"encoding": "bytes",
						"label": "string",
						"numberOfBytes": "32"
					},
					"t_uint256": {
						"encoding": "inplace",
						"label": "uint256",
						"numberOfBytes": "32"
					}
				}
			},
			"userdoc": {
				"kind": "user",
				"methods": {},
				"version": 1
			}
		}
	}
}