{
	"data": {
		"bytecode": {
			"linkReferences": {},
			"object": "60806040526040518060400160405280600a81526020017f4572696373546f6b656e000000000000000000000000000000000000000000008152505f908161004791906103e9565b506040518060400160405280600381526020017f45544b00000000000000000000000000000000000000000000000000000000008152506001908161008c91906103e9565b50601260025f6101000a81548160ff021916908360ff1602179055503480156100b3575f80fd5b5060405161179238038061179283398181016040528101906100d591906104e6565b3360045f6101000a81548173ffffffffffffffffffffffffffffffffffffffff021916908373ffffffffffffffffffffffffffffffffffffffff16021790555060025f9054906101000a900460ff1660ff16600a610133919061066d565b8161013e91906106b7565b60038190555060035460055f60045f9054906101000a900473ffffffffffffffffffffffffffffffffffffffff1673ffffffffffffffffffffffffffffffffffffffff1673ffffffffffffffffffffffffffffffffffffffff1681526020019081526020015f2081905550506106f8565b5f81519050919050565b7f4e487b71000000000000000000000000000000000000000000000000000000005f52604160045260245ffd5b7f4e487b71000000000000000000000000000000000000000000000000000000005f52602260045260245ffd5b5f600282049050600182168061022a57607f821691505b60208210810361023d5761023c6101e6565b5b50919050565b5f819050815f5260205f209050919050565b5f6020601f8301049050919050565b5f82821b905092915050565b5f6008830261029f7fffffffffffffffffffffffffffffffffffffffffffffffffffffffffffffffff82610264565b6102a98683610264565b95508019841693508086168417925050509392505050565b5f819050919050565b5f819050919050565b5f6102ed6102e86102e3846102c1565b6102ca565b6102c1565b9050919050565b5f819050919050565b610306836102d3565b61031a610312826102f4565b848454610270565b825550505050565b5f90565b61032e610322565b6103398184846102fd565b505050565b5b8181101561035c576103515f82610326565b60018101905061033f565b5050565b601f8211156103a15761037281610243565b61037b84610255565b8101602085101561038a578190505b61039e61039685610255565b83018261033e565b50505b505050565b5f82821c905092915050565b5f6103c15f19846008026103a6565b1980831691505092915050565b5f6103d983836103b2565b9150826002028217905092915050565b6103f2826101af565b67ffffffffffffffff81111561040b5761040a6101b9565b5b6104158254610213565b610420828285610360565b5f60209050601f831160018114610451575f841561043f578287015190505b61044985826103ce565b8655506104b0565b601f19841661045f86610243565b5f5b8281101561048657848901518255600182019150602085019450602081019050610461565b868310156104a3578489015161049f601f8916826103b2565b8355505b6001600288020188555050505b505050505050565b5f80fd5b6104c5816102c1565b81146104cf575f80fd5b50565b5f815190506104e0816104bc565b92915050565b5f602082840312156104fb576104fa6104b8565b5b5f610508848285016104d2565b91505092915050565b7f4e487b71000000000000000000000000000000000000000000000000000000005f52601160045260245ffd5b5f8160011c9050919050565b5f808291508390505b60018511156105935780860481111561056f5761056e610511565b5b600185161561057e5780820291505b808102905061058c8561053e565b9450610553565b94509492505050565b5f826105ab5760019050610666565b816105b8575f9050610666565b81600181146105ce57600281146105d857610607565b6001915050610666565b60ff8411156105ea576105e9610511565b5b8360020a91508482111561060157610600610511565b5b50610666565b5060208310610133831016604e8410600b841016171561063c5782820a90508381111561063757610636610511565b5b610666565b610649848484600161054a565b925090508184048111156106605761065f610511565b5b81810290505b9392505050565b5f610677826102c1565b9150610682836102c1565b92506106af7fffffffffffffffffffffffffffffffffffffffffffffffffffffffffffffffff848461059c565b905092915050565b5f6106c1826102c1565b91506106cc836102c1565b92508282026106da816102c1565b915082820484148315176106f1576106f0610511565b5b5092915050565b61108d806107055f395ff3fe608060405234801561000f575f80fd5b5060043610610091575f3560e01c806370a082311161006457806370a082311461011f5780638da5cb5b1461014f57806395d89b411461016d578063a0712d681461018b578063a9059cbb146101bb57610091565b806306fdde031461009557806318160ddd146100b3578063313ce567146100d157806342966c68146100ef575b5f80fd5b61009d6101eb565b6040516100aa91906109eb565b60405180910390f35b6100bb610276565b6040516100c89190610a23565b60405180910390f35b6100d961027c565b6040516100e69190610a57565b60405180910390f35b61010960048036038101906101049190610a9e565b61028e565b6040516101169190610ae3565b60405180910390f35b61013960048036038101906101349190610b56565b6104f0565b6040516101469190610a23565b60405180910390f35b610157610505565b6040516101649190610b90565b60405180910390f35b61017561052a565b60405161018291906109eb565b60405180910390f35b6101a560048036038101906101a09190610a9e565b6105b6565b6040516101b29190610ae3565b60405180910390f35b6101d560048036038101906101d09190610ba9565b610777565b6040516101e29190610ae3565b60405180910390f35b5f80546101f790610c14565b80601f016020809104026020016040519081016040528092919081815260200182805461022390610c14565b801561026e5780601f106102455761010080835404028352916020019161026e565b820191905f5260205f20905b81548152906001019060200180831161025157829003601f168201915b505050505081565b60035481565b60025f9054906101000a900460ff1681565b5f60045f9054906101000a900473ffffffffffffffffffffffffffffffffffffffff1673ffffffffffffffffffffffffffffffffffffffff163373ffffffffffffffffffffffffffffffffffffffff161461031e576040517f08c379a000000000000000000000000000000000000000000000000000000000815260040161031590610cb4565b60405180910390fd5b5f60025f9054906101000a900460ff1660ff16600a61033d9190610e2e565b836103489190610e78565b90508060055f60045f9054906101000a900473ffffffffffffffffffffffffffffffffffffffff1673ffffffffffffffffffffffffffffffffffffffff1673ffffffffffffffffffffffffffffffffffffffff1681526020019081526020015f205410156103eb576040517f08c379a00000000000000000000000000000000000000000000000000000000081526004016103e290610f03565b60405180910390fd5b8060035f8282546103fc9190610f21565b925050819055508060055f60045f9054906101000a900473ffffffffffffffffffffffffffffffffffffffff1673ffffffffffffffffffffffffffffffffffffffff1673ffffffffffffffffffffffffffffffffffffffff1681526020019081526020015f205f8282546104709190610f21565b9250508190555060045f9054906101000a900473ffffffffffffffffffffffffffffffffffffffff1673ffffffffffffffffffffffffffffffffffffffff167fcc16f5dbb4873280815c1ee09dbd06736cffcc184412cf7a71a0fdb75d397ca5826040516104de9190610a23565b60405180910390a26001915050919050565b6005602052805f5260405f205f915090505481565b60045f9054906101000a900473ffffffffffffffffffffffffffffffffffffffff1681565b6001805461053790610c14565b80601f016020809104026020016040519081016040528092919081815260200182805461056390610c14565b80156105ae5780601f10610585576101008083540402835291602001916105ae565b820191905f5260205f20905b81548152906001019060200180831161059157829003601f168201915b505050505081565b5f60045f9054906101000a900473ffffffffffffffffffffffffffffffffffffffff1673ffffffffffffffffffffffffffffffffffffffff163373ffffffffffffffffffffffffffffffffffffffff1614610646576040517f08c379a000000000000000000000000000000000000000000000000000000000815260040161063d90610cb4565b60405180910390fd5b5f60025f9054906101000a900460ff1660ff16600a6106659190610e2e565b836106709190610e78565b90508060035f8282546106839190610f54565b925050819055508060055f60045f9054906101000a900473ffffffffffffffffffffffffffffffffffffffff1673ffffffffffffffffffffffffffffffffffffffff1673ffffffffffffffffffffffffffffffffffffffff1681526020019081526020015f205f8282546106f79190610f54565b9250508190555060045f9054906101000a900473ffffffffffffffffffffffffffffffffffffffff1673ffffffffffffffffffffffffffffffffffffffff167f0f6798a560793a54c3bcfe86a93cde1e73087d944c0ea20544137d4121396885826040516107659190610a23565b60405180910390a26001915050919050565b5f8160055f3373ffffffffffffffffffffffffffffffffffffffff1673ffffffffffffffffffffffffffffffffffffffff1681526020019081526020015f205410156107f8576040517f08c379a00000000000000000000000000000000000000000000000000000000081526004016107ef90610fd1565b60405180910390fd5b5f73ffffffffffffffffffffffffffffffffffffffff168373ffffffffffffffffffffffffffffffffffffffff1603610866576040517f08c379a000000000000000000000000000000000000000000000000000000000815260040161085d90611039565b60405180910390fd5b8160055f3373ffffffffffffffffffffffffffffffffffffffff1673ffffffffffffffffffffffffffffffffffffffff1681526020019081526020015f205f8282546108b29190610f21565b925050819055508160055f8573ffffffffffffffffffffffffffffffffffffffff1673ffffffffffffffffffffffffffffffffffffffff1681526020019081526020015f205f8282546109059190610f54565b925050819055508273ffffffffffffffffffffffffffffffffffffffff163373ffffffffffffffffffffffffffffffffffffffff167fddf252ad1be2c89b69c2b068fc378daa952ba7f163c4a11628f55a4df523b3ef846040516109699190610a23565b60405180910390a36001905092915050565b5f81519050919050565b5f82825260208201905092915050565b8281835e5f83830152505050565b5f601f19601f8301169050919050565b5f6109bd8261097b565b6109c78185610985565b93506109d7818560208601610995565b6109e0816109a3565b840191505092915050565b5f6020820190508181035f830152610a0381846109b3565b905092915050565b5f819050919050565b610a1d81610a0b565b82525050565b5f602082019050610a365f830184610a14565b92915050565b5f60ff82169050919050565b610a5181610a3c565b82525050565b5f602082019050610a6a5f830184610a48565b92915050565b5f80fd5b610a7d81610a0b565b8114610a87575f80fd5b50565b5f81359050610a9881610a74565b92915050565b5f60208284031215610ab357610ab2610a70565b5b5f610ac084828501610a8a565b91505092915050565b5f8115159050919050565b610add81610ac9565b82525050565b5f602082019050610af65f830184610ad4565b92915050565b5f73ffffffffffffffffffffffffffffffffffffffff82169050919050565b5f610b2582610afc565b9050919050565b610b3581610b1b565b8114610b3f575f80fd5b50565b5f81359050610b5081610b2c565b92915050565b5f60208284031215610b6b57610b6a610a70565b5b5f610b7884828501610b42565b91505092915050565b610b8a81610b1b565b82525050565b5f602082019050610ba35f830184610b81565b92915050565b5f8060408385031215610bbf57610bbe610a70565b5b5f610bcc85828601610b42565b9250506020610bdd85828601610a8a565b9150509250929050565b7f4e487b71000000000000000000000000000000000000000000000000000000005f52602260045260245ffd5b5f6002820490506001821680610c2b57607f821691505b602082108103610c3e57610c3d610be7565b5b50919050565b7f4f6e6c79206f776e65722063616e2063616c6c20746869732066756e6374696f5f8201527f6e00000000000000000000000000000000000000000000000000000000000000602082015250565b5f610c9e602183610985565b9150610ca982610c44565b604082019050919050565b5f6020820190508181035f830152610ccb81610c92565b9050919050565b7f4e487b71000000000000000000000000000000000000000000000000000000005f52601160045260245ffd5b5f8160011c9050919050565b5f808291508390505b6001851115610d5457808604811115610d3057610d2f610cd2565b5b6001851615610d3f5780820291505b8081029050610d4d85610cff565b9450610d14565b94509492505050565b5f82610d6c5760019050610e27565b81610d79575f9050610e27565b8160018114610d8f5760028114610d9957610dc8565b6001915050610e27565b60ff841115610dab57610daa610cd2565b5b8360020a915084821115610dc257610dc1610cd2565b5b50610e27565b5060208310610133831016604e8410600b8410161715610dfd5782820a905083811115610df857610df7610cd2565b5b610e27565b610e0a8484846001610d0b565b92509050818404811115610e2157610e20610cd2565b5b81810290505b9392505050565b5f610e3882610a0b565b9150610e4383610a0b565b9250610e707fffffffffffffffffffffffffffffffffffffffffffffffffffffffffffffffff8484610d5d565b905092915050565b5f610e8282610a0b565b9150610e8d83610a0b565b9250828202610e9b81610a0b565b91508282048414831517610eb257610eb1610cd2565b5b5092915050565b7f496e73756666696369656e742062616c616e636520746f206275726e000000005f82015250565b5f610eed601c83610985565b9150610ef882610eb9565b602082019050919050565b5f6020820190508181035f830152610f1a81610ee1565b9050919050565b5f610f2b82610a0b565b9150610f3683610a0b565b9250828203905081811115610f4e57610f4d610cd2565b5b92915050565b5f610f5e82610a0b565b9150610f6983610a0b565b9250828201905080821115610f8157610f80610cd2565b5b92915050565b7f496e73756666696369656e742062616c616e63650000000000000000000000005f82015250565b5f610fbb601483610985565b9150610fc682610f87565b602082019050919050565b5f6020820190508181035f830152610fe881610faf565b9050919050565b7f496e76616c6964206164647265737300000000000000000000000000000000005f82015250565b5f611023600f83610985565b915061102e82610fef565b602082019050919050565b5f6020820190508181035f83015261105081611017565b905091905056fea2646970667358221220005305b04ac08fd8136087232c47b4118ce913160efb800baa37d0d4bd1d5a1f64736f6c634300081a0033",
			"opcodes": "PUSH1 0x80 PUSH1 0x40 MSTORE PUSH1 0x40 MLOAD DUP1 PUSH1 0x40 ADD PUSH1 0x40 MSTORE DUP1 PUSH1 0xA DUP2 MSTORE PUSH1 0x20 ADD PUSH32 0x4572696373546F6B656E00000000000000000000000000000000000000000000 DUP2 MSTORE POP PUSH0 SWAP1 DUP2 PUSH2 0x47 SWAP2 SWAP1 PUSH2 0x3E9 JUMP JUMPDEST POP PUSH1 0x40 MLOAD DUP1 PUSH1 0x40 ADD PUSH1 0x40 MSTORE DUP1 PUSH1 0x3 DUP2 MSTORE PUSH1 0x20 ADD PUSH32 0x45544B0000000000000000000000000000000000000000000000000000000000 DUP2 MSTORE POP PUSH1 0x1 SWAP1 DUP2 PUSH2 0x8C SWAP2 SWAP1 PUSH2 0x3E9 JUMP JUMPDEST POP PUSH1 0x12 PUSH1 0x2 PUSH0 PUSH2 0x100 EXP DUP2 SLOAD DUP2 PUSH1 0xFF MUL NOT AND SWAP1 DUP4 PUSH1 0xFF AND MUL OR SWAP1 SSTORE POP CALLVALUE DUP1 ISZERO PUSH2 0xB3 JUMPI PUSH0 DUP1 REVERT JUMPDEST POP PUSH1 0x40 MLOAD PUSH2 0x1792 CODESIZE SUB DUP1 PUSH2 0x1792 DUP4 CODECOPY DUP2 DUP2 ADD PUSH1 0x40 MSTORE DUP2 ADD SWAP1 PUSH2 0xD5 SWAP2 SWAP1 PUSH2 0x4E6 JUMP JUMPDEST CALLER PUSH1 0x4 PUSH0 PUSH2 0x100 EXP DUP2 SLOAD DUP2 PUSH20 0xFFFFFFFFFFFFFFFFFFFFFFFFFFFFFFFFFFFFFFFF MUL NOT AND SWAP1 DUP4 PUSH20 0xFFFFFFFFFFFFFFFFFFFFFFFFFFFFFFFFFFFFFFFF AND MUL OR SWAP1 SSTORE POP PUSH1 0x2 PUSH0 SWAP1 SLOAD SWAP1 PUSH2 0x100 EXP SWAP1 DIV PUSH1 0xFF AND PUSH1 0xFF AND PUSH1 0xA PUSH2 0x133 SWAP2 SWAP1 PUSH2 0x66D JUMP JUMPDEST DUP2 PUSH2 0x13E SWAP2 SWAP1 PUSH2 0x6B7 JUMP JUMPDEST PUSH1 0x3 DUP2 SWAP1 SSTORE POP PUSH1 0x3 SLOAD PUSH1 0x5 PUSH0 PUSH1 0x4 PUSH0 SWAP1 SLOAD SWAP1 PUSH2 0x100 EXP SWAP1 DIV PUSH20 0xFFFFFFFFFFFFFFFFFFFFFFFFFFFFFFFFFFFFFFFF AND PUSH20 0xFFFFFFFFFFFFFFFFFFFFFFFFFFFFFFFFFFFFFFFF AND PUSH20 0xFFFFFFFFFFFFFFFFFFFFFFFFFFFFFFFFFFFFFFFF AND DUP2 MSTORE PUSH1 0x20 ADD SWAP1 DUP2 MSTORE PUSH1 0x20 ADD PUSH0 KECCAK256 DUP2 SWAP1 SSTORE POP POP PUSH2 0x6F8 JUMP JUMPDEST PUSH0 DUP2 MLOAD SWAP1 POP SWAP2 SWAP1 POP JUMP JUMPDEST PUSH32 0x4E487B7100000000000000000000000000000000000000000000000000000000 PUSH0 MSTORE PUSH1 0x41 PUSH1 0x4 MSTORE PUSH1 0x24 PUSH0 REVERT JUMPDEST PUSH32 0x4E487B7100000000000000000000000000000000000000000000000000000000 PUSH0 MSTORE PUSH1 0x22 PUSH1 0x4 MSTORE PUSH1 0x24 PUSH0 REVERT JUMPDEST PUSH0 PUSH1 0x2 DUP3 DIV SWAP1 POP PUSH1 0x1 DUP3 AND DUP1 PUSH2 0x22A JUMPI PUSH1 0x7F DUP3 AND SWAP2 POP JUMPDEST PUSH1 0x20 DUP3 LT DUP2 SUB PUSH2 0x23D JUMPI PUSH2 0x23C PUSH2 0x1E6 JUMP JUMPDEST JUMPDEST POP SWAP2 SWAP1 POP JUMP JUMPDEST PUSH0 DUP2 SWAP1 POP DUP2 PUSH0 MSTORE PUSH1 0x20 PUSH0 KECCAK256 SWAP1 POP SWAP2 SWAP1 POP JUMP JUMPDEST PUSH0 PUSH1 0x20 PUSH1 0x1F DUP4 ADD DIV SWAP1 POP SWAP2 SWAP1 POP JUMP JUMPDEST PUSH0 DUP3 DUP3 SHL SWAP1 POP SWAP3 SWAP2 POP POP JUMP JUMPDEST PUSH0 PUSH1 0x8 DUP4 MUL PUSH2 0x29F PUSH32 0xFFFFFFFFFFFFFFFFFFFFFFFFFFFFFFFFFFFFFFFFFFFFFFFFFFFFFFFFFFFFFFFF DUP3 PUSH2 0x264 JUMP JUMPDEST PUSH2 0x2A9 DUP7 DUP4 PUSH2 0x264 JUMP JUMPDEST SWAP6 POP DUP1 NOT DUP5 AND SWAP4 POP DUP1 DUP7 AND DUP5 OR SWAP3 POP POP POP SWAP4 SWAP3 POP POP POP JUMP JUMPDEST PUSH0 DUP2 SWAP1 POP SWAP2 SWAP1 POP JUMP JUMPDEST PUSH0 DUP2 SWAP1 POP SWAP2 SWAP1 POP JUMP JUMPDEST PUSH0 PUSH2 0x2ED PUSH2 0x2E8 PUSH2 0x2E3 DUP5 PUSH2 0x2C1 JUMP JUMPDEST PUSH2 0x2CA JUMP JUMPDEST PUSH2 0x2C1 JUMP JUMPDEST SWAP1 POP SWAP2 SWAP1 POP JUMP JUMPDEST PUSH0 DUP2 SWAP1 POP SWAP2 SWAP1 POP JUMP JUMPDEST PUSH2 0x306 DUP4 PUSH2 0x2D3 JUMP JUMPDEST PUSH2 0x31A PUSH2 0x312 DUP3 PUSH2 0x2F4 JUMP JUMPDEST DUP5 DUP5 SLOAD PUSH2 0x270 JUMP JUMPDEST DUP3 SSTORE POP POP POP POP JUMP JUMPDEST PUSH0 SWAP1 JUMP JUMPDEST PUSH2 0x32E PUSH2 0x322 JUMP JUMPDEST PUSH2 0x339 DUP2 DUP5 DUP5 PUSH2 0x2FD JUMP JUMPDEST POP POP POP JUMP JUMPDEST JUMPDEST DUP2 DUP2 LT ISZERO PUSH2 0x35C JUMPI PUSH2 0x351 PUSH0 DUP3 PUSH2 0x326 JUMP JUMPDEST PUSH1 0x1 DUP2 ADD SWAP1 POP PUSH2 0x33F JUMP JUMPDEST POP POP JUMP JUMPDEST PUSH1 0x1F DUP3 GT ISZERO PUSH2 0x3A1 JUMPI PUSH2 0x372 DUP2 PUSH2 0x243 JUMP JUMPDEST PUSH2 0x37B DUP5 PUSH2 0x255 JUMP JUMPDEST DUP2 ADD PUSH1 0x20 DUP6 LT ISZERO PUSH2 0x38A JUMPI DUP2 SWAP1 POP JUMPDEST PUSH2 0x39E PUSH2 0x396 DUP6 PUSH2 0x255 JUMP JUMPDEST DUP4 ADD DUP3 PUSH2 0x33E JUMP JUMPDEST POP POP JUMPDEST POP POP POP JUMP JUMPDEST PUSH0 DUP3 DUP3 SHR SWAP1 POP SWAP3 SWAP2 POP POP JUMP JUMPDEST PUSH0 PUSH2 0x3C1 PUSH0 NOT DUP5 PUSH1 0x8 MUL PUSH2 0x3A6 JUMP JUMPDEST NOT DUP1 DUP4 AND SWAP2 POP POP SWAP3 SWAP2 POP POP JUMP JUMPDEST PUSH0 PUSH2 0x3D9 DUP4 DUP4 PUSH2 0x3B2 JUMP JUMPDEST SWAP2 POP DUP3 PUSH1 0x2 MUL DUP3 OR SWAP1 POP SWAP3 SWAP2 POP POP JUMP JUMPDEST PUSH2 0x3F2 DUP3 PUSH2 0x1AF JUMP JUMPDEST PUSH8 0xFFFFFFFFFFFFFFFF DUP2 GT ISZERO PUSH2 0x40B JUMPI PUSH2 0x40A PUSH2 0x1B9 JUMP JUMPDEST JUMPDEST PUSH2 0x415 DUP3 SLOAD PUSH2 0x213 JUMP JUMPDEST PUSH2 0x420 DUP3 DUP3 DUP6 PUSH2 0x360 JUMP JUMPDEST PUSH0 PUSH1 0x20 SWAP1 POP PUSH1 0x1F DUP4 GT PUSH1 0x1 DUP2 EQ PUSH2 0x451 JUMPI PUSH0 DUP5 ISZERO PUSH2 0x43F JUMPI DUP3 DUP8 ADD MLOAD SWAP1 POP JUMPDEST PUSH2 0x449 DUP6 DUP3 PUSH2 0x3CE JUMP JUMPDEST DUP7 SSTORE POP PUSH2 0x4B0 JUMP JUMPDEST PUSH1 0x1F NOT DUP5 AND PUSH2 0x45F DUP7 PUSH2 0x243 JUMP JUMPDEST PUSH0 JUMPDEST DUP3 DUP2 LT ISZERO PUSH2 0x486 JUMPI DUP5 DUP10 ADD MLOAD DUP3 SSTORE PUSH1 0x1 DUP3 ADD SWAP2 POP PUSH1 0x20 DUP6 ADD SWAP5 POP PUSH1 0x20 DUP2 ADD SWAP1 POP PUSH2 0x461 JUMP JUMPDEST DUP7 DUP4 LT ISZERO PUSH2 0x4A3 JUMPI DUP5 DUP10 ADD MLOAD PUSH2 0x49F PUSH1 0x1F DUP10 AND DUP3 PUSH2 0x3B2 JUMP JUMPDEST DUP4 SSTORE POP JUMPDEST PUSH1 0x1 PUSH1 0x2 DUP9 MUL ADD DUP9 SSTORE POP POP POP JUMPDEST POP POP POP POP POP POP JUMP JUMPDEST PUSH0 DUP1 REVERT JUMPDEST PUSH2 0x4C5 DUP2 PUSH2 0x2C1 JUMP JUMPDEST DUP2 EQ PUSH2 0x4CF JUMPI PUSH0 DUP1 REVERT JUMPDEST POP JUMP JUMPDEST PUSH0 DUP2 MLOAD SWAP1 POP PUSH2 0x4E0 DUP2 PUSH2 0x4BC JUMP JUMPDEST SWAP3 SWAP2 POP POP JUMP JUMPDEST PUSH0 PUSH1 0x20 DUP3 DUP5 SUB SLT ISZERO PUSH2 0x4FB JUMPI PUSH2 0x4FA PUSH2 0x4B8 JUMP JUMPDEST JUMPDEST PUSH0 PUSH2 0x508 DUP5 DUP3 DUP6 ADD PUSH2 0x4D2 JUMP JUMPDEST SWAP2 POP POP SWAP3 SWAP2 POP POP JUMP JUMPDEST PUSH32 0x4E487B7100000000000000000000000000000000000000000000000000000000 PUSH0 MSTORE PUSH1 0x11 PUSH1 0x4 MSTORE PUSH1 0x24 PUSH0 REVERT JUMPDEST PUSH0 DUP2 PUSH1 0x1 SHR SWAP1 POP SWAP2 SWAP1 POP JUMP JUMPDEST PUSH0 DUP1 DUP3 SWAP2 POP DUP4 SWAP1 POP JUMPDEST PUSH1 0x1 DUP6 GT ISZERO PUSH2 0x593 JUMPI DUP1 DUP7 DIV DUP2 GT ISZERO PUSH2 0x56F JUMPI PUSH2 0x56E PUSH2 0x511 JUMP JUMPDEST JUMPDEST PUSH1 0x1 DUP6 AND ISZERO PUSH2 0x57E JUMPI DUP1 DUP3 MUL SWAP2 POP JUMPDEST DUP1 DUP2 MUL SWAP1 POP PUSH2 0x58C DUP6 PUSH2 0x53E JUMP JUMPDEST SWAP5 POP PUSH2 0x553 JUMP JUMPDEST SWAP5 POP SWAP5 SWAP3 POP POP POP JUMP JUMPDEST PUSH0 DUP3 PUSH2 0x5AB JUMPI PUSH1 0x1 SWAP1 POP PUSH2 0x666 JUMP JUMPDEST DUP2 PUSH2 0x5B8 JUMPI PUSH0 SWAP1 POP PUSH2 0x666 JUMP JUMPDEST DUP2 PUSH1 0x1 DUP2 EQ PUSH2 0x5CE JUMPI PUSH1 0x2 DUP2 EQ PUSH2 0x5D8 JUMPI PUSH2 0x607 JUMP JUMPDEST PUSH1 0x1 SWAP2 POP POP PUSH2 0x666 JUMP JUMPDEST PUSH1 0xFF DUP5 GT ISZERO PUSH2 0x5EA JUMPI PUSH2 0x5E9 PUSH2 0x511 JUMP JUMPDEST JUMPDEST DUP4 PUSH1 0x2 EXP SWAP2 POP DUP5 DUP3 GT ISZERO PUSH2 0x601 JUMPI PUSH2 0x600 PUSH2 0x511 JUMP JUMPDEST JUMPDEST POP PUSH2 0x666 JUMP JUMPDEST POP PUSH1 0x20 DUP4 LT PUSH2 0x133 DUP4 LT AND PUSH1 0x4E DUP5 LT PUSH1 0xB DUP5 LT AND OR ISZERO PUSH2 0x63C JUMPI DUP3 DUP3 EXP SWAP1 POP DUP4 DUP2 GT ISZERO PUSH2 0x637 JUMPI PUSH2 0x636 PUSH2 0x511 JUMP JUMPDEST JUMPDEST PUSH2 0x666 JUMP JUMPDEST PUSH2 0x649 DUP5 DUP5 DUP5 PUSH1 0x1 PUSH2 0x54A JUMP JUMPDEST SWAP3 POP SWAP1 POP DUP2 DUP5 DIV DUP2 GT ISZERO PUSH2 0x660 JUMPI PUSH2 0x65F PUSH2 0x511 JUMP JUMPDEST JUMPDEST DUP2 DUP2 MUL SWAP1 POP JUMPDEST SWAP4 SWAP3 POP POP POP JUMP JUMPDEST PUSH0 PUSH2 0x677 DUP3 PUSH2 0x2C1 JUMP JUMPDEST SWAP2 POP PUSH2 0x682 DUP4 PUSH2 0x2C1 JUMP JUMPDEST SWAP3 POP PUSH2 0x6AF PUSH32 0xFFFFFFFFFFFFFFFFFFFFFFFFFFFFFFFFFFFFFFFFFFFFFFFFFFFFFFFFFFFFFFFF DUP5 DUP5 PUSH2 0x59C JUMP JUMPDEST SWAP1 POP SWAP3 SWAP2 POP POP JUMP JUMPDEST PUSH0 PUSH2 0x6C1 DUP3 PUSH2 0x2C1 JUMP JUMPDEST SWAP2 POP PUSH2 0x6CC DUP4 PUSH2 0x2C1 JUMP JUMPDEST SWAP3 POP DUP3 DUP3 MUL PUSH2 0x6DA DUP2 PUSH2 0x2C1 JUMP JUMPDEST SWAP2 POP DUP3 DUP3 DIV DUP5 EQ DUP4 ISZERO OR PUSH2 0x6F1 JUMPI PUSH2 0x6F0 PUSH2 0x511 JUMP JUMPDEST JUMPDEST POP SWAP3 SWAP2 POP POP JUMP JUMPDEST PUSH2 0x108D DUP1 PUSH2 0x705 PUSH0 CODECOPY PUSH0 RETURN INVALID PUSH1 0x80 PUSH1 0x40 MSTORE CALLVALUE DUP1 ISZERO PUSH2 0xF JUMPI PUSH0 DUP1 REVERT JUMPDEST POP PUSH1 0x4 CALLDATASIZE LT PUSH2 0x91 JUMPI PUSH0 CALLDATALOAD PUSH1 0xE0 SHR DUP1 PUSH4 0x70A08231 GT PUSH2 0x64 JUMPI DUP1 PUSH4 0x70A08231 EQ PUSH2 0x11F JUMPI DUP1 PUSH4 0x8DA5CB5B EQ PUSH2 0x14F JUMPI DUP1 PUSH4 0x95D89B41 EQ PUSH2 0x16D JUMPI DUP1 PUSH4 0xA0712D68 EQ PUSH2 0x18B JUMPI DUP1 PUSH4 0xA9059CBB EQ PUSH2 0x1BB JUMPI PUSH2 0x91 JUMP JUMPDEST DUP1 PUSH4 0x6FDDE03 EQ PUSH2 0x95 JUMPI DUP1 PUSH4 0x18160DDD EQ PUSH2 0xB3 JUMPI DUP1 PUSH4 0x313CE567 EQ PUSH2 0xD1 JUMPI DUP1 PUSH4 0x42966C68 EQ PUSH2 0xEF JUMPI JUMPDEST PUSH0 DUP1 REVERT JUMPDEST PUSH2 0x9D PUSH2 0x1EB JUMP JUMPDEST PUSH1 0x40 MLOAD PUSH2 0xAA SWAP2 SWAP1 PUSH2 0x9EB JUMP JUMPDEST PUSH1 0x40 MLOAD DUP1 SWAP2 SUB SWAP1 RETURN JUMPDEST PUSH2 0xBB PUSH2 0x276 JUMP JUMPDEST PUSH1 0x40 MLOAD PUSH2 0xC8 SWAP2 SWAP1 PUSH2 0xA23 JUMP JUMPDEST PUSH1 0x40 MLOAD DUP1 SWAP2 SUB SWAP1 RETURN JUMPDEST PUSH2 0xD9 PUSH2 0x27C JUMP JUMPDEST PUSH1 0x40 MLOAD PUSH2 0xE6 SWAP2 SWAP1 PUSH2 0xA57 JUMP JUMPDEST PUSH1 0x40 MLOAD DUP1 SWAP2 SUB SWAP1 RETURN JUMPDEST PUSH2 0x109 PUSH1 0x4 DUP1 CALLDATASIZE SUB DUP2 ADD SWAP1 PUSH2 0x104 SWAP2 SWAP1 PUSH2 0xA9E JUMP JUMPDEST PUSH2 0x28E JUMP JUMPDEST PUSH1 0x40 MLOAD PUSH2 0x116 SWAP2 SWAP1 PUSH2 0xAE3 JUMP JUMPDEST PUSH1 0x40 MLOAD DUP1 SWAP2 SUB SWAP1 RETURN JUMPDEST PUSH2 0x139 PUSH1 0x4 DUP1 CALLDATASIZE SUB DUP2 ADD SWAP1 PUSH2 0x134 SWAP2 SWAP1 PUSH2 0xB56 JUMP JUMPDEST PUSH2 0x4F0 JUMP JUMPDEST PUSH1 0x40 MLOAD PUSH2 0x146 SWAP2 SWAP1 PUSH2 0xA23 JUMP JUMPDEST PUSH1 0x40 MLOAD DUP1 SWAP2 SUB SWAP1 RETURN JUMPDEST PUSH2 0x157 PUSH2 0x505 JUMP JUMPDEST PUSH1 0x40 MLOAD PUSH2 0x164 SWAP2 SWAP1 PUSH2 0xB90 JUMP JUMPDEST PUSH1 0x40 MLOAD DUP1 SWAP2 SUB SWAP1 RETURN JUMPDEST PUSH2 0x175 PUSH2 0x52A JUMP JUMPDEST PUSH1 0x40 MLOAD PUSH2 0x182 SWAP2 SWAP1 PUSH2 0x9EB JUMP JUMPDEST PUSH1 0x40 MLOAD DUP1 SWAP2 SUB SWAP1 RETURN JUMPDEST PUSH2 0x1A5 PUSH1 0x4 DUP1 CALLDATASIZE SUB DUP2 ADD SWAP1 PUSH2 0x1A0 SWAP2 SWAP1 PUSH2 0xA9E JUMP JUMPDEST PUSH2 0x5B6 JUMP JUMPDEST PUSH1 0x40 MLOAD PUSH2 0x1B2 SWAP2 SWAP1 PUSH2 0xAE3 JUMP JUMPDEST PUSH1 0x40 MLOAD DUP1 SWAP2 SUB SWAP1 RETURN JUMPDEST PUSH2 0x1D5 PUSH1 0x4 DUP1 CALLDATASIZE SUB DUP2 ADD SWAP1 PUSH2 0x1D0 SWAP2 SWAP1 PUSH2 0xBA9 JUMP JUMPDEST PUSH2 0x777 JUMP JUMPDEST PUSH1 0x40 MLOAD PUSH2 0x1E2 SWAP2 SWAP1 PUSH2 0xAE3 JUMP JUMPDEST PUSH1 0x40 MLOAD DUP1 SWAP2 SUB SWAP1 RETURN JUMPDEST PUSH0 DUP1 SLOAD PUSH2 0x1F7 SWAP1 PUSH2 0xC14 JUMP JUMPDEST DUP1 PUSH1 0x1F ADD PUSH1 0x20 DUP1 SWAP2 DIV MUL PUSH1 0x20 ADD PUSH1 0x40 MLOAD SWAP1 DUP2 ADD PUSH1 0x40 MSTORE DUP1 SWAP3 SWAP2 SWAP1 DUP2 DUP2 MSTORE PUSH1 0x20 ADD DUP3 DUP1 SLOAD PUSH2 0x223 SWAP1 PUSH2 0xC14 JUMP JUMPDEST DUP1 ISZERO PUSH2 0x26E JUMPI DUP1 PUSH1 0x1F LT PUSH2 0x245 JUMPI PUSH2 0x100 DUP1 DUP4 SLOAD DIV MUL DUP4 MSTORE SWAP2 PUSH1 0x20 ADD SWAP2 PUSH2 0x26E JUMP JUMPDEST DUP3 ADD SWAP2 SWAP1 PUSH0 MSTORE PUSH1 0x20 PUSH0 KECCAK256 SWAP1 JUMPDEST DUP2 SLOAD DUP2 MSTORE SWAP1 PUSH1 0x1 ADD SWAP1 PUSH1 0x20 ADD DUP1 DUP4 GT PUSH2 0x251 JUMPI DUP3 SWAP1 SUB PUSH1 0x1F AND DUP3 ADD SWAP2 JUMPDEST POP POP POP POP POP DUP2 JUMP JUMPDEST PUSH1 0x3 SLOAD DUP2 JUMP JUMPDEST PUSH1 0x2 PUSH0 SWAP1 SLOAD SWAP1 PUSH2 0x100 EXP SWAP1 DIV PUSH1 0xFF AND DUP2 JUMP JUMPDEST PUSH0 PUSH1 0x4 PUSH0 SWAP1 SLOAD SWAP1 PUSH2 0x100 EXP SWAP1 DIV PUSH20 0xFFFFFFFFFFFFFFFFFFFFFFFFFFFFFFFFFFFFFFFF AND PUSH20 0xFFFFFFFFFFFFFFFFFFFFFFFFFFFFFFFFFFFFFFFF AND CALLER PUSH20 0xFFFFFFFFFFFFFFFFFFFFFFFFFFFFFFFFFFFFFFFF AND EQ PUSH2 0x31E JUMPI PUSH1 0x40 MLOAD PUSH32 0x8C379A000000000000000000000000000000000000000000000000000000000 DUP2 MSTORE PUSH1 0x4 ADD PUSH2 0x315 SWAP1 PUSH2 0xCB4 JUMP JUMPDEST PUSH1 0x40 MLOAD DUP1 SWAP2 SUB SWAP1 REVERT JUMPDEST PUSH0 PUSH1 0x2 PUSH0 SWAP1 SLOAD SWAP1 PUSH2 0x100 EXP SWAP1 DIV PUSH1 0xFF AND PUSH1 0xFF AND PUSH1 0xA PUSH2 0x33D SWAP2 SWAP1 PUSH2 0xE2E JUMP JUMPDEST DUP4 PUSH2 0x348 SWAP2 SWAP1 PUSH2 0xE78 JUMP JUMPDEST SWAP1 POP DUP1 PUSH1 0x5 PUSH0 PUSH1 0x4 PUSH0 SWAP1 SLOAD SWAP1 PUSH2 0x100 EXP SWAP1 DIV PUSH20 0xFFFFFFFFFFFFFFFFFFFFFFFFFFFFFFFFFFFFFFFF AND PUSH20 0xFFFFFFFFFFFFFFFFFFFFFFFFFFFFFFFFFFFFFFFF AND PUSH20 0xFFFFFFFFFFFFFFFFFFFFFFFFFFFFFFFFFFFFFFFF AND DUP2 MSTORE PUSH1 0x20 ADD SWAP1 DUP2 MSTORE PUSH1 0x20 ADD PUSH0 KECCAK256 SLOAD LT ISZERO PUSH2 0x3EB JUMPI PUSH1 0x40 MLOAD PUSH32 0x8C379A000000000000000000000000000000000000000000000000000000000 DUP2 MSTORE PUSH1 0x4 ADD PUSH2 0x3E2 SWAP1 PUSH2 0xF03 JUMP JUMPDEST PUSH1 0x40 MLOAD DUP1 SWAP2 SUB SWAP1 REVERT JUMPDEST DUP1 PUSH1 0x3 PUSH0 DUP3 DUP3 SLOAD PUSH2 0x3FC SWAP2 SWAP1 PUSH2 0xF21 JUMP JUMPDEST SWAP3 POP POP DUP2 SWAP1 SSTORE POP DUP1 PUSH1 0x5 PUSH0 PUSH1 0x4 PUSH0 SWAP1 SLOAD SWAP1 PUSH2 0x100 EXP SWAP1 DIV PUSH20 0xFFFFFFFFFFFFFFFFFFFFFFFFFFFFFFFFFFFFFFFF AND PUSH20 0xFFFFFFFFFFFFFFFFFFFFFFFFFFFFFFFFFFFFFFFF AND PUSH20 0xFFFFFFFFFFFFFFFFFFFFFFFFFFFFFFFFFFFFFFFF AND DUP2 MSTORE PUSH1 0x20 ADD SWAP1 DUP2 MSTORE PUSH1 0x20 ADD PUSH0 KECCAK256 PUSH0 DUP3 DUP3 SLOAD PUSH2 0x470 SWAP2 SWAP1 PUSH2 0xF21 JUMP JUMPDEST SWAP3 POP POP DUP2 SWAP1 SSTORE POP PUSH1 0x4 PUSH0 SWAP1 SLOAD SWAP1 PUSH2 0x100 EXP SWAP1 DIV PUSH20 0xFFFFFFFFFFFFFFFFFFFFFFFFFFFFFFFFFFFFFFFF AND PUSH20 0xFFFFFFFFFFFFFFFFFFFFFFFFFFFFFFFFFFFFFFFF AND PUSH32 0xCC16F5DBB4873280815C1EE09DBD06736CFFCC184412CF7A71A0FDB75D397CA5 DUP3 PUSH1 0x40 MLOAD PUSH2 0x4DE SWAP2 SWAP1 PUSH2 0xA23 JUMP JUMPDEST PUSH1 0x40 MLOAD DUP1 SWAP2 SUB SWAP1 LOG2 PUSH1 0x1 SWAP2 POP POP SWAP2 SWAP1 POP JUMP JUMPDEST PUSH1 0x5 PUSH1 0x20 MSTORE DUP1 PUSH0 MSTORE PUSH1 0x40 PUSH0 KECCAK256 PUSH0 SWAP2 POP SWAP1 POP SLOAD DUP2 JUMP JUMPDEST PUSH1 0x4 PUSH0 SWAP1 SLOAD SWAP1 PUSH2 0x100 EXP SWAP1 DIV PUSH20 0xFFFFFFFFFFFFFFFFFFFFFFFFFFFFFFFFFFFFFFFF AND DUP2 JUMP JUMPDEST PUSH1 0x1 DUP1 SLOAD PUSH2 0x537 SWAP1 PUSH2 0xC14 JUMP JUMPDEST DUP1 PUSH1 0x1F ADD PUSH1 0x20 DUP1 SWAP2 DIV MUL PUSH1 0x20 ADD PUSH1 0x40 MLOAD SWAP1 DUP2 ADD PUSH1 0x40 MSTORE DUP1 SWAP3 SWAP2 SWAP1 DUP2 DUP2 MSTORE PUSH1 0x20 ADD DUP3 DUP1 SLOAD PUSH2 0x563 SWAP1 PUSH2 0xC14 JUMP JUMPDEST DUP1 ISZERO PUSH2 0x5AE JUMPI DUP1 PUSH1 0x1F LT PUSH2 0x585 JUMPI PUSH2 0x100 DUP1 DUP4 SLOAD DIV MUL DUP4 MSTORE SWAP2 PUSH1 0x20 ADD SWAP2 PUSH2 0x5AE JUMP JUMPDEST DUP3 ADD SWAP2 SWAP1 PUSH0 MSTORE PUSH1 0x20 PUSH0 KECCAK256 SWAP1 JUMPDEST DUP2 SLOAD DUP2 MSTORE SWAP1 PUSH1 0x1 ADD SWAP1 PUSH1 0x20 ADD DUP1 DUP4 GT PUSH2 0x591 JUMPI DUP3 SWAP1 SUB PUSH1 0x1F AND DUP3 ADD SWAP2 JUMPDEST POP POP POP POP POP DUP2 JUMP JUMPDEST PUSH0 PUSH1 0x4 PUSH0 SWAP1 SLOAD SWAP1 PUSH2 0x100 EXP SWAP1 DIV PUSH20 0xFFFFFFFFFFFFFFFFFFFFFFFFFFFFFFFFFFFFFFFF AND PUSH20 0xFFFFFFFFFFFFFFFFFFFFFFFFFFFFFFFFFFFFFFFF AND CALLER PUSH20 0xFFFFFFFFFFFFFFFFFFFFFFFFFFFFFFFFFFFFFFFF AND EQ PUSH2 0x646 JUMPI PUSH1 0x40 MLOAD PUSH32 0x8C379A000000000000000000000000000000000000000000000000000000000 DUP2 MSTORE PUSH1 0x4 ADD PUSH2 0x63D SWAP1 PUSH2 0xCB4 JUMP JUMPDEST PUSH1 0x40 MLOAD DUP1 SWAP2 SUB SWAP1 REVERT JUMPDEST PUSH0 PUSH1 0x2 PUSH0 SWAP1 SLOAD SWAP1 PUSH2 0x100 EXP SWAP1 DIV PUSH1 0xFF AND PUSH1 0xFF AND PUSH1 0xA PUSH2 0x665 SWAP2 SWAP1 PUSH2 0xE2E JUMP JUMPDEST DUP4 PUSH2 0x670 SWAP2 SWAP1 PUSH2 0xE78 JUMP JUMPDEST SWAP1 POP DUP1 PUSH1 0x3 PUSH0 DUP3 DUP3 SLOAD PUSH2 0x683 SWAP2 SWAP1 PUSH2 0xF54 JUMP JUMPDEST SWAP3 POP POP DUP2 SWAP1 SSTORE POP DUP1 PUSH1 0x5 PUSH0 PUSH1 0x4 PUSH0 SWAP1 SLOAD SWAP1 PUSH2 0x100 EXP SWAP1 DIV PUSH20 0xFFFFFFFFFFFFFFFFFFFFFFFFFFFFFFFFFFFFFFFF AND PUSH20 0xFFFFFFFFFFFFFFFFFFFFFFFFFFFFFFFFFFFFFFFF AND PUSH20 0xFFFFFFFFFFFFFFFFFFFFFFFFFFFFFFFFFFFFFFFF AND DUP2 MSTORE PUSH1 0x20 ADD SWAP1 DUP2 MSTORE PUSH1 0x20 ADD PUSH0 KECCAK256 PUSH0 DUP3 DUP3 SLOAD PUSH2 0x6F7 SWAP2 SWAP1 PUSH2 0xF54 JUMP JUMPDEST SWAP3 POP POP DUP2 SWAP1 SSTORE POP PUSH1 0x4 PUSH0 SWAP1 SLOAD SWAP1 PUSH2 0x100 EXP SWAP1 DIV PUSH20 0xFFFFFFFFFFFFFFFFFFFFFFFFFFFFFFFFFFFFFFFF AND PUSH20 0xFFFFFFFFFFFFFFFFFFFFFFFFFFFFFFFFFFFFFFFF AND PUSH32 0xF6798A560793A54C3BCFE86A93CDE1E73087D944C0EA20544137D4121396885 DUP3 PUSH1 0x40 MLOAD PUSH2 0x765 SWAP2 SWAP1 PUSH2 0xA23 JUMP JUMPDEST PUSH1 0x40 MLOAD DUP1 SWAP2 SUB SWAP1 LOG2 PUSH1 0x1 SWAP2 POP POP SWAP2 SWAP1 POP JUMP JUMPDEST PUSH0 DUP2 PUSH1 0x5 PUSH0 CALLER PUSH20 0xFFFFFFFFFFFFFFFFFFFFFFFFFFFFFFFFFFFFFFFF AND PUSH20 0xFFFFFFFFFFFFFFFFFFFFFFFFFFFFFFFFFFFFFFFF AND DUP2 MSTORE PUSH1 0x20 ADD SWAP1 DUP2 MSTORE PUSH1 0x20 ADD PUSH0 KECCAK256 SLOAD LT ISZERO PUSH2 0x7F8 JUMPI PUSH1 0x40 MLOAD PUSH32 0x8C379A000000000000000000000000000000000000000000000000000000000 DUP2 MSTORE PUSH1 0x4 ADD PUSH2 0x7EF SWAP1 PUSH2 0xFD1 JUMP JUMPDEST PUSH1 0x40 MLOAD DUP1 SWAP2 SUB SWAP1 REVERT JUMPDEST PUSH0 PUSH20 0xFFFFFFFFFFFFFFFFFFFFFFFFFFFFFFFFFFFFFFFF AND DUP4 PUSH20 0xFFFFFFFFFFFFFFFFFFFFFFFFFFFFFFFFFFFFFFFF AND SUB PUSH2 0x866 JUMPI PUSH1 0x40 MLOAD PUSH32 0x8C379A000000000000000000000000000000000000000000000000000000000 DUP2 MSTORE PUSH1 0x4 ADD PUSH2 0x85D SWAP1 PUSH2 0x1039 JUMP JUMPDEST PUSH1 0x40 MLOAD DUP1 SWAP2 SUB SWAP1 REVERT JUMPDEST DUP2 PUSH1 0x5 PUSH0 CALLER PUSH20 0xFFFFFFFFFFFFFFFFFFFFFFFFFFFFFFFFFFFFFFFF AND PUSH20 0xFFFFFFFFFFFFFFFFFFFFFFFFFFFFFFFFFFFFFFFF AND DUP2 MSTORE PUSH1 0x20 ADD SWAP1 DUP2 MSTORE PUSH1 0x20 ADD PUSH0 KECCAK256 PUSH0 DUP3 DUP3 SLOAD PUSH2 0x8B2 SWAP2 SWAP1 PUSH2 0xF21 JUMP JUMPDEST SWAP3 POP POP DUP2 SWAP1 SSTORE POP DUP2 PUSH1 0x5 PUSH0 DUP6 PUSH20 0xFFFFFFFFFFFFFFFFFFFFFFFFFFFFFFFFFFFFFFFF AND PUSH20 0xFFFFFFFFFFFFFFFFFFFFFFFFFFFFFFFFFFFFFFFF AND DUP2 MSTORE PUSH1 0x20 ADD SWAP1 DUP2 MSTORE PUSH1 0x20 ADD PUSH0 KECCAK256 PUSH0 DUP3 DUP3 SLOAD PUSH2 0x905 SWAP2 SWAP1 PUSH2 0xF54 JUMP JUMPDEST SWAP3 POP POP DUP2 SWAP1 SSTORE POP DUP3 PUSH20 0xFFFFFFFFFFFFFFFFFFFFFFFFFFFFFFFFFFFFFFFF AND CALLER PUSH20 0xFFFFFFFFFFFFFFFFFFFFFFFFFFFFFFFFFFFFFFFF AND PUSH32 0xDDF252AD1BE2C89B69C2B068FC378DAA952BA7F163C4A11628F55A4DF523B3EF DUP5 PUSH1 0x40 MLOAD PUSH2 0x969 SWAP2 SWAP1 PUSH2 0xA23 JUMP JUMPDEST PUSH1 0x40 MLOAD DUP1 SWAP2 SUB SWAP1 LOG3 PUSH1 0x1 SWAP1 POP SWAP3 SWAP2 POP POP JUMP JUMPDEST PUSH0 DUP2 MLOAD SWAP1 POP SWAP2 SWAP1 POP JUMP JUMPDEST PUSH0 DUP3 DUP3 MSTORE PUSH1 0x20 DUP3 ADD SWAP1 POP SWAP3 SWAP2 POP POP JUMP JUMPDEST DUP3 DUP2 DUP4 MCOPY PUSH0 DUP4 DUP4 ADD MSTORE POP POP POP JUMP JUMPDEST PUSH0 PUSH1 0x1F NOT PUSH1 0x1F DUP4 ADD AND SWAP1 POP SWAP2 SWAP1 POP JUMP JUMPDEST PUSH0 PUSH2 0x9BD DUP3 PUSH2 0x97B JUMP JUMPDEST PUSH2 0x9C7 DUP2 DUP6 PUSH2 0x985 JUMP JUMPDEST SWAP4 POP PUSH2 0x9D7 DUP2 DUP6 PUSH1 0x20 DUP7 ADD PUSH2 0x995 JUMP JUMPDEST PUSH2 0x9E0 DUP2 PUSH2 0x9A3 JUMP JUMPDEST DUP5 ADD SWAP2 POP POP SWAP3 SWAP2 POP POP JUMP JUMPDEST PUSH0 PUSH1 0x20 DUP3 ADD SWAP1 POP DUP2 DUP2 SUB PUSH0 DUP4 ADD MSTORE PUSH2 0xA03 DUP2 DUP5 PUSH2 0x9B3 JUMP JUMPDEST SWAP1 POP SWAP3 SWAP2 POP POP JUMP JUMPDEST PUSH0 DUP2 SWAP1 POP SWAP2 SWAP1 POP JUMP JUMPDEST PUSH2 0xA1D DUP2 PUSH2 0xA0B JUMP JUMPDEST DUP3 MSTORE POP POP JUMP JUMPDEST PUSH0 PUSH1 0x20 DUP3 ADD SWAP1 POP PUSH2 0xA36 PUSH0 DUP4 ADD DUP5 PUSH2 0xA14 JUMP JUMPDEST SWAP3 SWAP2 POP POP JUMP JUMPDEST PUSH0 PUSH1 0xFF DUP3 AND SWAP1 POP SWAP2 SWAP1 POP JUMP JUMPDEST PUSH2 0xA51 DUP2 PUSH2 0xA3C JUMP JUMPDEST DUP3 MSTORE POP POP JUMP JUMPDEST PUSH0 PUSH1 0x20 DUP3 ADD SWAP1 POP PUSH2 0xA6A PUSH0 DUP4 ADD DUP5 PUSH2 0xA48 JUMP JUMPDEST SWAP3 SWAP2 POP POP JUMP JUMPDEST PUSH0 DUP1 REVERT JUMPDEST PUSH2 0xA7D DUP2 PUSH2 0xA0B JUMP JUMPDEST DUP2 EQ PUSH2 0xA87 JUMPI PUSH0 DUP1 REVERT JUMPDEST POP JUMP JUMPDEST PUSH0 DUP2 CALLDATALOAD SWAP1 POP PUSH2 0xA98 DUP2 PUSH2 0xA74 JUMP JUMPDEST SWAP3 SWAP2 POP POP JUMP JUMPDEST PUSH0 PUSH1 0x20 DUP3 DUP5 SUB SLT ISZERO PUSH2 0xAB3 JUMPI PUSH2 0xAB2 PUSH2 0xA70 JUMP JUMPDEST JUMPDEST PUSH0 PUSH2 0xAC0 DUP5 DUP3 DUP6 ADD PUSH2 0xA8A JUMP JUMPDEST SWAP2 POP POP SWAP3 SWAP2 POP POP JUMP JUMPDEST PUSH0 DUP2 ISZERO ISZERO SWAP1 POP SWAP2 SWAP1 POP JUMP JUMPDEST PUSH2 0xADD DUP2 PUSH2 0xAC9 JUMP JUMPDEST DUP3 MSTORE POP POP JUMP JUMPDEST PUSH0 PUSH1 0x20 DUP3 ADD SWAP1 POP PUSH2 0xAF6 PUSH0 DUP4 ADD DUP5 PUSH2 0xAD4 JUMP JUMPDEST SWAP3 SWAP2 POP POP JUMP JUMPDEST PUSH0 PUSH20 0xFFFFFFFFFFFFFFFFFFFFFFFFFFFFFFFFFFFFFFFF DUP3 AND SWAP1 POP SWAP2 SWAP1 POP JUMP JUMPDEST PUSH0 PUSH2 0xB25 DUP3 PUSH2 0xAFC JUMP JUMPDEST SWAP1 POP SWAP2 SWAP1 POP JUMP JUMPDEST PUSH2 0xB35 DUP2 PUSH2 0xB1B JUMP JUMPDEST DUP2 EQ PUSH2 0xB3F JUMPI PUSH0 DUP1 REVERT JUMPDEST POP JUMP JUMPDEST PUSH0 DUP2 CALLDATALOAD SWAP1 POP PUSH2 0xB50 DUP2 PUSH2 0xB2C JUMP JUMPDEST SWAP3 SWAP2 POP POP JUMP JUMPDEST PUSH0 PUSH1 0x20 DUP3 DUP5 SUB SLT ISZERO PUSH2 0xB6B JUMPI PUSH2 0xB6A PUSH2 0xA70 JUMP JUMPDEST JUMPDEST PUSH0 PUSH2 0xB78 DUP5 DUP3 DUP6 ADD PUSH2 0xB42 JUMP JUMPDEST SWAP2 POP POP SWAP3 SWAP2 POP POP JUMP JUMPDEST PUSH2 0xB8A DUP2 PUSH2 0xB1B JUMP JUMPDEST DUP3 MSTORE POP POP JUMP JUMPDEST PUSH0 PUSH1 0x20 DUP3 ADD SWAP1 POP PUSH2 0xBA3 PUSH0 DUP4 ADD DUP5 PUSH2 0xB81 JUMP JUMPDEST SWAP3 SWAP2 POP POP JUMP JUMPDEST PUSH0 DUP1 PUSH1 0x40 DUP4 DUP6 SUB SLT ISZERO PUSH2 0xBBF JUMPI PUSH2 0xBBE PUSH2 0xA70 JUMP JUMPDEST JUMPDEST PUSH0 PUSH2 0xBCC DUP6 DUP3 DUP7 ADD PUSH2 0xB42 JUMP JUMPDEST SWAP3 POP POP PUSH1 0x20 PUSH2 0xBDD DUP6 DUP3 DUP7 ADD PUSH2 0xA8A JUMP JUMPDEST SWAP2 POP POP SWAP3 POP SWAP3 SWAP1 POP JUMP JUMPDEST PUSH32 0x4E487B7100000000000000000000000000000000000000000000000000000000 PUSH0 MSTORE PUSH1 0x22 PUSH1 0x4 MSTORE PUSH1 0x24 PUSH0 REVERT JUMPDEST PUSH0 PUSH1 0x2 DUP3 DIV SWAP1 POP PUSH1 0x1 DUP3 AND DUP1 PUSH2 0xC2B JUMPI PUSH1 0x7F DUP3 AND SWAP2 POP JUMPDEST PUSH1 0x20 DUP3 LT DUP2 SUB PUSH2 0xC3E JUMPI PUSH2 0xC3D PUSH2 0xBE7 JUMP JUMPDEST JUMPDEST POP SWAP2 SWAP1 POP JUMP JUMPDEST PUSH32 0x4F6E6C79206F776E65722063616E2063616C6C20746869732066756E6374696F PUSH0 DUP3 ADD MSTORE PUSH32 0x6E00000000000000000000000000000000000000000000000000000000000000 PUSH1 0x20 DUP3 ADD MSTORE POP JUMP JUMPDEST PUSH0 PUSH2 0xC9E PUSH1 0x21 DUP4 PUSH2 0x985 JUMP JUMPDEST SWAP2 POP PUSH2 0xCA9 DUP3 PUSH2 0xC44 JUMP JUMPDEST PUSH1 0x40 DUP3 ADD SWAP1 POP SWAP2 SWAP1 POP JUMP JUMPDEST PUSH0 PUSH1 0x20 DUP3 ADD SWAP1 POP DUP2 DUP2 SUB PUSH0 DUP4 ADD MSTORE PUSH2 0xCCB DUP2 PUSH2 0xC92 JUMP JUMPDEST SWAP1 POP SWAP2 SWAP1 POP JUMP JUMPDEST PUSH32 0x4E487B7100000000000000000000000000000000000000000000000000000000 PUSH0 MSTORE PUSH1 0x11 PUSH1 0x4 MSTORE PUSH1 0x24 PUSH0 REVERT JUMPDEST PUSH0 DUP2 PUSH1 0x1 SHR SWAP1 POP SWAP2 SWAP1 POP JUMP JUMPDEST PUSH0 DUP1 DUP3 SWAP2 POP DUP4 SWAP1 POP JUMPDEST PUSH1 0x1 DUP6 GT ISZERO PUSH2 0xD54 JUMPI DUP1 DUP7 DIV DUP2 GT ISZERO PUSH2 0xD30 JUMPI PUSH2 0xD2F PUSH2 0xCD2 JUMP JUMPDEST JUMPDEST PUSH1 0x1 DUP6 AND ISZERO PUSH2 0xD3F JUMPI DUP1 DUP3 MUL SWAP2 POP JUMPDEST DUP1 DUP2 MUL SWAP1 POP PUSH2 0xD4D DUP6 PUSH2 0xCFF JUMP JUMPDEST SWAP5 POP PUSH2 0xD14 JUMP JUMPDEST SWAP5 POP SWAP5 SWAP3 POP POP POP JUMP JUMPDEST PUSH0 DUP3 PUSH2 0xD6C JUMPI PUSH1 0x1 SWAP1 POP PUSH2 0xE27 JUMP JUMPDEST DUP2 PUSH2 0xD79 JUMPI PUSH0 SWAP1 POP PUSH2 0xE27 JUMP JUMPDEST DUP2 PUSH1 0x1 DUP2 EQ PUSH2 0xD8F JUMPI PUSH1 0x2 DUP2 EQ PUSH2 0xD99 JUMPI PUSH2 0xDC8 JUMP JUMPDEST PUSH1 0x1 SWAP2 POP POP PUSH2 0xE27 JUMP JUMPDEST PUSH1 0xFF DUP5 GT ISZERO PUSH2 0xDAB JUMPI PUSH2 0xDAA PUSH2 0xCD2 JUMP JUMPDEST JUMPDEST DUP4 PUSH1 0x2 EXP SWAP2 POP DUP5 DUP3 GT ISZERO PUSH2 0xDC2 JUMPI PUSH2 0xDC1 PUSH2 0xCD2 JUMP JUMPDEST JUMPDEST POP PUSH2 0xE27 JUMP JUMPDEST POP PUSH1 0x20 DUP4 LT PUSH2 0x133 DUP4 LT AND PUSH1 0x4E DUP5 LT PUSH1 0xB DUP5 LT AND OR ISZERO PUSH2 0xDFD JUMPI DUP3 DUP3 EXP SWAP1 POP DUP4 DUP2 GT ISZERO PUSH2 0xDF8 JUMPI PUSH2 0xDF7 PUSH2 0xCD2 JUMP JUMPDEST JUMPDEST PUSH2 0xE27 JUMP JUMPDEST PUSH2 0xE0A DUP5 DUP5 DUP5 PUSH1 0x1 PUSH2 0xD0B JUMP JUMPDEST SWAP3 POP SWAP1 POP DUP2 DUP5 DIV DUP2 GT ISZERO PUSH2 0xE21 JUMPI PUSH2 0xE20 PUSH2 0xCD2 JUMP JUMPDEST JUMPDEST DUP2 DUP2 MUL SWAP1 POP JUMPDEST SWAP4 SWAP3 POP POP POP JUMP JUMPDEST PUSH0 PUSH2 0xE38 DUP3 PUSH2 0xA0B JUMP JUMPDEST SWAP2 POP PUSH2 0xE43 DUP4 PUSH2 0xA0B JUMP JUMPDEST SWAP3 POP PUSH2 0xE70 PUSH32 0xFFFFFFFFFFFFFFFFFFFFFFFFFFFFFFFFFFFFFFFFFFFFFFFFFFFFFFFFFFFFFFFF DUP5 DUP5 PUSH2 0xD5D JUMP JUMPDEST SWAP1 POP SWAP3 SWAP2 POP POP JUMP JUMPDEST PUSH0 PUSH2 0xE82 DUP3 PUSH2 0xA0B JUMP JUMPDEST SWAP2 POP PUSH2 0xE8D DUP4 PUSH2 0xA0B JUMP JUMPDEST SWAP3 POP DUP3 DUP3 MUL PUSH2 0xE9B DUP2 PUSH2 0xA0B JUMP JUMPDEST SWAP2 POP DUP3 DUP3 DIV DUP5 EQ DUP4 ISZERO OR PUSH2 0xEB2 JUMPI PUSH2 0xEB1 PUSH2 0xCD2 JUMP JUMPDEST JUMPDEST POP SWAP3 SWAP2 POP POP JUMP JUMPDEST PUSH32 0x496E73756666696369656E742062616C616E636520746F206275726E00000000 PUSH0 DUP3 ADD MSTORE POP JUMP JUMPDEST PUSH0 PUSH2 0xEED PUSH1 0x1C DUP4 PUSH2 0x985 JUMP JUMPDEST SWAP2 POP PUSH2 0xEF8 DUP3 PUSH2 0xEB9 JUMP JUMPDEST PUSH1 0x20 DUP3 ADD SWAP1 POP SWAP2 SWAP1 POP JUMP JUMPDEST PUSH0 PUSH1 0x20 DUP3 ADD SWAP1 POP DUP2 DUP2 SUB PUSH0 DUP4 ADD MSTORE PUSH2 0xF1A DUP2 PUSH2 0xEE1 JUMP JUMPDEST SWAP1 POP SWAP2 SWAP1 POP JUMP JUMPDEST PUSH0 PUSH2 0xF2B DUP3 PUSH2 0xA0B JUMP JUMPDEST SWAP2 POP PUSH2 0xF36 DUP4 PUSH2 0xA0B JUMP JUMPDEST SWAP3 POP DUP3 DUP3 SUB SWAP1 POP DUP2 DUP2 GT ISZERO PUSH2 0xF4E JUMPI PUSH2 0xF4D PUSH2 0xCD2 JUMP JUMPDEST JUMPDEST SWAP3 SWAP2 POP POP JUMP JUMPDEST PUSH0 PUSH2 0xF5E DUP3 PUSH2 0xA0B JUMP JUMPDEST SWAP2 POP PUSH2 0xF69 DUP4 PUSH2 0xA0B JUMP JUMPDEST SWAP3 POP DUP3 DUP3 ADD SWAP1 POP DUP1 DUP3 GT ISZERO PUSH2 0xF81 JUMPI PUSH2 0xF80 PUSH2 0xCD2 JUMP JUMPDEST JUMPDEST SWAP3 SWAP2 POP POP JUMP JUMPDEST PUSH32 0x496E73756666696369656E742062616C616E6365000000000000000000000000 PUSH0 DUP3 ADD MSTORE POP JUMP JUMPDEST PUSH0 PUSH2 0xFBB PUSH1 0x14 DUP4 PUSH2 0x985 JUMP JUMPDEST SWAP2 POP PUSH2 0xFC6 DUP3 PUSH2 0xF87 JUMP JUMPDEST PUSH1 0x20 DUP3 ADD SWAP1 POP SWAP2 SWAP1 POP JUMP JUMPDEST PUSH0 PUSH1 0x20 DUP3 ADD SWAP1 POP DUP2 DUP2 SUB PUSH0 DUP4 ADD MSTORE PUSH2 0xFE8 DUP2 PUSH2 0xFAF JUMP JUMPDEST SWAP1 POP SWAP2 SWAP1 POP JUMP JUMPDEST PUSH32 0x496E76616C696420616464726573730000000000000000000000000000000000 PUSH0 DUP3 ADD MSTORE POP JUMP JUMPDEST PUSH0 PUSH2 0x1023 PUSH1 0xF DUP4 PUSH2 0x985 JUMP JUMPDEST SWAP2 POP PUSH2 0x102E DUP3 PUSH2 0xFEF JUMP JUMPDEST PUSH1 0x20 DUP3 ADD SWAP1 POP SWAP2 SWAP1 POP JUMP JUMPDEST PUSH0 PUSH1 0x20 DUP3 ADD SWAP1 POP DUP2 DUP2 SUB PUSH0 DUP4 ADD MSTORE PUSH2 0x1050 DUP2 PUSH2 0x1017 JUMP JUMPDEST SWAP1 POP SWAP2 SWAP1 POP JUMP INVALID LOG2 PUSH5 0x6970667358 0x22 SLT KECCAK256 STOP MSTORE8 SDIV 0xB0 BLOBBASEFEE 0xC0 DUP16 0xD8 SGT PUSH1 0x87 0x23 0x2C SELFBALANCE 0xB4 GT DUP13 0xE9 SGT AND 0xE 0xFB DUP1 SIGNEXTEND 0xAA CALLDATACOPY 0xD0 0xD4 0xBD SAR GAS 0x1F PUSH5 0x736F6C6343 STOP ADDMOD BYTE STOP CALLER "
		},
		"gasEstimates": {
			"creation": {
				"codeDepositCost": "847400",
				"executionCost": "infinite",
				"totalCost": "infinite"
			},
			"external": {
				"balanceOf(address)": "2802",
				"burn(uint256)": "infinite",
				"decimals()": "2511",
				"mint(uint256)": "infinite",
				"name()": "infinite",
				"owner()": "2530",
				"symbol()": "infinite",
				"totalSupply()": "2448",
				"transfer(address,uint256)": "infinite"
			}
		},
		"methodIdentifiers": {
			"balanceOf(address)": "70a08231",
			"burn(uint256)": "42966c68",
			"decimals()": "313ce567",
			"mint(uint256)": "a0712d68",
			"name()": "06fdde03",
			"owner()": "8da5cb5b",
			"symbol()": "95d89b41",
			"totalSupply()": "18160ddd",
			"transfer(address,uint256)": "a9059cbb"
		}
	},
	"abi": [
		{
			"inputs": [
				{
					"internalType": "uint256",
					"name": "_initialSupply",
					"type": "uint256"
				}
			],
			"stateMutability": "nonpayable",
			"type": "constructor"
		},
		{
			"anonymous": false,
			"inputs": [
				{
					"indexed": true,
					"internalType": "address",
					"name": "from",
					"type": "address"
				},
				{
					"indexed": false,
					"internalType": "uint256",
					"name": "value",
					"type": "uint256"
				}
			],
			"name": "Burn",
			"type": "event"
		},
		{
			"anonymous": false,
			"inputs": [
				{
					"indexed": true,
					"internalType": "address",
					"name": "to",
					"type": "address"
				},
				{
					"indexed": false,
					"internalType": "uint256",
					"name": "value",
					"type": "uint256"
				}
			],
			"name": "Mint",
			"type": "event"
		},
		{
			"anonymous": false,
			"inputs": [
				{
					"indexed": true,
					"internalType": "address",
					"name": "from",
					"type": "address"
				},
				{
					"indexed": true,
					"internalType": "address",
					"name": "to",
					"type": "address"
				},
				{
					"indexed": false,
					"internalType": "uint256",
					"name": "value",
					"type": "uint256"
				}
			],
			"name": "Transfer",
			"type": "event"
		},
		{
			"inputs": [
				{
					"internalType": "address",
					"name": "",
					"type": "address"
				}
			],
			"name": "balanceOf",
			"outputs": [
				{
					"internalType": "uint256",
					"name": "",
					"type": "uint256"
				}
			],
			"stateMutability": "view",
			"type": "function"
		},
		{
			"inputs": [
				{
					"internalType": "uint256",
					"name": "_value",
					"type": "uint256"
				}
			],
			"name": "burn",
			"outputs": [
				{
					"internalType": "bool",
					"name": "success",
					"type": "bool"
				}
			],
			"stateMutability": "nonpayable",
			"type": "function"
		},
		{
			"inputs": [],
			"name": "decimals",
			"outputs": [
				{
					"internalType": "uint8",
					"name": "",
					"type": "uint8"
				}
			],
			"stateMutability": "view",
			"type": "function"
		},
		{
			"inputs": [
				{
					"internalType": "uint256",
					"name": "_value",
					"type": "uint256"
				}
			],
			"name": "mint",
			"outputs": [
				{
					"internalType": "bool",
					"name": "success",
					"type": "bool"
				}
			],
			"stateMutability": "nonpayable",
			"type": "function"
		},
		{
			"inputs": [],
			"name": "name",
			"outputs": [
				{
					"internalType": "string",
					"name": "",
					"type": "string"
				}
			],
			"stateMutability": "view",
			"type": "function"
		},
		{
			"inputs": [],
			"name": "owner",
			"outputs": [
				{
					"internalType": "address",
					"name": "",
					"type": "address"
				}
			],
			"stateMutability": "view",
			"type": "function"
		},
		{
			"inputs": [],
			"name": "symbol",
			"outputs": [
				{
					"internalType": "string",
					"name": "",
					"type": "string"
				}
			],
			"stateMutability": "view",
			"type": "function"
		},
		{
			"inputs": [],
			"name": "totalSupply",
			"outputs": [
				{
					"internalType": "uint256",
					"name": "",
					"type": "uint256"
				}
			],
			"stateMutability": "view",
			"type": "function"
		},
		{
			"inputs": [
				{
					"internalType": "address",
					"name": "_to",
					"type": "address"
				},
				{
					"internalType": "uint256",
					"name": "_value",
					"type": "uint256"
				}
			],
			"name": "transfer",
			"outputs": [
				{
					"internalType": "bool",
					"name": "success",
					"type": "bool"
				}
			],
			"stateMutability": "nonpayable",
			"type": "function"
		}
	]
}